:1000000030370020FD350000F9350000F9350000DB
:1000100000000000000000000000000000000000E0
:10002000000000000000000000000000F9350000A2
:100030000000000000000000F9350000B5310000AC
:10004000F9350000F9350000F935000035420000AF
:10005000F9350000F9350000F9350000F9350000E8
:10006000F9350000F9350000F9350000F9350000D8
:10007000F54C0000F93500007D500000F935000016
:100080009150000079530000F9350000F935000067
:10009000F9350000F9350000F9350000F9350000A8
:1000A000F9350000F9350000F9350000F935000098
:1000B0000000000010B5064C2378002B07D1054B3B
:1000C000002B02D0044800E000BF0123237010BDC4
:1000D000180B002000000000B8390100084B10B5D3
:1000E000002B03D00749084800E000BF0748036819
:1000F000002B00D110BD064B002BFBD09847F9E731
:10010000000000001C0B0020B8390100B8390100C4
:1001100000000000014B18687047C0460000002036
:1001200010B5044B9847044C2060044B984760601E
:10013000002010BDAD0C000000000020110D0000DB
:1001400010B50A4B98470A4B1B68C01A094B9842D6
:1001500000D810BD084B9847084C2060084B9847C2
:100160006060024B9847024B1860F2E7F1310000E3
:10017000340B002088130000AD0C000000000020AC
:10018000110D000010B5024B9847024B984710BD67
:10019000293A000071570000F0B5CE46474680B5B9
:1001A00083B0894690461F00104E114D00906A237F
:1001B000320029000F48104CA0474B4600936B2398
:1001C000320029000D48A047434600936C233200BB
:1001D00029000B48A04700976D23320029000948E9
:1001E000A04703B00CBC90469946F0BD1B16010019
:1001F0002C16010034160100E5830000581601009A
:100200007C160100A016010070B50400042809D86E
:100210008300164AD3589F464F23154A154916485E
:10022000164DA847164B5B68002B01D0200098475D
:1002300070BD53230E4A0F491248104DA847F1E7ED
:1002400057230B4A0B4910480C4DA847EAE75B239C
:10025000074A08490D48094DA847E3E75F23044AC8
:1002600004490B48054DA847DCE7C0469815010036
:100270001B1601002C160100C4160100E5830000C6
:10028000380B0020E41601000417010028170100B4
:100290004817010030B5C7B0AE4B1B78012B0CD00E
:1002A000002B00D14FE1DBB2052B00D94BE1AA4B6B
:1002B00098470024200047B030BD2122002109A822
:1002C000A64CA0471522002103A8A04741220021E7
:1002D00024A8A0474122002135A8A04721220021BF
:1002E0001BA8A0479E4B9847009079239D4A9E49A2
:1002F0009E489F4CA047974B187E9E4B9847041EE4
:1003000058D11BAB35AA24A903A89B4CA047041EB7
:1003100065D103AB1B78002B0BD024AB1B78002BD3
:1003200007D035AB1B78002B03D01BAB1B78002B01
:1003300077D1884BD869002863D003005633020078
:100340007732010015318D4CA047041E50D1814BEE
:10035000D869030056330200773201001531884C0A
:10036000A047884B9847041E00D0ACE02023794A70
:10037000D35C002B00D1AFE009AB1B78002B00D180
:10038000C7E012AB019309AB0093A423754A7649E9
:100390007D48774CA0477D4B9847012800D1ABE0C2
:1003A000AA23704A70497A48714CA0470422694BCD
:1003B0001A707CE7774B00937C23774A694977482A
:1003C0006B4DA847734B0093C723734A1C32654992
:1003D0007248674DA84705225E4B1A706AE76D4B5D
:1003E00000937F236C4A5F496C48614DA847E9E759
:1003F000684B00938423684A5A4968485C4DA84773
:10040000E0E7584D87232A0057496548584CA047D4
:10041000604B00938923604A29006048A047614CE3
:10042000D0E74C4BDC69002C9BD0210003A85E4B2D
:100430009847002814D12100153124A85A4B984719
:1004400000280DD12100773135A8574B9847002857
:1004500006D1210056311BA8534B9847002825D0C0
:100460008E23404A40495148414CA047394BD869F6
:100470000300563302007732010015313F4CA0478C
:10048000041E0AD1334BD869030056330200773279
:10049000010015313A4CA04763E73E4B009390238F
:1004A0003D4A30493D48324DA8478BE793232D4ABA
:1004B0002D493F482E4CA0471BAB35AA24A903A8C1
:1004C0002F4CA0474DE7334B00939B23324A2549DD
:1004D0003248274DA84775E712A909A8354B984718
:1004E000041E00D148E72B4B0093A0232A4A1D4944
:1004F0002A481F4DA84765E7A6231A4A1A492E48DD
:100500001B4CA047C8202D4B98470322114B1A7053
:10051000CDE6AE23134A14492948154CA047294B70
:100520009847041E06D10020274B98470222094B0A
:100530001A70BCE6174B0093B223174A09491748B3
:100540000B4DA8473EE7D923064A07491F48084CE8
:10055000A047ACE6380B0020B52E00003183000028
:10056000812E00001B1601002C1601006C170100E3
:10057000E58300009928000061290000212900007E
:1005800099010000212A00002C180100552A0000C2
:1005900074180100C4240100AC1501008C1701007F
:1005A000AC170100CCE5FFFF5D8B0000D417010004
:1005B00008180100C52E000050180100FD31000090
:1005C000A4180100ED29000009020000D81801005C
:1005D00010B5022802D0032804D010BD0138034B07
:1005E0009847FAE70138014B9847F6E709020000FF
:1005F00010B50C4B5870002802D001280BD010BD4C
:10060000FA208000084B98470320084B98470322A4
:10061000044B1A70F3E70330044B98470422014B54
:100620001A70ECE7380B0020FD31000009020000D1
:1006300010B5034B9B68002B00D0984710BDC046F7
:10064000380B002010B5037A002B07D10D4BDB6867
:10065000002B02D001684068984710BD012B09D0DB
:10066000022BFAD1074B5B69002BF6D0016840687A
:100670009847F2E7034B1B69002BEED001684068F6
:100680009847EAE7380B002030B583B005000E4CE0
:100690001822002120000D4B98470123237063701E
:1006A00025760B4B9847041E02D1200003B030BDC5
:1006B000084B009390235B00074A2C3207490848F7
:1006C000084DA847F1E7C046380B002031830000F1
:1006D000252E0000C4240100AC1501001B160100EA
:1006E0008C170100E583000030B583B00B4B9847B1
:1006F000041E07D10A4B012220215A541A702000EF
:1007000003B030BD074B00933223FF33064A383223
:1007100006490748074DA847F1E7C046352D0000B8
:10072000380B0020C4240100AC1501001B16010089
:100730008C170100E583000030B583B0134B1B78A4
:10074000032B09D0124B9847041E14D101220F4BE2
:100750001A70200003B030BD0E4B9847041EF1D034
:100760000D4B00934023FF330C4A48320C490D488F
:100770000D4DA847EDE7084B00934423FF33074A8C
:10078000483207490748084DA847E2E7380B0020E0
:10079000AD2D00009D2A0000C4240100AC1501000D
:1007A0001B1601008C170100E583000000280AD009
:1007B00001280BD002280CD003280DD0042804D126
:1007C000074B596101E0064B59607047044B996033
:1007D000FBE7034BD960F8E7014B1961F5E7C04629
:1007E000380B002010B5044B1B78032B02D1034BB0
:1007F000984710BD0248FCE7380B0020D12A0000C2
:100800009FE5FFFFF0B5DE464F464646C0B590B0C7
:100810006846564B9847C023DB051C68544A126A49
:100820001B6953401C4054406846524B984763072D
:1008300005D510B01CBC90469946A346F0BD4E4A63
:10084000002100204D4CA0474D4B98474D4B9847F9
:10085000020006210020A0470027444B9946454B43
:1008600098460EE00022FF20474B98470137474B40
:10087000984701004648474B9847FA204000464BAE
:10088000984702A8C847C025ED052E68384B9B46FF
:100890001B6A2A695A4016405E4002A8C04701A858
:1008A000C8472C685B461A6A2B6953401C40544069
:1008B00001A8C047630D01221340360D324037496D
:1008C00003A8374CA047374B9847374EB047020034
:1008D0000B0036491D206844A047354B9847B04768
:1008E00002000B0033492E206844A04703AA0021D0
:1008F0000020224CA0471D236B441A000221002037
:10090000A0472E236B441A0004210020A047062193
:100910003800294B98470029A4D001290DD002297D
:1009200011D0032915D0042919D005299ED1FF2201
:10093000FA31FF20144B984798E70022FE3100203F
:10094000114B984792E7FF22002100200E4B984759
:100950008CE71E221B311E200B4B984786E7822214
:100960007E318220084B984780E7C046DD3A000080
:1009700000280040EB3A0000F4180100C10E00000E
:10098000252E0000812E0000150B0000F131000023
:1009900034190100E5830000FD3100000019010059
:1009A000298A0000AD0C00003979000014190100FB
:1009B000110D000024190100715A000010B5094BF7
:1009C0009847094B9847094B98470022002100207F
:1009D000074B9847074B9847074B9847074B984753
:1009E00010BDC046C5310000B1310000110B000040
:1009F000150B0000810C00007D0F0000190E000097
:100A0000F0B583B0060005786D0143781F273B40A1
:100A1000ED18EDB201A81D4B98476B09DB01C02210
:100A2000D2059C581A4A9A18126AC021C9058C46E8
:100A300063441B6953401C40544001A8154B984720
:100A4000337A013B5A1E93413D400122AA40144093
:100A5000621E9441DBB2A34211D00F4B9847F2695A
:100A6000F369002B07D0801A322804DDF36898421E
:100A700001D2012333760023737603B0F0BD064B19
:100A80009847F06101237376F7E7C046DD3A00002E
:100A900000280040EB3A0000F131000070B506007C
:100AA00072B6047EE4B2002C11D0002303764376A4
:100AB000002562B6002C03D03369002B00D0984784
:100AC000002D03D07369002B00D0984770BD457E80
:100AD000EDB2002D01D12C00EBE7064B9847F369EE
:100AE000C01AF368984202D900237376E1E7250023
:100AF000DFE7C046F131000010B50023C361037683
:100B0000437641680220014B984710BD753B0000B9
:100B100070470000F0B5DE4657464646C0B582B085
:100B2000019190461C4B9B4698471C4B9A460022CD
:100B30001B4BD0471B4D00221B4BA8471B4EB047F9
:100B400002001B4C21001B481B4FB8470198D84797
:100B50000022134BD0470022134BA847B047020096
:100B6000164E21003000B84740466043FF21144B29
:100B700098470200134D21002800B8470D48124C39
:100B8000A0473000A0472800A04702B01CBC9046F8
:100B90009A46A346F0BDC04645780000716C00003F
:100BA000003C9F400964000000E06F40A15B000032
:100BB000CF070000541600209D3D0000281600209D
:100BC00091570000C41600207D3D000030B583B071
:100BD00004000B000A490868009222004021094CD9
:100BE000A047041E02D1200003B030BD064B009385
:100BF0005923064A06490748074DA847F3E7C04668
:100C00005C0B0020F92F0000C424010044190100EE
:100C10007F1901008C170100E583000030B583B017
:100C200004000B000A490868009222004021094C88
:100C3000A047041E02D1200003B030BD064B009334
:100C40006523064A143206490648074DA847F2E7CD
:100C50005C0B002059300000C4240100441901003D
:100C60007F1901008C170100E583000010B50022F8
:100C70000021FE20014B9847C0B210BDCD0B0000F3
:100C800010B50020054B9847054B1860054B984759
:100C900004006420044B9847200010BDC92F0000B9
:100CA0005C0B00206D0C0000FD31000010B582B01F
:100CB00001AC02222100F3200B4B984723781B0242
:100CC0006078184303239843084B9847084B98478C
:100CD000084A094B094CA047094A0A4B0A4CA0474D
:100CE0000A4B984702B010BD1D0C00005D5D00006E
:100CF00039790000619FC6DE07F7653F716C00001F
:100D0000CDCCCCCCCC6C474071710000DD790000BB
:100D100010B582B001AC02222100F5200B4B9847A0
:100D200023781B026078184303239843084B9847A5
:100D3000084B9847084A094B094CA0470022094B29
:100D4000094CA047094B984702B010BD1D0C00008C
:100D50005D5D0000397900007644CF7701405F3F48
:100D6000716C00000000184071710000DD79000016
:100D700010B582B004000B000749086800922200F9
:100D80003C21064CA047041E02D1200002B010BD39
:100D90000348044B9847F8E7600B0020F92F000048
:100DA000A8210100A984000010B5002A05D10A007D
:100DB00001000020044B984710BD0A0001004020AC
:100DC000014B9847F8E7C046710D000000B583B0AD
:100DD0000A006B46D871073301211800014B984770
:100DE00003B000BDA90D000010B582B001AC5039B0
:100DF0002170020910231A4362700E230340012060
:100E00000343A370002203212000024B984702B045
:100E100010BDC046A90D000070B5A2B021AB0022E4
:100E20005A7010329A707032002101A8094B98470D
:100E3000B02421AE084D3470002203213000A847B1
:100E40000122802101A8A8470134E4B2B82CF2D1D4
:100E500022B070BD31830000A90D0000F0B5C64678
:100E600000B582B001900E00203AD4B243B2002BFC
:100E70001ADB310001980F4B9846984724010E4F1A
:100E800008373819012208210C4DA8470136F1B264
:100E90000198C04720000830381801220821A847CF
:100EA00002B004BC9046F0BD0236F6B200230193B6
:100EB000DFE7C046E90D000088190100A90D000018
:100EC000F8B5DE4657464E464546E0B506000D00ED
:100ED00091460027284B98469B469A4634E04B445F
:100EE0005B780A2B14D0782E0FD8340020222900EA
:100EF0002000C0470834E4B2782CF7D978239B1B34
:100F0000F82213400836F618F6B20137FFB21BE09C
:100F1000782E0FD83400202229002000D047083432
:100F2000E4B2782CF7D978239B1BF82213400836BB
:100F3000F618F6B20237FFB206E029003000D847B3
:100F40000836F6B20137FFB23B004A46D25D002AAE
:100F50000BD00D2AC3D00A2AC5D0782EEDD9023580
:100F6000EDB2072D01D80026E7E73CBC9046994634
:100F7000A246AB46F8BDC0465D0E000070B500202D
:100F8000354B9847354B1860C024E4058025AD02E9
:100F9000A5616420324EB04765616420B047A56109
:100FA0000021AE202F4CA04700210020A0470021A7
:100FB0001020A04700214020A04700218120A04709
:100FC0000021CF20A0470021A120A0470021C82058
:100FD000A0470021A620A0470021A820A04700216B
:100FE0003F20A0470021D320A04700210020A04798
:100FF0000021D520A04700218020A0470021D92032
:10100000A0470021F120A0470021DA20A0470021BD
:101010001220A0470021DB20A04700214020A0474C
:1010200000212020A04700210220A04700218D2080
:10103000A04700211420A0470021A420A0470021A0
:10104000A620A047084B984700210020074B98474F
:101050000021AF20A04770BDC92F0000600B002009
:10106000FD310000CD0D0000190E0000E90D00005B
:1010700010B50400002300200BE0110041390529C0
:101080000FD837381018022B00D800010133042B79
:101090000FD0E25C110030390929EED83038101831
:1010A000F1E711006139052902D857381018EAE72D
:1010B000002010BDF0B5DE4657464E464546E0B529
:1010C00087B001900D000968AB685A1C8E189C46C9
:1010D0008C4463461B78222B0DD0002E00D1CDE02E
:1010E0002B68F61AAE60002007B03CBC90469946CB
:1010F000A246AB46F0BD68688242EED23278222A20
:1011000000D1BDE034000027A8463D0008E05C1C8B
:10111000621A824200D3AFE05A78222A00D1C5E099
:1011200023005C2AF3D1631C5A1A824200D3A1E047
:101130000135ECE7AA1B002A00DC88E071780B007F
:10114000223BD8B2532800D983E083007048C358AB
:101150009F4608233B70013702217618B44265D9B7
:1011600033785C2BE6D001363B700137F6E70C2371
:101170003B7001370221F0E70A233B70013702215F
:10118000EBE70D233B7001370221E6E709233B70B3
:1011900001370221E1E7397001370221DDE7052A35
:1011A0005EDDB01C5B4B984782465B4A52445B4B0A
:1011B0009A4257D91A005A4B5344934221D8B31D2F
:1011C000EB1A052B50DDB3795C2B4FD1F379752BDE
:1011D00001D04D463EE0300008304E4B98474E4B14
:1011E000C2184E4B9A4243D853469B024D4A134075
:1011F0008005800D034380225202944663440C21F3
:1012000001E0030006217F2B0AD9474A934255D9B2
:10121000464A934271D9464A934273D94D4619E0E2
:1012200001229446424613403B7064E04D46002341
:101230003B701033019AD360029B1361039B2A68B1
:101240009B1A0133AB6001204EE7029FEFE74D464A
:1012500000E04D4602986B6998473EE74D46F9E736
:101260004D46F7E74D46F5E74D46F3E74D46F1E7C6
:101270004D46EFE7454630E745462EE7002033E789
:10128000039634000027039B6246981AC01B013066
:101290002A6990470290002800D11EE7A642D4D2C6
:1012A00007007F229046A946039D59E703942F002B
:1012B00045465B78222B00D00FE7E4E7C02204927A
:1012C000BE3A94466246013AD2B23F208346BF38C6
:1012D000824605915846184051460843B8549B0928
:1012E000013AD2B2002AF5D105996246012A99D96C
:1012F000049A1A433A7067442FE7E0220492DD3AD9
:101300009446DFE7F0220492EC3A9446DAE7C046CE
:10131000C4210100711000000024FFFFFF03000042
:101320000028FFFF00FC0F00FF070000FFFF000088
:10133000FFFF100010B500281DD00468002C1CD041
:10134000836841688B420FD2E25C202A09D80133BE
:1013500000E0130083608B4209D05A1CE35C202B11
:10136000F7D90200100010BD02008B42FAD10139FA
:1013700081600200F6E70022F4E70022F2E70000B5
:1013800010B5014B984710BDA57C000010B5014B6E
:10139000984710BDB97C000070B5041E08D00068E5
:1013A000002805D0A5684019024B98472D18A56064
:1013B00070BDC046F58B000010B503682820984723
:1013C000041E03D028220021014B9847200010BDA5
:1013D0003183000070B5051E40D00668002E26D06F
:1013E0004368002B02D08268934239D9002939DB47
:1013F000AA68013151188B4209D22B69002B33D1D5
:101400001A4B994207D9002903DB194C04E0B6189E
:101410000DE000260BE04C002B6A002B09D02100C8
:101420003000984706006C602E60AB68F6183000FC
:1014300070BD2000AB699847061E08D0AB685A1CE7
:1014400029680C4B98472868EB699847EBE72868B0
:10145000EB69984700236B602B60E8E70026E6E71E
:101460000026E4E70026E2E70026E0E7FFFFFF3F73
:10147000FFFFFF7FAD82000070B505000E00002861
:101480000DD0084B9847441C336820009847061E2F
:1014900003D022002900044B9847300070BD00267D
:1014A000FBE7C046F58B0000AD820000F0B5C646F4
:1014B00000B50600081E00D191E0002E19D0337847
:1014C00032000025002B29D10321494B9847071EE4
:1014D00000D18AE00023984622253D70781C4246C0
:1014E0003100444B984747447D700023BB70012076
:1014F00072E003213E4B9847002800D171E003229F
:101500003D493C4B9847012066E0222B01D05C2BE3
:101510000CD1013501321378002B0BD00D2BF4D8F0
:101520000C2BF6D2190008390229F2D91F2BF1D859
:101530000535EFE7921B9046A8444346D91C2C4B37
:101540009847071E4FD0002DC6D022230370451C9C
:101550003378002B39D05C2406E02B70280001364C
:10156000451C3378002B30D01F2B03D9222B01D000
:101570005C2BF2D1681C2C7032780C2A1CD00AD853
:10158000092A1FD00A2A1AD0082A12D01B491C4B3C
:101590009847681DE3E7222A08D05C2A04D00D2A68
:1015A000F4D172236B70DAE76C70D8E722236B708A
:1015B000D5E762236B70D2E766236B70CFE76E23AB
:1015C0006B70CCE774236B70C9E73C004444222362
:1015D00063700023A370012004BC9046F0BD00207E
:1015E000FAE70020F8E70020F6E70020F4E7C0461D
:1015F000D5130000AD820000002401000424010086
:10160000298A0000F0B5DE4657464E464546E0B50D
:1016100083B00191002868D0002969D083689B4677
:10162000002A05D1002B11D0334B9A4699464EE043
:10163000002B0BD0314C5B46196A0198A04700285B
:1016400004D05B461B689B46002BF4D1584603B080
:101650003CBC90469946A246AB46F0BD20363700CA
:101660000FE0974218D12378002BEFD001340135D9
:101670002678D04780194378424613403700012B23
:10168000ECD02E78C8478019437842461340320088
:10169000012BE6D12032E4E72678174B98478019D2
:1016A0004278032313403400012B1AD02D78124BBB
:1016B000984740194278032313402A00012B12D087
:1016C0009442C3D05B461B689B46002BBED05B4652
:1016D0001D6A002DF6D0019CAC42B7D0032398467A
:1016E000C6E72034E2E72032EAE700239B46ADE775
:1016F00000239B46AAE7C0464D7C00005D8B00009E
:10170000F0B5D6464F464646C0B58CB005000C0035
:10171000002800D1E7E1002900D1ECE1037B082B90
:1017200053D01CDD202B00D1BFE020DD402B00D1A9
:101730000DE1802B19D10069002800D1ACE0C74B26
:101740009847461C31002000C54B9847002800D11F
:10175000D9E129693200C34B98470126C4E1022B25
:1017600026D0042B0AD0012B15D00026BCE1102B6B
:10177000FBD10069BC4B98470600B5E1052120006C
:10178000B74B9847002800D1B7E10522B749B54BC0
:1017900098470126A8E106212000B14B9847002870
:1017A00000D1ACE10622B249AE4B984701269BE13D
:1017B00005212000AA4B9847002800D1A1E105226D
:1017C000AC49A84B984701268EE18669C769AA4BA8
:1017D000984703681B7898460022002330003900A0
:1017E000A64DA84700220023A54DA847002810D1E8
:1017F0009E4B1A6805921A7905AB1A7104212000D4
:10180000974B9847002843D00427002305A92E258D
:1018100030E032003B009B4905A89B4DA847019052
:1018200002AA9A4905A89A4B9847012815D0320078
:101830003B00984905A8944DA8470190019F0026B8
:10184000192F00D950E139002000854B9847B0424C
:1018500020D03300B74213D0D7E7029A039B300061
:101860003900874DA8470028E8D1E0E7C554013387
:101870009F4204D05A5C4245F8D0C254F7E73B007F
:101880000022C254A3689C466744A76001262BE14E
:10189000002629E1002627E10E69002E01D000264E
:1018A00022E10868CB6998471EE187680121200082
:1018B0006B4B9847002800D127E15B230370A36896
:1018C0000133A360E3680133E360002F2FD0724B34
:1018D0009846634B99462C239A460BE0831C2022A2
:1018E000427000221A70A3689C466544A5603F6858
:1018F000002F1CD021003800FFF702FF061E00D188
:10190000F2E02000C0473B68002B10D065696B1ED9
:101910009D410135691C2000C847002800D1F6E030
:10192000534603706369002BD8D1431CD9E70221C9
:1019300020004B4B9847002800D1EAE05D2303705C
:1019400000234370E368013BE3600126CCE0876835
:101950004D696B1E9D410135691C2000404B984725
:10196000002800D1D7E07B230370E3680133E360F4
:101970006369002B01D00A234370A3689C46654429
:10198000A560002F00D189E0374B9846424D4EE0CC
:10199000A3689C466244A2602100386AC047061EC4
:1019A00000D1A1E02000A8476669731E9E41013660
:1019B000310020002A4B9847002800D1AFE03A239D
:1019C00003706369002B01D009234370A3689C4610
:1019D0006644A66021003800FFF792FE061E00D183
:1019E00082E020002C4B98476669731E9E413B683D
:1019F0005A1E9341F618711C2000194B9847002875
:101A000000D18EE03B68002B26D0431C2C220270B4
:101A10006269002A02D00A221A70013300221A7069
:101A2000A3689C466644A6603F68002F36D0636971
:101A3000002BB1D0E1682000094B9847002800D165
:101A40006BE0E268002AA3D000230921C1540133CE
:101A5000E2689342FAD39BE70300D9E7F58B0000D5
:101A6000D5130000AD820000AD1400000C2401006D
:101A7000142401001C240100897C0000716C00000A
:101A80009D5A000024240100298A00002C24010012
:101A90006D8A00003024010099130000022163695F
:101AA000002B01D0E368591C2000204B98470028E8
:101AB00039D06369002B0DD0E368012B0AD00100F7
:101AC000002309250131C5540133E268013A9342EC
:101AD000F8D308007D23037000234370E368013BC3
:101AE000E360012600E0002630000CB01CBC9046EC
:101AF0009946A246F0BD0026F6E70026F4E7002648
:101B0000F2E70026F0E70026EEE70026ECE70026E5
:101B1000EAE70026E8E70026E6E70026E4E70026F5
:101B2000E2E70026E0E70026DEE7C046D513000026
:101B3000F0B58BB005000E0014002422002101A88E
:101B4000204B9847802040002368984701900696D4
:101B500007AB2200C2CAC2C300281AD001A92800BC
:101B6000194B9847002809D1019D002D03D06368C7
:101B700028009847002528000BB0F0BD01A8134BA2
:101B80009847A368002B06D0029901989847051E34
:101B9000F1D10025EFE7039B581C23689847051EE9
:101BA000E2D0039A029B01329A4200D91A000199AD
:101BB0002800074B9847039B0022EA54636801986A
:101BC0009847D8E7318300000117000099130000FF
:101BD000AD820000F0B5C64600B5041E24D0144BFB
:101BE00098461F001E0004E02000736898472C1ED2
:101BF0001AD02568E368DB050DD4A068002804D05E
:101C0000FFF7E8FFE368DB0505D42069002802D070
:101C100043465B689847E3689B05E5D4206A002843
:101C2000E2D07B689847DFE704BC9046F0BDC04631
:101C300008000020F0B5DE4657464E464546E0B562
:101C400093B080460C1E00D18CE10E68002E00D1AE
:101C5000AEE18D684F682B1DBB4229D87019042254
:101C6000C149C24B9847002814D06B1D9F4200D336
:101C7000A3E170190422BE49BC4B984700281BD130
:101C800002234246D360013B5361A3680433A3603F
:101C9000013006E004234246D360A3680433A36006
:101CA000013013B03CBC90469946A246AB46F0BD0D
:101CB0006B1D9F4200D390E10020BD42F1D2761906
:101CC0003378222B16D02D2B19D01A00303A092A3E
:101CD00015D95B2B7CD000207B2BE2D1E368A54A91
:101CE0009342DED80133E36033787B2B00D1CDE023
:101CF0000020D6E7210040469F4B9847D1E70023BC
:101D000001939E4B984703681878216800295BD09F
:101D1000A3686668B3421BD2F61A0022C91808E00D
:101D20006B460827DB199D5401323F2A11D0B2427D
:101D30000FD08D5C2B002B3BDFB23A2F09D8BB00B4
:101D40008F4FFB589F466B4608255B199854EBE76D
:101D5000002202AB9946002349468B5401A948460C
:101D6000884B984706000F00019B9A464B452DD0A3
:101D700043469E61DF61844A844B854DA847002815
:101D80000ED0844B4246536108234246D36002ABD7
:101D90005246D51AA3689C466544A560012080E799
:101DA00000227D4B300039007C4DA847002804D02C
:101DB00080231B0642465361E6E730003900784B2A
:101DC000984743465861DFE700206AE7002068E74C
:101DD000E368684A0020934200D962E70133E36078
:101DE00033785B2B01D000205BE70135A560200034
:101DF0006C4B9847A3686268934200D3DAE022688C
:101E0000D25C5D2A35D0013BA36000273E00664BC3
:101E10009A46644B99469B4616E00600A368013338
:101E2000A3602000C84721002800FFF703FF002817
:101E300016D02000D847A3686268934210D2226867
:101E4000D35C2F002C2B09D120001030D047051E69
:101E500006D0002EE1D038604760DFE75D2B09D067
:101E60000020864200D11CE73000504B98470020EC
:101E700017E70026E368013BE36020234246D36076
:101E80009660A3680133A36001200AE70135A560CD
:101E90002000444B9847A368626893420AD22268A4
:101EA000D25C7D2A51D0013BA36000273D003E4B10
:101EB000994635E0013BA3601AE70500A3680133AA
:101EC000A3602000374B9847210030002A4B9847E9
:101ED000002831D02000334B984733693362002308
:101EE0003361A3686268934226D22268D25C3A2AA0
:101EF00022D10133A36020002A4B984721003000F3
:101F0000FFF798FE002817D02000264B9847A368BB
:101F10006268934210D22268D35C37002C2B09D11F
:101F200020001030C847061E06D0002DC5D03860EE
:101F30004760C3E77D2B09D00020002D00D1B0E61B
:101F400028001A4B98470020ABE60025E368013BC8
:101F5000E36040234246D3609560A3680133A360E9
:101F600001209EE600209CE60C240100598C000014
:101F70001C240100E7030000B5100000897C00006C
:101F8000142301004D9C00000000C0FFFFFFDF4153
:101F9000E55A0000FFFFFF7F0000E0C1BD5A0000CE
:101FA000DD77000035130000B9130000D51B0000D9
:101FB000002076E6013BA36015E7701905220B4966
:101FC0000B4B9847002800D053E601234246D360CC
:101FD000A3680533A360012063E670190522034955
:101FE000034B9847002800D066E6EEE71424010072
:101FF000598C0000F0B58BB005000F0001921C2237
:10200000002103A8274B9847274B00221A605A60EB
:10201000002D45D003952800244B984701300490AB
:10202000234807AB020052CA52C3224B9847041EF2
:1020300021D003A8204B9847010020001F4B984750
:10204000002815D0019B002B07D1002F20D0039B27
:10205000059A944663443B601AE003A8164B9847E0
:10206000059B049A934203D2039AD35C002BECD0D5
:102070002000134B98470598049B984203D31800FF
:10208000421E9041181A002F05D0281838600024ED
:1020900020000BB0F0BD044B1D6058600024F7E732
:1020A0000024F5E731830000640B0020F58B00006D
:1020B00008000020B913000035130000351C000093
:1020C000D51B000010B500220021014B984710BD20
:1020D000F51F000010B5024A0021024B984710BDC1
:1020E00008000020311B000010B50022014B98476A
:1020F00010BDC0460516000000290CD000280AD0EB
:102100008268002A02D1816005E01A001368002B62
:10211000FBD111604A60704770B505000E00141EB7
:1021200012D0D3689B0505D4106A002802D0074B53
:102130005B689847266280239B00E2681343E36054
:1021400021002800024B984770BDC04608000020BF
:10215000F920000070B50500080014000649074B7F
:102160009847010022002800054B9847054BE2687C
:102170001340E36070BDC0460800002079140000E1
:1021800019210000FFFDFFFFF8B506000F001348FE
:10219000134B9847041E1BD00823C3608661C76198
:1021A000104A114B30003900104DA84700280DD1BE
:1021B00000220F4B300039000E4DA847002809D1EE
:1021C000300039000C4B9847606101E00B4B6361B4
:1021D0002000F8BD80231B066361F9E7080000209A
:1021E000B91300000000C0FFFFFFDF41E55A000007
:1021F0000000E0C1BD5A0000DD770000FFFFFF7F57
:1022000010B50448044B9847002801D04023C36010
:1022100010BDC04608000020B9130000002805D0FA
:10222000007B403843425841C0B270470020FCE771
:102230000EB400B582B0002803D102B008BC03B0D0
:10224000184704A901910398014B9847F5E7C04648
:1022500001DB0000F0B5DE4657464E464546E0B588
:10226000A1B00890099100230493A24B9B4685E0FE
:10227000012053E0E578252D13D02A2D11D09D4A59
:1022800025241454851C9446604442464270013112
:10229000013328004E1E1C009A78002A14D0252AEB
:1022A000E8D0451C0E005F463A54A2780A2AEED1C7
:1022B000022925DD22785B2A26D162785E2AE6D0C3
:1022C00028000123069301E000230693894A252371
:1022D000135413186E215970C11C8A46002199703D
:1022E000854B18788549864B984700230793994674
:1022F000804B534405937F4B53440393B04666E0B1
:10230000280001230693E1E7280001230693DDE777
:10231000794B18787B497A4B9847002021B03CBC18
:1023200090469946A246AB46F0BD049B3A2B54D149
:1023300007998A000CAB4846D0506E4B4B4478222C
:1023400050461A540B000133079301239C46E14485
:1023500043E0FF68002F1DD03A68AA42F9D17E6899
:1023600003993000684B98470028F2D1624B1878E7
:1023700032006649624B9847BB689847089B1B78B8
:10238000002B00D174E7089B023B012100202A2288
:1023900090467FE701235B420B93069B002B2DD0D9
:1023A0000A2C47D06B1C43D04A46023280239B0044
:1023B00051465B1AA9469A4209DB4E4A52444E4B9B
:1023C000187853494E4B9847002307939946514B31
:1023D0009847041E9CDB0A28A7D0E3B21A00049396
:1023E0004B465D1C434B4B4451465A54059B0022BF
:1023F0005A55414B5F68002FAED1CBE73D4F534656
:10240000FE180BAA39003000434B98473A4B187816
:1024100001950B9B009333003A004049384EB0477A
:102420000B9B9D4202D00A2CBED1C6E7464617E060
:10243000464615E02F4E5346F4180BAA31002000F3
:10244000354B98472C4B187801950B9B0093230034
:10245000320032492A4CA0470B9B9D42ADD14646E3
:10246000079B002B25DD0CAF0024224A90462C4A06
:10247000914642465244039205961E002B00554653
:102480009A463B681B1B08C75919424650185246CA
:10249000121BD21A013A01314144C847164B187831
:1024A000039A2049164B98470134A642E9D1059E6C
:1024B000AA46104C5346E5180F4B18782A001949C4
:1024C0000F4B98473200089F39002000144B984763
:1024D0000023A355099A21002800134B9847BC46B6
:1024E000B444634608931B78002B00D04BE70120CF
:1024F00014E7C0467C0B00207C0D00204424010022
:10250000312200004C240100618200005C240100A3
:10251000802401004D3100006D8A00006424010018
:10252000AD82000078240100A5DB00000FB400B5E7
:1025300083B004A901C90191024B984703B008BCBC
:1025400004B0184755220000F8B506000D1E09DD3D
:102550000024074F305DB847002805DB0134A54251
:10256000F8D103E0002401E0012464422000F8BD1A
:1025700019310000F8B507000D1E09DD0024074ED3
:10258000B047002806DB38550134A542F8D103E0F6
:10259000002401E0012464422000F8BD4D31000018
:1025A00070B505000E001020064B98470400280067
:1025B000054B984720606560A660044B5A68E2604E
:1025C0005C6070BDA57C0000F58B00007C0D0020D8
:1025D000F0B5DE4657464646C0B582B0294B98470F
:1025E000019000229046002819D0274B9B46274B8C
:1025F0009A46274F33E0E468002C17D022689542B2
:10260000F9D1666821493000B8470028F3D1214B41
:10261000187832002049214B9847A36898470198C1
:1026200002B01CBC90469A46A346F0BD4246023218
:102630001B4B9A420ADC174B9968DB68EB1A13486C
:10264000C018184B9847A846002808D1114B187895
:102650002B000E4A1449114CA04700239846D84736
:1026600000280CDB43465D1C534642469854002329
:1026700052465355074B5C68002CBFD1D6E7002368
:102680000193CCE7953100004D3100007C0B002018
:10269000618200007C0D00208824010031220000AE
:1026A000FF0100005D8B000094240100F8B50500D7
:1026B0000E00194FB847041EFCD1320029001748FC
:1026C000174B9847002825DB144B187800280AD0B0
:1026D0001D000135134EB04700281BDB01356B1E72
:1026E00018780028F7D1104B1B69187800280AD0F9
:1026F00000250C4E0C4FB04700280BDB01353B6921
:10270000585D0028F7D1084B1878044A0749084B50
:10271000984701242000F8BDD12500007C0B002043
:1027200049DB0000193100007C0D0020A4240100C9
:10273000312200000FB400B583B004A901C9019192
:10274000024B984703B008BC04B01847AD26000000
:10275000F0B5DE4657464E464546E0B585B0040026
:1027600003900D0001910292244B984707002A0024
:102770001460A346451E0123009300239846204B76
:102780009A46204B99460FE0303B039A1370611C28
:102790002A0020001C4B9847337898460134013DAD
:1027A0005B46E31A9F4220D32600227853461878CE
:1027B0003B001649C84723782C2BEDD1104B1878D5
:1027C0001349104B984743465C2BDDD00023237000
:1027D000009A130001339200611C01981150029A73
:1027E000934201DC0093D7E70093009805B03CBC0E
:1027F00090469946A246AB46F0BDC046F58B000018
:102800007C0D002031220000AD820000AC240100CC
:10281000BC24010070B51500054C23702061A16037
:102820000800044B9847E0602800034B984770BDB0
:102830007C0D0020F58B0000CD3000008900085889
:1028400070470000F0B5CE4600B582B00191056832
:102850002B78002B1AD0061D00240D4B99460D4FE6
:102860002800C847020001992800B847002808D06E
:102870000134E4B2FF2C04D020CE2B78002BEFD112
:10288000FF24200002B004BC9146F0BDFF24F8E70D
:10289000F58B00006182000010B584B0040016487A
:1028A000164B9847002821D001A91548154B984789
:1028B00000281DD001A91448144B98470023A042BA
:1028C0000FD021001048124B9847010011480B4BC4
:1028D000984700280ED010480A4B9847002300283C
:1028E00002D0180004B010BD0C4BFAE70B4BF8E710
:1028F0000A4BF6E7094BF4E7742501003527000081
:10290000842501002D2500005400002045280000EA
:102910003D280000A025010064270100A6E5FFFF77
:1029200010B582B0009313000A0001000848094C5A
:10293000A047002808D00848084B98470123584072
:10294000C0B2404202B010BD01204042FAE7C0468A
:10295000B425010035270000642701002D25000063
:10296000F0B5BBB004000F0016001D001748184B4F
:102970009847002824D008A91648174B98470028E4
:1029800020D0042203A908A8144B984704281BD17F
:10299000152203992000124CA047049B0193412269
:1029A00019003800A047059B01934122190030000F
:1029B000A047069921222800A04700203BB0F0BD87
:1029C0000848FBE70748F9E70748F7E7CC25010087
:1029D00035270000D82501002D25000051270000D3
:1029E000ED8C0000A6E5FFFFAAE5FFFF10B5084843
:1029F000084B9847002807D00748084B9847012301
:102A00005840C0B2404210BD01204042FBE7C046E2
:102A1000F025010035270000642701002D25000066
:102A200010B50848084B9847002807D00748084BBE
:102A3000984701235840C0B2404210BD0120404297
:102A4000FBE7C0461026010035270000642701007F
:102A50002D25000000B587B00A480B4B9847FF238F
:102A6000002802D1180007B000BD01A90748084B93
:102A70009847FF230028F5D001A90648064B984740
:102A80000300EFE720260100352700003026010073
:102A90002D250000440000204528000010B50848FE
:102AA000084B9847002807D00748084B9847012350
:102AB0005840C0B2404210BD01204042FBE7C04632
:102AC0004C26010035270000642701002D25000059
:102AD00070B505000C000C480C4B984700280DD031
:102AE000210028000A4B984784420AD109480A4B22
:102AF000984701235840C0B2404270BD0120404277
:102B0000FBE701204042F8E7682601003527000076
:102B100049250000642701002D25000010B590B064
:102B2000002306930DA96A486A4B9847002814D1E0
:102B3000694B0093CF23694A69496A486A4CA047A8
:102B40000698002800D1BFE0684C694B9847674B56
:102B50009C4200D1B8E010B010BD0DA96548664B8D
:102B60009847FF2810D0002817D0012836D0022817
:102B700037D003285FD00238C0B201285ED906984A
:102B80000028E8D00024E0E7534B0093D223534AB7
:102B900053495448544CA047D2E708A957484D4BD5
:102BA0009847002808D14C4B0093D5234B4A4C49F9
:102BB0004C484D4CA047C3E708A951484E4B984795
:102BC000FF2802D04F4B9847D9E7434B0093D723B8
:102BD000424A43494348444CA047B1E74A4B9847CF
:102BE000CDE708A949483B4B9847002808D13A4B04
:102BF0000093DE23394A3A493A483B4CA0479FE7C5
:102C000008A943483C4B9847FF2805D000280CD121
:102C1000002205AB1A7211E02F4B0093E0232F4ADC
:102C20002F493048304CA0478AE7022806D10122BC
:102C300005AB1A7202E0022205AB1A72002304935C
:102C400004A93448234B984700280CD1224B009309
:102C5000EE23224A22492348234CA0470698002805
:102C600032D0224C71E7049CE01C2B4B9847069015
:102C7000002814D0A11C294B9847049B9A1C904211
:102C800017D0154B0093F323144A15491548164CD9
:102C9000A047234C0698002800D056E75BE70E4B70
:102CA0000093F1230D4A0E490E480F4CA0471D4CCE
:102CB000F0E7069A039200220399CA54049B0593F5
:102CC00005A8194B98475AE7184B984743E7C04661
:102CD000B42601002D250000C42401005C2501005C
:102CE000D72601008C170100E5830000AAE5FFFF4D
:102CF000B97C00002400002045280000E4260100E3
:102D000038000020F105000031060000F026010027
:102D100014000020FC260100A57C000075250000A1
:102D2000BEE5FFFFB8E5FFFF45060000312D0000BE
:102D30007047000070B51748174B9847002823D0FC
:102D40001648174B9847002821D00524154E124DE0
:102D500002E0013C002C14D03000A8470028F8D035
:102D60000E480F4B98470028F3D00F480A4B98475E
:102D70000028EED009480A4B98470028E9D00020E7
:102D800001E00120404270BD01204042FBE70120EC
:102D90004042F8E7002701003527000064270100C2
:102DA0002D2500000C2701001027010070B51748E1
:102DB000174B9847002823D01648174B98470028F0
:102DC00021D00524154E124D02E0013C002C14D0F8
:102DD0003000A8470028F8D00E480F4B984700282D
:102DE000F3D00F480A4B98470028EED009480A4B09
:102DF00098470028E9D0002001E00120404270BD42
:102E000001204042FBE701204042F8E72027010073
:102E100035270000642701002D2500000C27010044
:102E20001027010010B50023FA2292000B490C482C
:102E30000C4CA0470C4B9847002806D00A4B9847EB
:102E4000002802D00120404210BD08490848094C22
:102E5000A04709490948A0470020F5E7701801007C
:102E60002C27010015280000352D00001D2B000027
:102E700030270100A1250000512F00003C27010050
:102E800010B50748074B9847002807D00649074860
:102E9000074B9847002800D0034810BD0020FCE7EE
:102EA0004827010035270000900D0020542701001D
:102EB0002D25000010B5024CA0470028FCD110BD04
:102EC000D125000030B59DB005000C001748184B07
:102ED0009847002820D003A91648174B9847002888
:102EE0001CD01648144B9847002819D0022201A97B
:102EF00003A8134B9847022814D1002D03D0019941
:102F00002800104B9847002C0ED0029920000D4B42
:102F1000984700201DB030BD0B48FBE70A48F9E791
:102F20000948F7E70948F5E70020F3E7A42701007F
:102F300035270000B02701002D250000642701007F
:102F400051270000E58B0000A6E5FFFFAAE5FFFF83
:102F500010B586B002A91148114B984700280BD133
:102F6000104B00934923104A10491148114CA047B7
:102F7000114B984706B010BD02A91048104B984756
:102F8000FF2802D00F4B9847F4E7064B00934C23E1
:102F9000054A06490648074CA047E9E7E42701002F
:102FA0002D250000C42401008C2701000728010002
:102FB0008C170100E5830000312D00007C0000200B
:102FC00045280000D105000010B5064B9847064C77
:102FD000642200212000054B98472000044B9847AD
:102FE000044810BD71370000E4160020613C000069
:102FF000413C0000B00D0020F0B583B014001D006E
:1030000008AB1F7809B20C4E012230000B4B9847D9
:103010003B002A0021003000094CA047041E02D1C9
:10302000200003B0F0BD074B00934B23064A07492D
:103030000748084DA847F3E7E41600204D3C000080
:103040006D3C0000C4240100142801005428010034
:103050008C170100E5830000F0B583B014001D005B
:1030600008AB1F7809B20D4E012230000C4B984777
:103070003B002A00210030000A4CA047041E02D168
:10308000200003B0F0BD084B00935923074A1832C3
:1030900007490848084DA847F2E7C046E416002053
:1030A0004D3C0000B53C0000C42401001428010080
:1030B000542801008C170100E583000070470000D0
:1030C0000122014B1A7070479000002070B50A4B26
:1030D00058600A4C0A4A002120000A4DA8470A4AB3
:1030E00001212000A84709492000094B98472000EA
:1030F000084B984770BDC046900000207416002011
:10310000BD300000493F0000C1300000B40D002078
:10311000413F0000313F000000B583B06B46D91D30
:103120000870074B18680122064B98470022064B8F
:103130001A701A001378002BFCD0002003B000BDD9
:10314000B40D0020353D000090000020F0B583B0A4
:103150000C4B984707000C4D0C4C0A4E01226B4655
:10316000D91D2868A047012808D0B047C01B084BCC
:103170005B689842F2D30120404201E06B46D87967
:1031800003B0F0BDF1310000B40D00203D3D000062
:103190009000002010B5044B18683430034B98475A
:1031A000431E9841C0B210BDB40D0020B7400000CE
:1031B00070470000024A1368013313607047C0462D
:1031C000B80D0020074A084B53600848036A1B02E9
:1031D0001B0AC02109060B430362002393600733D7
:1031E0001360704710E000E07F3E000000ED00E05B
:1031F000014B18687047C046B80D002082B001909E
:10320000044B186819000B68019A1B1A9342FAD3F1
:1032100002B07047B80D0020014B18607047C046DF
:10322000BC0D002070B51C4B98471C4B98470020E4
:103230001B4B9847002813D11A4900201A4CA0476D
:103240001A490320A0471A490220A0471949012022
:10325000A04719490420A047184D194C194E0DE0FC
:103260006723194A19491A481A4CA047E4E7B0479E
:103270000022134B5A6005E0174B9847A847636834
:10328000012BF4D00E4B1B68012BF5D1134B984743
:1032900000220B4B1A60EFE7C5310000B13100008E
:1032A00089060000E1320000AD070000593300003C
:1032B000E5340000A13300008133000095020000D6
:1032C000BC0D0020E90600007128010080280100E3
:1032D00084280100E5830000DD5500003907000067
:1032E00010B5042809D88000124B1B589F460A23AA
:1032F000114A12491248134CA04710BD0D230E4A23
:103300000E4911480F4CA047F7E710230A4A0B4912
:103310000E480C4CA047F0E71323074A07490C4816
:10332000084CA047E9E71623034A04490948054C1D
:10333000A047E2E7A4280100C92801008028010075
:10334000D8280100E5830000F828010018290100B1
:10335000382901005829010010B582B000901F23C0
:10336000034A04490448054CA04702B010BDC046BA
:10337000C92801008028010078290100E5830000A8
:1033800010B52423024A03490348044CA04710BD4A
:10339000C92801008028010098290100E583000068
:1033A000F0B583B02A23394A39493A483A4CA04704
:1033B0003A4B9847041E46D000203949394EB04751
:1033C000020039492000394DA84700203849B0474C
:1033D000020038492000A847304B984707000020DA
:1033E0000021B047020034493800A8470020304986
:1033F000B047020031493800A84700202C49B047A7
:1034000002002F493800A8473A002E492000A8475B
:1034100020002D4B9847051E1CD020002B4B9847B1
:1034200000954223194A1A4929481B4CA0472800F5
:10343000284B984701002800274B98472800274B26
:10344000984703B0F0BD2F23104A11492448124C6D
:10345000A047F6E70D4F3D233A000D4920480E4D99
:10346000A8472000194EB0472000B0470023009322
:1034700042333A0006491648A8470020154B9847A2
:1034800001000020144B9847DBE7C046C928010023
:1034900080280100B4290100E5830000012200001A
:1034A0000000F03F89210000F029010055210000B3
:1034B00000005940FC290100082A01000C2A0100E3
:1034C000182A0100202A0100D5200000D51B000089
:1034D0002C2A0100F58B0000E5070000B97C0000F4
:1034E000D0290100F0B5D64600B586B0050004919C
:1034F00000904E232D4A2E492E482F4CA0472800DD
:103500002E4B9847041E03D02D4B9847002809D115
:103510005323264A26492B48274CA04706B004BC13
:103520009246F0BD28492000284B9847002807D034
:10353000436900935A231D4A1D4925481E4FB84729
:1035400024492000214B9847002807D04369009365
:103550005F23164A16492048174FB8471F492000D5
:103560001A4B9847002818D01D490590174FB847A7
:1035700006001C490598B84782461B490598B8477C
:1035800053465B690293736901934369009368230F
:10359000064A07491548084FB8472000144B98477A
:1035A00004992800134B9847B8E7C046C928010082
:1035B00080280100402A0100E5830000C5200000AA
:1035C0001D220000602A0100F0290100E92000000E
:1035D000802A0100FC290100A02A0100202A010004
:1035E0000C2A0100182A0100082A0100C02A010043
:1035F000D51B0000E5070000FEE7000010B51A4AE1
:103600001A4B9A4211D01A00194B9A420DD2194AFC
:1036100003339B1A9B0801339B0000221348124975
:103620008C58845004329A42FAD1134A134B9A426E
:103630000AD2D34311495B1803218B4304339B18EF
:10364000002102C29342FCD10D4AFF210D4B8B4356
:1036500093600D4A53687F390B4353600B4B984777
:103660000B4B9847FEE7C046B83901000000002028
:10367000180B002004000020180B00203017002039
:1036800000ED00E00000000000400041DD7B000094
:103690003156000070B540218C23124AD150124A95
:1036A00051697533FF330B435361C022D2050420A7
:1036B00050600E4B0E4999620E499962506042214A
:1036C0005C5C04252C435C5490615A5C0338824353
:1036D00002435A5411395A5C0E3082435A54064BF5
:1036E000984770BD001800400004004000280040CA
:1036F00004000240000002C0513B000070B5124BB4
:103700004820195C042291431954195C0125A943EE
:1037100001242143C9B219541438195C0F26B1434E
:103720000D3E3143195449215E5C96435E545A5C08
:10373000AA432243D2B25A541A5C3A390A40113190
:103740000A431A5470BDC04600280040064B402171
:10375000C82299500331043A9950044AD369423936
:103760000B43D3617047C04600180040000400407E
:1037700010B5054B98478421C9050448044B984768
:10378000044B984710BDC0464D370000E41600209A
:103790001D3C0000FD36000030B50E4B5622995CF2
:1037A0000125A94301242143C9B299543B20195C46
:1037B000473A91430D3A1143195457215A5CAA4391
:1037C0002243D2B25A541A5C48390A4011310A4392
:1037D0001A5430BD00280040064B4021D422995095
:1037E0000331103A9950044AD3693B390B43D361F2
:1037F0007047C046001800400004004010B5054B5B
:103800009847002204490548054B9847054B9847BF
:1038100010BDC046D9370000000C004248160020F9
:103820002540000099370000064B4021D8229950CE
:103830000331143A9950044AD36933390B43D361A5
:103840007047C046001800400004004030B50E4BE1
:10385000C822995C0125A94301242143C9B2995486
:10386000B420195CB93A91430C3A11431954C92157
:103870005A5CAA432243D2B25A541A5CBA390A405B
:1038800021310A431A5430BD0028004010B582B0DF
:10389000074B98470023009380231B01054A0649E4
:1038A0000648074CA047074B984702B010BDC046DA
:1038B00029380000C40D00200010004274160020BA
:1038C000CD3E00004D380000074ACD21535C012059
:1038D0008343034353541739535C0E300340313054
:1038E000034353547047C04600280040054AD1693D
:1038F00080235B000B43D3614021EC23024AD1506B
:103900007047C046000400400018004010B5064B48
:103910009847064B9847064B9847020005490648CA
:10392000064B984710BDC046ED380000C93800006E
:103930006D53000000200042C41600205D3D0000D1
:10394000074ACA21535C012083430343535415396A
:10395000535C0E3083430A38034353547047C046C8
:1039600000280040044AD36920210B43D361203151
:10397000E423024AD1507047000400400018004080
:1039800010B5064B9847064B9847064B98470200E0
:1039900005490648064B984710BDC04665390000EA
:1039A00041390000715000000014004254160020FC
:1039B0005D3D0000074A4C21535C012083430343D3
:1039C00053541639535C0E3083430B38034353541E
:1039D0007047C04600280040044AD36980210B4349
:1039E000D3614039E823024AD150704700040040B7
:1039F0000018004010B5064B9847064B9847064BF9
:103A00009847020005490648064B984710BDC04636
:103A1000D9390000B539000071500000001C004287
:103A2000281600205D3D000070B51F4B9847C0224E
:103A3000D2058021890291601C4B8020C0059862CC
:103A40001B48986251615124195D01208143195529
:103A5000802149035160174E9E6217499962542193
:103A60005C5C0425AC435C545C5C84435C54802106
:103A7000890351609E62114A9A625522995CA9435A
:103A80009954995C814399540D4B98470D4B984735
:103A90000D4B98470D4B98470D4B98470D4B98474A
:103AA0000D4B984770BDC0462141000000280040E2
:103AB000020000C000000240100002C0200002C04E
:103AC0009536000071370000FD3700008D3800008A
:103AD0000D39000081390000F5390000EFF3108343
:103AE000036072B6BFF35F8F7047BFF35F8F0368E9
:103AF00083F310887047000010B5044B1C68044B1A
:103B0000984701002000034B984710BDC4150020C2
:103B1000FD4000001941000070B50C4B5C68A042EC
:103B20000ED0012200210126FF2503E02A005318B0
:103B30005B080AD1A042F9D9002A06D03100F6E785
:103B4000024B1B68002B00D0984770BDC8150020A1
:103B500010B5054B012252425A6000221A600348F8
:103B6000034B984710BDC046C8150020193B000004
:103B70006941000010B50F4B5B68984208D00029DE
:103B800014D00C4B1B68002B09D00D2040420CE0D8
:103B9000084B1960002905D1074B984705E0054BF4
:103BA000196058600121044B984710BD0D20404218
:103BB000FBE7C046C81500200D42000010B584B0D8
:103BC000140001AB1438828B1A800294054A5A8083
:103BD00003911900044B9847002800D1200004B03D
:103BE00010BDC0460080FFFF5148000010B584B0F2
:103BF000140001AB1438828B1A800294054A5A8053
:103C000003911900044B9847002800D1200004B00C
:103C100010BDC0460180FFFF5148000010B50400F0
:103C2000044B9847002803D1034BA361034B636106
:103C300010BDC04681460000ED3B0000BD3B0000CA
:103C400010B5014B984710BD914600008905890DBC
:103C50008023DB001A400A43828310007047000073
:103C600010B5014B984710BDD546000070B586B021
:103C7000040016001D006B46D971073303A9828B1F
:103C80000A8001224A6000224A808B60074B9847D5
:103C9000002801D006B070BD03A9054B4B808E6093
:103CA0004D602000014B9847F4E7C04651480000A2
:103CB00000A0FFFFF0B5DE464F464646C0B586B0D1
:103CC000904699466B46D971073303A9828B0A80C7
:103CD00001224A6000224A808B600090104B984776
:103CE000061E16D1C82503AC0E4B1B889B460C4FF5
:103CF0005B4663804346A3604B46636021000098A7
:103D0000B847061E05D03220074B9847013D002DCD
:103D1000EED1300006B01CBC90469946A346F0BDDB
:103D200051480000EE2A0100F93A00001430086002
:103D30000020704710B50368984710BD10B5436860
:103D4000984710BD10B54369002B00D0984710BDAF
:103D500010B58369002B00D0984710BD10B5040042
:103D6000C26113689847034B2360034B63600020D4
:103D700010BDC046453D0000513D000010B5040097
:103D8000C3695B699847002805D1E3699B682000F7
:103D90009847002010BD11204042FBE710B5C369D1
:103DA0001B699847002010BD10B508380023036335
:103DB000436A002B00D0984710BD10B50838002387
:103DC0000363C36A002B00D0984710BD10B50400F0
:103DD0002C30044B9847236A083C002B01D020006C
:103DE000984710BD9540000010B514004423C25AF6
:103DF0000833C35A9A420CD181644C23C452002226
:103E0000083BC252433B03630830034B98472000F2
:103E100010BD1C204042FBE71D46000070B50400A9
:103E200001000839838F4C228A5A9A420CD00A002A
:103E3000896C5D1C44201552C95C2000044B9847D6
:103E40002000044B984770BD034B9847FBE7C046E2
:103E5000F94500001D46000025460000F0B5C646A5
:103E600000B584B006000C00904603A8134B984799
:103E7000343630000196124B9847070003A8114BC7
:103E80009847002F16D04346002B15D02500013F40
:103E9000E71900240C4E0134A4B229000198B04760
:103EA000BD4202D00135A045F5D1200004B004BCCC
:103EB0009046F0BD0024F8E70024F6E7DD3A000064
:103EC000B7400000EB3A00007340000070B50400FA
:103ED0000D00110034301A000D4B9847002813D103
:103EE0002000083029000B4B984700280BD10A4BC3
:103EF00063600A4B23600A4BA3600A4BE3600A4BE2
:103F000023610A4B636170BD0D204042FBE7C04650
:103F100059400000694500005D3E0000E93D000099
:103F20001D3E0000CD3D0000A93D0000BB3D00004E
:103F300010B50830014B9847002010BDDD4500004A
:103F4000086000207047000010B5012910D000293A
:103F500004D0022916D00D20404208E08262531E90
:103F60009A41D2B2083001210B4B9847002010BD76
:103F70004262531E9A41D2B208300221064B984742
:103F80000020F4E7C262531E9A41D2B208300321E6
:103F9000014B98470020EAE72D460000F8B5CE46D1
:103FA000474680B50F009046083004000B4D2000B6
:103FB000A8470028FBD00026094B9946074DB95D5C
:103FC0002000C8472000A8470028FBD001364645FE
:103FD000F5D330000CBC90469946F8BD0946000068
:103FE000F1450000F8B5CE46474680B58946904673
:103FF000002608300400094D094F2000A84700287A
:10400000FBD02000B8474B46985501364645F4D3BF
:1040100030000CBC90469946F8BDC04613460000DF
:104020000146000010B504000830044B98470028F2
:1040300003D1034B6360034B236010BD594500005F
:10404000E53F00009D3F000010B50830014B984748
:10405000002010BDC9450000531E134206D1436025
:1040600000238360C3600160002070470D20404240
:10407000FBE78368C2689A4209D04268134002682D
:10408000D35C0B70836801338360002070470A2083
:104090004042FBE74368C26813400268D154C368DA
:1040A000416882689A1A8A4201D9591A816001339B
:1040B000C36000207047C3688068181A704700000A
:1040C0000300064A1268002A04D0044A1068C31884
:1040D000136070470249014A1160F6E7D0150020CD
:1040E0003037002001204042704780239B014B6005
:1040F00000207047012070470020704710B5030072
:104100008000C018400102300321024B984764230D
:10411000584310BD915700000139FDD87047000089
:1041200010B50A4B5A685A600220094B9847094B50
:104130009847094B9847094B98470820084CA047D7
:10414000084B9847F720A04710BDC04600400041EB
:104150005B43000021430000394300000D43000091
:10416000F942000059430000254901224B681A42D8
:10417000FCD1234903224B681A42FCD1204B1B7807
:104180009B0739D41E4901224B681A42FCD11C4AB4
:10419000137801210B431370110001224B681A425E
:1041A000FCD1174903224B681A42FCD1144B1A78F0
:1041B00010218A431A7000225A709A60C02292001D
:1041C000DA6103221A6219004B681A42FCD10C4AC8
:1041D000137802210B4313700A4B08227E315A5088
:1041E000BFF34F8FBFF36F8F0131FF315A501A6009
:1041F000054B18600020704711204042FBE7C04685
:104200000024004000E100E0D4150020022802D084
:10421000012040427047002905D1054B0422DA6095
:104220005A610020F6E70422014B1A610020F1E7F1
:1042300000240040F0B5CE46474680B583B02A4BF7
:104240005A690192019A5A61019B002B47D00123C0
:104250005B429946254B9846254F264D38E0013A5A
:10426000D6B2B1420CD873185B10DAB20340DB004F
:104270005B5DA34208D09C42F1DD0132D1B2F0E790
:104280004B46013305D001E00223994648463B687E
:104290009847019B0122A240934301930198134B3D
:1042A0009847013844B2631C0AD0022C05D002237F
:1042B000002200210126FF20DDE702239946E5E7E1
:1042C000094B5A690192019A5A61019B002B06D051
:1042D0000198C047013844B2631CE6D1F0E703B04F
:1042E0000CBC90469946F0BD002400408D5B000058
:1042F000D4150020F02A0100C30702D5014A024B61
:104300001A6270470601010000180040034B0822A2
:104310009A71043A5A71033A1A71704700040040C6
:10432000044BDA69F82149010A40DA6101221A6175
:104330007047C046001000408E22064B1A751900C7
:104340007E3ACB681A42FCD0024A137D80210B438F
:1043500013757047000C004070478023DB059B7885
:104360000322134098420CD08022D205FF23937180
:10437000937803218B430840184390709379002B66
:10438000FCD0704710B5354B0021984207D081030F
:10439000090E032954D004394B425941C9B20122B4
:1043A000C3691A42FCD10322C3691A42FCD10368D3
:1043B0009B074FD40122C3691A42FCD10368012232
:1043C00013430360C3691A42FCD10C008B005918D7
:1043D0008900234B591849680322C3691A42FCD14A
:1043E0000160A3001B199B001D4AD3189B68436002
:1043F000C023DB01194225D0A3001B199B00D11853
:104400008A898389D204D20C5B0B5B0313438381BB
:104410008B7B07221A4083895203DB04DB0C134396
:1044200083810F49A3001A1992008A18D27B8273E4
:104430001B199B00CB181A7C3023C254002010BDDE
:104440000021ACE7A3001B199B00054AD3189B89E8
:104450008381E6E711204042F1E7C04600040043B3
:10446000F82A0100054A0523904204D0BE231B060A
:104470009C466044830A0833D8B270470004004366
:10448000054B984205D08003000E431E98414042E0
:10449000704701204042FBE70004004370B505006F
:1044A0000C000800294B9847C0B20122E3691A4268
:1044B000FCD10322E3691A42FCD123689B0741D453
:1044C0000122E3691A42FCD12368012213432360CD
:1044D000E3691A42FCD143001B18DB001C4AD318C5
:1044E000D96A0322E3691A42FCD1216043001B18F8
:1044F000DB00174AD3181E6B0422E3691A42FCD171
:10450000666043001B18DB00114AD3185B6BE36045
:104510008901890FA98101238B42894149420422E3
:10452000E3691A42FCD1636A0A4A1A408B031343B7
:10453000636243001818C000054B1818438FEB81C5
:10454000002070BD11204042FBE7C04681440000BE
:10455000F82A0100FFBFFFFF10B501600800014B02
:10456000984710BD8543000070B506000C00080098
:10457000104B9847051E01D0280070BDB4610E4B4A
:104580009C4214D020000D4B98470306F4D41F23FF
:1045900018401E3B83400A4A80215350BFF34F8F7F
:1045A000BFF36F8F0131FF3153501360E4E7054BC8
:1045B0001E60E7E7854300000010004265440000EC
:1045C00000E100E0D815002002680321D3691942F8
:1045D000FCD1136802210B431360704782690321E9
:1045E000D3691942FCD1136802210B431360704751
:1045F000036889B219857047836989B21985704744
:104600000368188DC0B270470368187E01231840F4
:1046100070470368187E4007C00F70478369012206
:104620009A757047836902229A75704710B5022304
:104630000C009C430ED18369002A05D101321A7502
:10464000836901321A7510BD01229A75836901329E
:104650009A75F8E7012907D00329F4D18369002A64
:104660000BD080229A75EEE78369002A02D10432CA
:104670001A75E8E704229A75E5E780321A75E2E7D1
:1046800010B50161014B984710BDC0469D44000024
:1046900030B502690321D3691942FCD113680221A4
:1046A0000B4313600A48023103241025D3691942D1
:1046B000FCD1538B1B092340012B07D00138002864
:1046C000F4DCD3691942FCD15583EFE7002030BDFB
:1046D000FFFF0000F0B5D6464F464646C0B584B051
:1046E0000600150004690322E3691A42FCD123681D
:1046F0009B0700D591E0B389002B1AD0012B52D033
:10470000022B00D08CE06900E068474D0540FA209C
:104710008001401A454B98470004FF231B041840B2
:104720002843E060002004B01CBC90469946A24695
:10473000F0BDE768FF3398469F43A800401940004A
:10474000FA239B019A46181A394B994698470090CC
:104750000191F089374B9847374E384A384BB0476C
:104760000290039153466B431800C84702000B00A8
:1047700002980399B04702000B0000980199314E4E
:10478000B047009001916800C84702000B000098F4
:1047900001992D4DA8472D4B984743461840384363
:1047A000E0600020BFE7E768FE3398469F43A8001B
:1047B00040194000FA239B019A46181A1C4B99464F
:1047C000984700900191F0891A4B98471A4E1B4A5E
:1047D0001B4BB0470290039153466B431800C847E8
:1047E00002000B0002980399B04702000B000098EA
:1047F0000199144EB047009001916800C84702002B
:104800000B0000980199104DA847104B984743465C
:1048100018403843E060002085E71120404282E7DD
:104820000D2040427FE7C046FFFF00FF9157000088
:10483000C978000045780000716C000095D626E824
:104840000B2E113E7171000009640000A15B000095
:10485000F0B5DE4657464646C0B582B08B46026983
:104860004388DB0500D518E24B88802149000B43C3
:1048700059464B80030070C970C343889B040BD515
:10488000002301930133FF339A4603250424FF3BA1
:10489000984601339C46CCE101690B684468012CC1
:1048A00054D00424CB691C42FCD14B68BB4C234040
:1048B0004B6003885C0555D54488E40704D54488DB
:1048C0008025ED002C4344805B00B54C1C40042542
:1048D000CB691D42FCD14D6A8023DB012B40802532
:1048E0002D021D4325430424CB691C42FCD14D629B
:1048F0000669337EDBB2AB4C03251D4204D1337E07
:10490000DBB2013C002CF8D10E680425CC692542AD
:10491000FCD14D8BADB2DC0700D498E0AB0737D5A6
:1049200001230B764388802252011343438043883E
:104930009D4A1340438001273B002B405F425F416B
:10494000053F4388984A134043809FE11B01A8D547
:104950000334CB691C42FCD14C688023DB02234327
:104960004B60A6E745885B00FF263340FE3E2E40A5
:104970001E430424CB691C42FCD14D6A8023DB0119
:104980001D4035430424CB691C42FCD14D62AFE786
:104990006B071BD443885B0534D50388DB090624E9
:1049A0001C400425CB691D42FCD14B6A8025ED01DA
:1049B0002B40F1252B432343ED3DCC692542FCD10F
:1049C0004B62438879490B40438059E74368002B89
:1049D00004DD4388802252011343438043881BB285
:1049E000002B08DA0423CA691342FCD14A68C023A9
:1049F0009B0213434B6043886B4A1340438002275A
:104A00007F429EE74368002B12D143881BB2002BE4
:104A100004DB438864490B40438031E70423CC69BD
:104A20002342FCD14C68C0239B0223434B60F0E738
:104A300083681C780423CD692B42FCD12823CC54F5
:104A40008368013383604368013B436018E79B0739
:104A500000D415E74468002C29D06B0727D4330114
:104A6000DB0F013C4460002C00D019E1002B00D189
:104A70001CE143881BB2002B08DA0423CC692342D3
:104A8000FCD14C68C0239B0223434B604388464CB7
:104A90002340438085686B1C83600424CB691C42DF
:104AA000FCD12823CB5C2B7002230B76E8E6022393
:104AB0000B7602277F4244E71768D6693442FCD15F
:104AC000568BB6B24146194200D18AE06346334262
:104AD0001AD01176438880277F013B434380438867
:104AE000314F3B404380434633405E425E41731F3B
:104AF00001939EE00421D3691942FCD15168C0237F
:104B00009B020B435360AAE034421BD143885B05F0
:104B100035D50688F60906273740D3691C42FCD1F3
:104B2000566A8023DB011E40F1231E433E43D369B6
:104B30001C42FCD1566243881C4E33404380002304
:104B4000019376E04368002B04DD438880267601DC
:104B50003343438043881BB2002B07DB4388124E4C
:104B60003340438002235B42019362E0D3691C42DD
:104B7000FCD15668C0239B0233435360EEE7436881
:104B8000002B1ED143881BB2002B11DB4388064E3D
:104B900033404380002301934BE0C046FFFFFBFFFF
:104BA000FE070000FFFF0000FFFEFFFFFFFBFFFF0F
:104BB000D3691C42FCD15668C0239B023343536027
:104BC000E4E783681E78D3691C42FCD12823D654BD
:104BD0008368013383604368013B43600023019392
:104BE00027E0002101916146194222D04368002B41
:104BF00045D0344243D1FF0E41460F40013B436054
:104C0000002B61D1002F63D043881BB2002B2DDB1A
:104C10004388364E334043808668731C8360D36973
:104C20001C42FCD12823D35C3370634613760023E7
:104C3000019343885646334227D007693B7EDBB257
:104C40002B4E1D4200D037E73B7EDBB2013E002EEB
:104C5000F7D15B465B881BB2002B00DA4AE743883A
:104C6000224A1340438005277F420FE0D3691C424C
:104C7000FCD15668C0239B0233435360C8E76346A8
:104C8000137602235B420193D3E7019F380002B001
:104C90001CBC90469A46A346F0BD06277F42F5E726
:104CA000012C00D0F6E6002B00D1F3E60423CC69FA
:104CB0002342FCD14C688023DB0223434B604368D2
:104CC000002B00D1D5E6E5E6012BA5D1002FA3D01E
:104CD000D3691C42FCD153688021C9020B43536045
:104CE0004368002B00D18FE796E7C046FFFEFFFF29
:104CF000FFFF000010B5194B18688469237EDB079D
:104D000002D5A37DDB070FD4237E9B0702D5A37DAD
:104D10009B070ED4237E5B0715D5628B37231A427F
:104D20000CD00833638310BD0123237503689847B3
:104D3000F9E70223237583689847F4E7218DC9B208
:104D400043689847EFE7237EDB09ECD08023237686
:104D5000C3689847638B9BB26383E4E7D815002050
:104D60000369114A9A18920A0E32D0B212060AD476
:104D70001F21014001228A4080210C484250BFF38C
:104D80004F8FBFF36F8F03219A681142FCD11A68CD
:104D900002218A431A6001399A681142FCD11A68CB
:104DA00001210A431A60704700ECFFBD00E100E0FA
:104DB0000269032193681942FCD1136802210B4355
:104DC000136070470269032193681942FCD113688C
:104DD00002218B43136070470369D86E70470269E4
:104DE000032193681942FCD110688007C00F7047F7
:104DF000002908D10369002A02D101325A6204E075
:104E000001229A6201E0012900D070470369002A5B
:104E100002D008229A62F8E708325A62F5E770B5C4
:104E200005000469E36ADB0705D50123E362036833
:104E3000002B00D09847A36A1B0706D50823E3621E
:104E40006B68002B01D02800984770BD084B9C462A
:104E50006044800AC0B2002807D0022802D0012096
:104E600040427047013840B2FBE70020FBE7C046F4
:104E700000ECFFBDF8B506000C005E4BCD18AD0A86
:104E8000EDB25D4B1B78AB4200D177E024235A4A48
:104E9000D35C0127AB4200D171E001277F422000A3
:104EA000564B984734610122A3681A42FCD1032271
:104EB000A3681A42FCD123689B0700D591E0012228
:104EC000A3681A42FCD12368012213432360A3681C
:104ED0001A42FCD13900FB00DF19BF00464BDF1935
:104EE0007F680322A3681A42FCD12760CB005B18BD
:104EF0009A00414B9B181A7A62715A7AA277DB6842
:104F0000236202013E4B9B18DA68A3681B05FCD1A3
:104F1000E26302013A4B9B185A68A3681B05FCD157
:104F200022640201364B9B185B78002B29D1344B4D
:104F300098188268CB00591889002F4B59184A617C
:104F40006264022323712F4B9C4244D02E4B9C421F
:104F500044D00E35EBB22A0649D41F221A40012351
:104F600093402A4A80215350BFF34F8FBFF36F8F76
:104F70000131FF31535013600020F8BD00277FB28C
:104F80008DE7012B0FD0022B19D0032B2CD1000160
:104F90001B4B18188268CB0059188900164B5918FA
:104FA0000A622265CDE70001154B18188268CB0014
:104FB00059188900104B59188A61A264C1E7000191
:104FC0000F4B18188268CB00591889000A4B5918E2
:104FD000CA61E264B5E70E4B1E60BAE70C4B5E6037
:104FE000B7E711204042C8E71C204042C5E7002037
:104FF000C3E7C04600ECFFBD980000204D4E000006
:10500000382B010000140042001C004200E100E0C7
:10501000DC15002070B50E00150004692000054B5A
:105020009847E66603010448C01843781C339B0088
:105030001D5170BD4D4E0000382B010010B50469A4
:105040002000084B9847E16E03010748C0184378D9
:105050001C339B001B59FA2080005843034B984790
:1050600010BDC0464D4E0000382B01009157000086
:10507000014848307047C0469800002010B5024BE8
:105080001868024B984710BDDC1500201F4E000029
:1050900010B5024B5868024B984710BDDC15002034
:1050A0001F4E00000269032113691942FCD11368E5
:1050B00002210B43136070470269032113691942EF
:1050C000FCD1136802218B431360704702690321EE
:1050D00013691942FCD110688007C00F704700297E
:1050E00008D10369002A02D101321A7204E00122B8
:1050F0005A7201E0012900D070470369002A02D0EA
:1051000002225A72F8E702321A72F5E7084B984207
:105110000BD0084B9C466044800A074B1B78C0B2FA
:10512000181A431E9841404270470420F5E7C046D4
:105130000008004300E0FFBD0401002010B5046931
:105140002000134B9847830018188000114B181843
:105150000123C356002B0ADB1F221A400123934070
:1051600080220D498B50BFF34F8FBFF36F8F032207
:1051700023691A42FCD12368022293432360013A37
:1051800023691A42FCD1236801221343236010BD16
:105190000D5100000401002000E100E070B50D0099
:1051A0001400066930000B4B98470B4983001A180E
:1051B00092008A18D560146153680C221340082BA2
:1051C00004D0ADB2B583A4B2F48370BDF56134628E
:1051D000FBE7C0460D5100000401002010B5046932
:1051E0002000084B9847830018188000064B1818B9
:1051F00043680C221340082B02D0A08B80B210BD54
:10520000E069FCE70D5100000401002010B50469BD
:1052100020000C4B98478300181880000A4B181880
:1052200043680C221340082B09D0A18B89B2E38B71
:105230009BB2FA2080005843044B984710BDE169A7
:10524000236AF6E70D510000040100209157000089
:1052500070B505000C0008003F4B98472C610122F7
:1052600023691A42FCD1032223691A42FCD1236824
:105270009B0700D567E0012223691A42FCD123680D
:1052800001221343236023691A42FCD183001B18B7
:105290009B00324AD3185968032223691A42FCD171
:1052A000216083001B189B002C4AD3189A7AE27362
:1052B0001B89E3800323237309330B40082B35D06C
:1052C000002B43D183001B189B00244AD3189A89D2
:1052D000A2831B8AE383224B9C4231D083001B189C
:1052E0009B001E4AD3185B785BB2002B31DB1F2278
:1052F0001A400123934080221A498B50BFF34F8FED
:10530000BFF36F8F830018188000144B1818012307
:10531000C3560020002B08DB613A1A40012393405A
:105320000A00C02149005350136070BD83001B1850
:105330009B000A4AD318DA68E2611B692362CAE754
:10534000094B1D60CAE711204042EEE701204042B0
:10535000EBE70020E9E7C0460D5100000401002002
:105360000020004200E100E0E41500200148143074
:105370007047C0460401002070B50C4B1D682C69B5
:10538000A37ADB0706D50123A3722B68002B01D07B
:1053900028009847637A9B0706D50223A3726B689F
:1053A000002B01D02800984770BDC046E4150020AE
:1053B00010B588B0254B9847254B1B68C01A254B64
:1053C000984201D808B010BD204B9847204B186078
:1053D000802212015A212048204B9847204B186800
:1053E000092204A91F4B9847092814D01E4B80227C
:1053F0009A7000221A805A601A810C221A4901A858
:105400001A4B98470028DDD0174B01221A7301AAC6
:1054100013CA13C3D6E701A904AB187800025A785F
:1054200002430A809A788A70DA78120618790004A2
:105430000243987902435879000202430292DA79D2
:1054400012021B7A13430B81D7E7C046F1310000EB
:10545000E8150020E7030000E41600204D3C0000A2
:10546000041700203D3D00003C0100206182000047
:1054700070B588B01C4B1B7B002B27D01A4B002229
:105480001A739B78012B29D0002B07D0102B1FD02B
:10549000164A06210020164B984704E0154A0621BB
:1054A0000020134B9847104E328813496846134D1D
:1054B000A8476A46022100200D4CA04732891049B6
:1054C0006846A8476A4604210020A04708B070BD7E
:1054D0000C4A06210020064B9847E4E70A4A0621B9
:1054E0000020034B9847DEE73C010020882B010099
:1054F000C10E0000582B0100982B0100298A0000E2
:10550000A42B0100682B0100782B010010B5024884
:10551000024B984710BDC0464C010020010A000014
:1055200010B53323024A03490348044CA04710BD79
:10553000B52B010080280100BC2B0100E583000091
:1055400010B53B23064A07490748084CA047084ABC
:1055500006210020074B98470120074B984710BDB4
:10556000B52B010080280100D42B0100E583000049
:10557000FC2B0100C10E00001932000030B5C3B091
:105580000E4B1C881D890E4B98470E4B9847009078
:1055900001912B0022000C4902A80C4CA04702A844
:1055A0000B4B9847010002A80A4B9847002801D0EE
:1055B00043B030BD02A8084B9847F9E73C010020F2
:1055C0001501000039790000102C0100298A000023
:1055D000F58B0000E5070000A984000010B50B481A
:1055E0000B4B98470B4B98470B4B98470B4B1B6843
:1055F000C31A0B4A934200D810BD084B1860094BE0
:105600009847094B9847094B9847F5E74C0100200C
:105610009D0A000041010000F1310000EC1500205E
:1056200088130000B1530000715400007D55000044
:1056300010B5104B9847104B9847104B9847104B9C
:1056400098471048104B9847104C11492000114BB7
:1056500098472000104B9847802212015A212000C1
:105660000E4B98470E4A002100200E4B98470E4BD8
:105670009847FEE785010000BD090000050800000D
:10568000210100004C010020F90A0000E41600206E
:10569000041700202D3D0000413C00004D3C00005F
:1056A000402C0100C10E00002532000010B50B0097
:1056B000002809D111001800054B9847002800DB8D
:1056C00010BD01204042FBE701204042F8E7C04600
:1056D0002957000010B50B000138022809D8110025
:1056E0001800054B9847002800DB10BD0120404200
:1056F000FBE701204042F8E74D57000070B5060077
:10570000064D2B6898680021054CA0472B68586807
:105710000021A047034B1E6070BDC0466C010020F5
:1057200075880000F015002010B50400054B1868BE
:10573000002804D08AB22100034B984710BD0020F6
:10574000FCE7C046F01500203D3D000010B5040008
:10575000054B1868002804D08AB22100034B9847F3
:1057600010BD0020FCE7C046F0150020353D0000CC
:1057700010B5044C2000044B98472000034B984779
:1057800010BDC0464816002049400000FD560000EC
:10579000002243088B4274D303098B425FD3030A70
:1057A0008B4244D3030B8B4228D3030C8B420DD383
:1057B000FF22090212BA030C8B4202D31212090211
:1057C00065D0030B8B4219D300E0090AC30B8B424F
:1057D00001D3CB03C01A5241830B8B4201D38B03FD
:1057E000C01A5241430B8B4201D34B03C01A5241A2
:1057F000030B8B4201D30B03C01A5241C30A8B42E5
:1058000001D3CB02C01A5241830A8B4201D38B02CF
:10581000C01A5241430A8B4201D34B02C01A524173
:10582000030A8B4201D30B02C01A5241CDD2C309E5
:105830008B4201D3CB01C01A524183098B4201D361
:105840008B01C01A524143098B4201D34B01C01A4C
:10585000524103098B4201D30B01C01A5241C308C4
:105860008B4201D3CB00C01A524183088B4201D333
:105870008B00C01A524143088B4201D34B00C01A1F
:105880005241411A00D20146524110467047FFE78B
:1058900001B5002000F0F0F802BDC0460029F7D0A5
:1058A00076E7704703460B437FD4002243088B42C0
:1058B00074D303098B425FD3030A8B4244D3030B97
:1058C0008B4228D3030C8B420DD3FF22090212BA5C
:1058D000030C8B4202D31212090265D0030B8B42D8
:1058E00019D300E0090AC30B8B4201D3CB03C01AC2
:1058F0005241830B8B4201D38B03C01A5241430B9D
:105900008B4201D34B03C01A5241030B8B4201D38C
:105910000B03C01A5241C30A8B4201D3CB02C01AF7
:105920005241830A8B4201D38B02C01A5241430A6F
:105930008B4201D34B02C01A5241030A8B4201D35E
:105940000B02C01A5241CDD2C3098B4201D3CB0105
:10595000C01A524183098B4201D38B01C01A5241B4
:1059600043098B4201D34B01C01A524103098B42B8
:1059700001D30B01C01A5241C3088B4201D3CB00A3
:10598000C01A524183088B4201D38B00C01A524186
:1059900043088B4201D34B00C01A5241411A00D236
:1059A00001465241104670475DE0CA0F00D049429F
:1059B000031000D34042534000229C4603098B420F
:1059C0002DD3030A8B4212D3FC22890112BA030A97
:1059D0008B420CD3890192118B4208D38901921119
:1059E0008B4204D389013AD0921100E08909C3099E
:1059F0008B4201D3CB01C01A524183098B4201D3A0
:105A00008B01C01A524143098B4201D34B01C01A8A
:105A1000524103098B4201D30B01C01A5241C30802
:105A20008B4201D3CB00C01A524183088B4201D371
:105A30008B00C01A5241D9D243088B4201D34B008C
:105A4000C01A5241411A00D20146634652415B10CE
:105A5000104601D34042002B00D5494270476346AF
:105A60005B1000D3404201B5002000F005F802BDF4
:105A70000029F8D016E770477047C0468446101CCE
:105A800062468C46191C634600E0C0461FB501F013
:105A90008DF8002801D40021C8421FBD10B500F0C8
:105AA000E7FF4042013010BD10B501F07FF800283B
:105AB00001DB002010BD012010BDC04610B501F073
:105AC00075F8002801DD002010BD012010BDC04682
:105AD00010B501F007F8002801DC002010BD0120FE
:105AE00010BDC04610B500F0FDFF002801DA00200F
:105AF00010BD012010BDC046002B11D1002A0FD1CE
:105B0000002900D1002802D00021C943081C07B495
:105B1000024802A14018029003BDC0465DFFFFFF8E
:105B200003B4684601B5029800F058F8019B9E4600
:105B300002B00CBC7047C046F0B5CE4647461504CF
:105B40002D0C2E0080B50704140C3F0C9946030C55
:105B50007E435D43674363437F19340CE4199C46DD
:105B6000A54203D980235B029846C4444B46514367
:105B700043433604360C250C24046544A4195918F3
:105B8000491920000CBC90469946F0BD10B5002381
:105B9000002802D001F0D6FF431C180010BDC046FB
:105BA00070B500220C4B04000D00FFF79BFF00288E
:105BB00004D12000290001F011FE70BD064B002227
:105BC0002000290001F0D4FA01F008FE80231B0612
:105BD0009C466044F1E7C0460000E041F0B55746FE
:105BE0004E464546DE46E0B5040083B00D009246C1
:105BF00099468B422FD82CD04946504601F096FF4B
:105C000029000600200001F091FF331A9846203B3E
:105C10009B4600D574E053465A4693401F005346B6
:105C2000424693401E00AF4229D826D05B46A41BB3
:105C3000BD41002B00DA79E000220023009201939D
:105C400001235A4693400193012342469340009317
:105C500019E08242D0D900220023009201930C9BCC
:105C6000002B01D01C605D600098019903B03CBC22
:105C700090469946A246AB46F0BDA342D6D9002233
:105C80000023009201934346002BE8D0FB077208E3
:105C90001A4346467B080EE0AB4201D1A2420CD823
:105CA000A41A9D41012024196D410021013E2418B0
:105CB0004D41002E06D0AB42EED9013E24196D4174
:105CC000002EF8D15B460098019900196941002B1C
:105CD00022DB2B005A46D3402A004446E2401C00F7
:105CE0005B461500002B2CDB26009E40330026006F
:105CF0004746BE403200801A994100900191AEE7BC
:105D0000424620239B1A5246DA40414613004A4637
:105D10008A4017001F4382E7424620239B1A2A002D
:105D200046469A402300F3401343D5E742462023DA
:105D300000219B1A0022009101920122DA40019277
:105D400082E74246202326009B1ADE402F00B446FD
:105D5000974066463B003343C9E7C04610B5041E72
:105D600027D001F0C5FE9E231B1A962B0ADC962233
:105D7000D21A94406402640ADBB26402DB05600A52
:105D8000184310BD992B17DC9922D21A002A27DD5F
:105D900094402200134C1440510704D00F210A40B4
:105DA000042A00D00434620112D4A401640ADBB2D4
:105DB000E3E700230024E0E7B9222100D21A914052
:105DC0000A00511E8A410521091ACC401443DBE721
:105DD000044B1C409F23A4011B1A640ADBB2CCE7CE
:105DE0002200D7E7FFFFFFFBF8B54546DE465746E2
:105DF0004E460C03E0B54E00C90F88460D00610AFF
:105E0000440F0C43C70019035800DB0F9B464B0A95
:105E1000510F0B43760D400D1900D200D84500D12B
:105E2000AEE0351A002D00DCF6E000280FD1134358
:105E300000D1DBE06B1E002B00D037E1BA1A97428D
:105E4000BF41641A7F42E41B0126170024E0C64BC1
:105E50009E424DD080231B041943382D00DD07E1FD
:105E60001F2D00DD38E12020431B9A460B005046D1
:105E70008340994613004846EB40184303005046C0
:105E80008240501E8241E9401A43BA1A611A974271
:105E9000A441170064420C1B230262D56402650A08
:105EA000002D00D1DFE0280001F022FE0300083BB6
:105EB0001F2B00DDD2E020223C00D21A9D40D440AE
:105EC0009F4025439E4200DDC4E09E1B731C1F2B98
:105ED00000DDF1E0202238002900D21AD84091409C
:105EE00097402C000143781E8741DC4000260F4379
:105EF0007B0709D00F233B40042B05D03B1DBB4241
:105F0000BF417F42E4191F0023022CD5964B013676
:105F10009E4200D19AE04546944BFF081C40600722
:105F2000760564020743240B760D00212403230B1E
:105F30000C0D8F4A24051C431440330523435B009A
:105F4000ED075B082B43380019003CBC904699468E
:105F5000A246AB46F8BD6446044300D111E20400FA
:105F600067467B07C6D145466007FF080743E4083C
:105F70007D4B9E4230D024037605240B760DD4E76A
:105F8000331A9A46002B78DD002831D076488642B5
:105F9000AED08020000401435346382B00DCE9E0FA
:105FA0000A43511E8A410021D219BA42BF41091940
:105FB0007C4217000C192302D3D56B4B01369E424D
:105FC00000D13AE10120694B1C407B0807401F4388
:105FD000E007074364088BE723003B4300D1CBE194
:105FE0008022120314432403240B9EE72E007FE734
:105FF0000800104300D1B4E0581E002800D0DEE0B5
:10600000BA18BA429B4164185B42E4181700012693
:106010002302A6D50226D5E7002D6ED1701C4005BF
:10602000400D012800DCF9E0B81A8446874280411F
:10603000E51A40422D1A280200D489E0D71BBA4243
:1060400092411C1B5242A51AD84629E74546002416
:1060500000276AE7454CF61A2C4049E73D002838EE
:10606000854000272EE7380001F042FD20301DE773
:106070000A43511E8A41002107E7002B00D0F3E0BC
:10608000701C43055B0D012B00DCADE0364B9842E4
:1060900000D1D1E0BA18BA42BF4164187F42E41976
:1060A000E707520817436408060021E72E48854297
:1060B00000D193E01D00D0E629001F3EF140202BC7
:1060C00000D18DE04022D31A9D402F437D1EAF4169
:1060D00000240F43002644E72B000800203BD84053
:1060E0000300202D00D17DE04020451BA9400A433C
:1060F000511E8A4100211A43C7E6002E50D01A4E85
:10610000B04257D080266B429946360434434B4602
:10611000382B00DDD6E01F2B00DD35E12026F51AF7
:106120002600AE40B2463E00DE40AC463500564644
:106130002E436546AF407D1EAF41DC403743D71B41
:10614000BA4292410C1B5242A41A0600D846A3E65A
:10615000644667462C4300D0A2E6002500260027AF
:1061600006E71E00C4E6C046FF070000FFFF7FFFF2
:10617000FFFF0F801F2B63DC2020C31A080098400C
:106180009C46834653461000D840030058461843A7
:1061900063469A40531E9A4153460243D94003E74F
:1061A00026003E4306D0EB439946002BC7D0944EC1
:1061B000B042ACD10C0017000600D84698E6904BD0
:1061C0009A450BD08246E7E6002800D09EE01800F2
:1061D000104300D1E9E01C001700D846884E87E63E
:1061E000002572E7002182E723003B43002E00D008
:1061F000ABE0002B00D1E7E00B00134300D177E6C2
:10620000BA18BA42BF4164187F42E419230200D48D
:10621000F2E07C4B17001C40060069E62000384382
:10622000002ED1D100285BD11C00144300D1A8E07E
:106230001C001700D8465BE606000024002797E6FE
:1062400050460B002038C34099465346202B00D1BE
:1062500095E0402350461B1A99400A43511E8A413B
:106260004B4600211A439FE6002E30D126003E43C4
:1062700067D0DB439A46002B1CD0614EB04260D001
:106280005346382B00DD96E01F2B00DD9FE02026D3
:10629000F31A26009E409C46B34653463E00DE401D
:1062A00033005E461E4363469F407B1E9F4153461C
:1062B000DC403743BF189742924164185242A418F9
:1062C000060078E627437C1EA741002437E74C4EA2
:1062D000B04236D080265B4236049A463443CFE73C
:1062E0001800104300D103E6B81A84466745AD4153
:1062F000E01A6D42401B050200D42CE6D71BBA42BF
:1063000092411C1B5242A41AD846F1E518001043D2
:1063100000D163E7F808670707438020E40800031B
:10632000044208D0DD08054205D1D20859071143BF
:106330000F002C00D8467B0FE4001C43FF00304EBA
:10634000D6E50C0017000600D2E5002B38D00B0074
:10635000134300D142E7F808670707438020E408A9
:1063600000030442E7D0CB080342E4D1D208490736
:1063700011430F001C00DEE700270024D5E50021B3
:106380006BE700250027F3E54E462500203EF5404B
:106390004B462E00202B2DD04025ED1AAC40274334
:1063A0007C1EA74100243743C9E68024002524032E
:1063B000134E0027DCE527437C1EA741002479E724
:1063C0000C0017000E4E93E50C00170090E55646A2
:1063D0002300203EF34099465346202B0ED0402305
:1063E00056469B1B9C4027437C1EA7414B460024DE
:1063F0001F435FE70024D2E71700B2E50024F2E76D
:10640000FF070000FFFF7FFFF0B557464546DE4619
:106410004E46E0B54C000E0387B0834692461D0001
:106420008046360B640DCF0F002C4FD06F4B9C4233
:1064300035D08023420F1B04F600134333439946A3
:10644000C30098466A4B00269C460023644403938D
:106450002B031B0B9B466B00ED0F50465B0D01950C
:106460005ED0624A934253D05A46D1008022400FF8
:10647000120402430A4393465246D1005C4A9446B2
:10648000002263443800684084460290E41A1643B0
:106490000F2E00D9B4E0574BB6009B599F4603001E
:1064A000334399466CD10023984602330826039360
:1064B000CEE7CB464146039A0197022A65D1019B5C
:1064C0004A4C9C460023002298466BE0030033436D
:1064D00099464ED0002E00D1BCE1300001F008FBFF
:1064E00003000B3B1C2B00DDACE11D22D31A5A46E6
:1064F0000100DA4008398E401300334399465B4669
:106500008B40984600233C4C0026241A03939FE7B7
:1065100051465A46114329D1002293460232B1E72F
:10652000594601431ED05B46002B00D19EE15846E0
:1065300001F0DEFA03000B3B1C2B00DD8FE10200B3
:106540005946083A91408B461D21CB1A5146D940F5
:106550000B0059460B4351469B469140264B002267
:106560001B1A8FE7002301229B468BE7514603222B
:1065700088E700239846013304260024039367E745
:106580000323B14603930C2662E7032A00D15CE2A1
:10659000019B012A00D0E4E113409C460023002423
:1065A0000022984600211203130B0A0D12051A430C
:1065B0002305124C40462240134362465B00D2073B
:1065C0005B081343190007B03CBC90469946A246AD
:1065D000AB46F0BD002380229C4612039846034C34
:1065E000E0E70023014C00229846DBE7FF070000AC
:1065F00001FCFFFFE82C01000DFCFFFFFFFF0F80F7
:10660000D94500D939E100D134E1002346464D4651
:106610009A46013C5B460A0E1B021A430B02170CFA
:10662000039313041B0C3900280090460193FFF7D5
:10663000AFF80200019B83465A4328003900914677
:10664000FFF72CF9350C09040D43A9450DD95B461C
:106650004544013BA84500D93AE1A94500D837E1B6
:1066600002235B429C464544E3444B46EB1A390007
:1066700018000493FFF78CF8019B05004343390091
:1066800004989946FFF70AF9330409041B0C0B43DD
:10669000994509D943446A1E984500D91AE199459C
:1066A00000D817E1023D43444A469B1A5A46120459
:1066B0002A4303999346100C0A0C914609045A4642
:1066C000090C4E460D001204120C4543059151432E
:1066D0007243704352190E0CB218954203D98025AB
:1066E0006D02AC466044150C09041204090C28180C
:1066F0005218834200D2CEE000D1C8E01D1A5346A2
:106700009E1AB24592415242AB1A9A46984500D120
:1067100017E139001800FFF73BF8019B05004343E0
:10672000390050460493FFF7B9F804980B04310C74
:106730001943884209D941446B1E884500D907E1B5
:10674000884200D804E1023D4144049BCB1A180062
:1067500039000493FFF71CF8019B8246434339003C
:1067600004980193FFF79AF801980B043104090C7F
:10677000194388420DD953464144013B884500D90D
:10678000E8E0884200D8E5E002235B429C464144B1
:10679000E244019B2D04CE1A51462943059D4F46E4
:1067A0002A000B04080C1B0C5A4345437B437843D7
:1067B0005B19170CFB189D4203D980256D02AC466E
:1067C00060441D0C12041B04120C28189B188642EE
:1067D00000D293E000D18EE001231943A04BE318CF
:1067E000002B00DC99E04A0700D09EE05A46D20117
:1067F00006D55A469B4B1A4080239346DB00E3188C
:10680000994A934268DD0123029A984C1A4000236A
:10681000944698460022C5E680224B461203134256
:106820000AD05B46134206D11A431203120BAC4640
:1068300088468E4CB6E64B461A431203120BBC46F2
:106840008A4CAFE603005A46283B9A400023914603
:10685000984657E6584601F04BF9203040E60300D1
:106860005246283B9A400021934677E601F040F9D2
:1068700020305FE6884500D2C7E64B46DE075D085C
:1068800043465B081E434346DB079A46C2E60025A3
:10689000924500D333E7039E5946B446E244B245DD
:1068A000AD416D424544EB180139984507D29842F5
:1068B00000D97FE000D1BCE01D1A8B461FE7984548
:1068C000FAD1039D5545F2D943468B461D1A16E76A
:1068D0009B46CAE61500E7E65A46C90852070A432E
:1068E0005B0590465C0D5A460123029952021940FD
:1068F000120B8C4656E6002B00D16FE746444A1E29
:10690000B04529D91100864200D065E7039A934229
:1069100000D061E762E7012149420120C21A382A0A
:1069200021DD029B03409C4638E60F220A40042AE0
:1069300000D15BE70A00111D9142924152429344FB
:1069400054E7474BE318002BE5DD01225242F2E702
:106950001D00FAE69A461CE7B04239D86ED0110005
:106960003AE702933AE71F2A3CDC20239B1A0C00EB
:106970005846994098404B1E99415B46D440D340BD
:10698000204308431A00430709D00F230340042B78
:1069900005D00100081D88429B415B42D2181302BA
:1069A0003AD50123029A01241A40002394469846BE
:1069B0000022F7E5022149428C46039DE344AC46A0
:1069C000E244AA45AD416D424544ED182D1A96E6C4
:1069D0008A1E03994D008D428941494241447618EF
:1069E00003958FE71F204042C31A5846D840030042
:1069F000202A28D040205D46821A954029434A1E0D
:106A000091411943072300220B4009D00F23002294
:106A10000B400800042BBDD1010053075202120B9A
:106A2000C9081943012388460299002419408C465D
:106A3000B8E55245BED88B46002560E6039D9D42D1
:106A4000C6D3110062E70025D8E780225B46120317
:106A50001A43019B1203120B9C468846034CA1E586
:106A6000FF030000FFFFFFFEFE070000FF0700001E
:106A7000F0B54F464646D6465C00C0B51F03DB0F57
:106A80009A46174B0E034D0084468046360B6D0D1B
:106A9000C90F91463F0B640D01209D4208D09C42D6
:106AA00001D0A5420BD01CBC90469946A246F0BD31
:106AB00063463343F7D1AC42F5D13A43F3D10120D9
:106AC000BE42F0D1C845EED1514507D0002DEAD1E4
:106AD00063461E433000461EB041E4E70020E2E773
:106AE000FF070000F0B54546DE4657464E46E0B586
:106AF0001F033D0B2C4F0E034C00AB465D0084463C
:106B0000360B640DC90F90466D0DDB0FBC422AD0C9
:106B1000254FBD422DD0002C0FD1304307008146B8
:106B200078427841C0B2002D17D15F463A4314D164
:106B30004B460020002B0AD006E0002D02D158461B
:106B4000024301D0994218D04842012108433CBC7D
:106B500090469946A246AB46F0BD0028F2D00120EF
:106B6000013B1843F3E737000743D1D002204042EE
:106B7000EDE75F461743CED0F8E7AC42E4DC03DA3A
:106B8000481E01210843E2E75E45DDD806D000201B
:106B90005E45DCD20123481E1843D8E7C445D3D84C
:106BA0000020C445F6D3D2E7FF070000F0B54E46FB
:106BB0004546DE4657465C00E0B51F03DB0F9946AD
:106BC0002A4B0E034D00C90F8446360B6D0D8B46C4
:106BD00090463F0B640D9D4220D0244B9C4222D016
:106BE000002D12D1304343424341DBB2002C1FD071
:106BF000002B0CD04B460120013B034318003CBC4A
:106C000090469946A246AB46F0BD002C16D0CB4527
:106C100017D05B46594201230B43EFE731000223B3
:106C20000143EBD1D9E7390002231143E6D1D7E77D
:106C30003A43DDD100230028E0D0EAE73A43E6D129
:106C4000E7E7A542E5DC05DBBE42E2D807D000233A
:106C5000BE42D3D25946012301390B43CEE7C44586
:106C6000D7D80023C445F5D3C8E7C046FF070000C6
:106C7000F0B557464546DE464E46E0B50C0398460D
:106C80004E00230B87B0070092469B46760DCD0F32
:106C9000002E6BD06D4B9E4235D080245B46420F58
:106CA0002404DB0014431C43C3009946684BA346ED
:106CB0009C46002300276644029343461C035A0067
:106CC000DB0F5046240B520D984600D176E05F4B07
:106CD0009A426DD08023410F1B040B435C49E400B2
:106CE0008C461C43C300002062444146B6186940EC
:106CF000721C0191944607430F2F00D9B0E0554A0A
:106D0000BF00D25997465B460343994600D087E0BF
:106D100000239B46023308270293CEE742460192A6
:106D2000022867D0032800D10EE2012800D062E1DA
:106D3000002300240022994601990140CDB2002190
:106D400012030B0D120B1B051343434A240513407A
:106D50001C436400ED0764082C434846210007B03B
:106D60003CBC90469946A246AB46F0BD03439946CB
:106D70004FD05B46002B00D189E1584600F0B8FEA9
:106D800003000B3B1C2B00DD7AE11D22D31A3A00D5
:106D900001005C46DA4008398C4013008F402343E1
:106DA0009B46B94600232D4E0027361A029384E7EE
:106DB000534623432AD10024022096E75346234317
:106DC00020D0002C00D157E1200000F091FE0300FC
:106DD0000B3B1C2B00DD49E11D21CB1A5146020063
:106DE000D9405346083A944093400C431B4A121A28
:106DF00000207AE70125019B144C1D40002300224E
:106E000099469CE70024002201206EE753460320A8
:106E10006BE700239B4601330427002602934CE7CF
:106E2000032381460C27029347E780220023002595
:106E300012039946054C82E75C464B4602986FE781
:106E40005C464B46019502986AE7C046FF07000082
:106E500001FCFFFF282D0100FFFF0F800DFCFFFF4D
:106E60004A464946170C1A0C1B041B0C080419004F
:106E7000000C41431500884619007D437943039572
:106E800089462900150045434D44029545462D0C81
:106E9000AA46029D5544A94506D98A468021490241
:106EA0008946CA4451460391290C0491414609047C
:106EB0002D04090C88462900250C24044144240C87
:106EC0000591210041438846210079438A46684361
:106ED000414650448146080C48446F43824503D9DB
:106EE0008021490289464F44010C894639004944B2
:106EF000029141460F0404993F0C88460004C019D2
:106F000080444146049159460F0C0904090C8846F7
:106F100059438A4639005143894641464A435146BE
:106F2000090C8B467B43D2185A44934203D98023E1
:106F30005B029B46D94451460904090C8A464146E6
:106F400061437C43130C12044B445244A1468A46CD
:106F50003C0041466C434D4351464D440F0C7D1956
:106F6000A94503D98021490288464444049F0399D6
:106F7000B84641448B46834580414142884651464C
:106F800008042F04000C3F1858460299101889462F
:106F9000904292414F44BA46524299469346C24467
:106FA000D144CB448F42BF41C245894199459B4161
:106FB000934592417F4249422D0C52420F435B421E
:106FC00013437F19FF185B463C19DB0D059A6402D9
:106FD0001C43430213435D1EAB415A46C00D03439D
:106FE00052021343E20156D501205A0803401343CD
:106FF000E207134364085A48604400284DDD5A07ED
:1070000009D00F221A40042A05D01A1D9A429B412A
:107010005B42E4181300E20104D58020514AC0000D
:1070200014406044504A904200DDE3E60125DB084D
:1070300062071A436402019B9146220B4405640DCA
:107040001D407CE6802259461203114208D01442AA
:1070500006D122431203120B45469946434C6EE675
:107060005B461A431203120B404C68E60300544679
:10707000283B9C400023B9E600F03AFD2030A6E60C
:107080000300283B9F400023BB4699468AE600F058
:107090002FFD203074E6B446ADE701252A1A382AC0
:1070A00006DD019B00241D4000230022994646E690
:1070B0001F2A21DC20252000AD1A1E00AB40A8406D
:1070C000D6405D1EAB4130431843D440430709D03E
:1070D0000F230340042B05D00300181D98429B4149
:1070E0005B42E418230221D50125019B01241D40A8
:1070F00000230022994622E61F2521006D42281A0E
:10710000C1400800202A1DD05F35AA1A94402343AD
:107110005C1EA341072503431D400022002D09D01A
:107120000F2200241A401800042AD6D10300650754
:107130006402220BDB082B4301259946019B0024A6
:107140001D40FCE50024E2E78022012512032243D2
:1071500001991203120B0D409946044CEFE5C0460D
:10716000FF030000FFFFFFFEFE070000FF07000017
:10717000F0B54646D6464F460C03C0B5CD0F4E007F
:10718000610A440F0C43C1005800400D84468A46F2
:107190000F001903500F490A0143C648760DA8464F
:1071A000DB0FD200844500D1D8E001204340AB4240
:1071B00000D1A6E06046351A002D00DC05E100286C
:1071C00010D10B00134300D1D7E06B1E002B00D071
:1071D0004BE153469F1ABA458041641A4042241A33
:1071E00001261EE0B34B9E4248D080231B04194366
:1071F000382D00DD19E11F2D00DD4CE120230F00AB
:107200005B1B10009A409F40E840531E9A41E940A2
:10721000074317435346DF1B611ABA45A441644232
:107220000C1B230200D4C5E06402650A002D00D1C6
:10723000F6E0280000F05CFC0300083B1F2B00DD9B
:10724000E9E020223C00D21A9D40D4409F402543D3
:107250009E4200DDDBE09E1B731C1F2B00DD0AE15C
:1072600020223800D21A290097402C009140D840A3
:107270007A1E9741DC40002601430F437B0709D06B
:107280000F233B40042B05D03B1DBB42BF417F4237
:10729000E4191F00230225D5864B01369E4200D1FA
:1072A000AFE0854B01251C4043466207FF0864029E
:1072B00076051743240B760D1D4000212403230B74
:1072C0000C0D7E4A24051C431440330523435B0008
:1072D000ED075B082B43380019001CBC904699460B
:1072E000A246F0BD012543466207FF081743E408A4
:1072F0001D40704B9E4236D024037605240B760D3C
:10730000DBE76346F31A002B00DC94E060460028BC
:1073100035D068488642B1D080273F043943382BA6
:1073200000DCFDE00A43170000217A1E9741574414
:1073300057458041091944420C1923023AD55D4B47
:1073400001369E4200D14BE101225B4B1C407B0881
:1073500017401F43E207174364088FE708001043F4
:1073600000D024E721E723003B4300D1B9E180228C
:10737000120314432403240B9FE72E007EE708002A
:10738000104300D1CAE0581E8446002800D0E7E030
:107390005244524580416418404224181700012687
:1073A000230207D50226CFE764462C4300D1B3E180
:1073B0002C0067467B0700D062E76307FF081F4386
:1073C00001254346E4081D4093E7002D78D1751C44
:1073D0006D056D0D012D00DCF2E05046801A8245EE
:1073E000BF41651A7F42ED1B8446280200D48CE021
:1073F0005046171ABA4292410C1B5542651B9846DB
:1074000014E70125434600241D40002755E72A4C78
:10741000F61A2C4032E73D0028388540002717E750
:10742000380000F065FB203006E70A431700002112
:107430007A1E9741EEE6002B00D0E5E0731C9C46D7
:107440005B055B0D012B00DC9FE01A4B9C4500D1D6
:10745000C5E0524452458041641840422418E70771
:10746000520817436408664608E71248854200D16F
:1074700085E01D00BCE629001F3EF140202B00D115
:107480007FE04022D31A9D402F437D1EAF41002450
:107490000F4300268EE72B000F00203BDF40202DFE
:1074A00071D040235D1BA9400A43511E8A4100212F
:1074B0001743AFE6FF070000FFFF7FFFFFFF0F80CE
:1074C000002E3ED0B34EB44545D0802636046D42E2
:1074D0003443382D00DDA8E01F2D00DD1FE12026FC
:1074E00027005046761BB740E84007435046B0405F
:1074F000461EB041EC403843171ABA4292410C1B69
:107500005242A41A664698468BE6644667462C4368
:1075100000D08BE6002500260027EAE61E00ADE637
:107520001F2B60DC2027F81A0F00844687401000CC
:10753000D840074360468240501E8241D9401743DD
:10754000F5E626005046064305D0ED43002DD3D086
:10755000904EB445BDD10C001700664698468DE6A6
:107560008C4883420BD06346D9E6002D00D096E0CC
:107570000800104300D1E2E00C0017009846854E49
:107580007CE6002580E700218EE723005046034378
:10759000002E00D0A8E0002B00D1DEE00B0013434A
:1075A00000D16BE652445245804164184042241891
:1075B0001700230200D4FDE6774B66461C405DE6CB
:1075C000250050460543002ECFD1002D4FD10C0091
:1075D000144300D1A0E00C00170098464EE6664622
:1075E0000024002785E61F000800203FF840070020
:1075F000202B00D18EE04020C31A99400A43511E2F
:107600008A410021174392E6002E14D126005046ED
:10761000064362D0DB43002B5CD18718974292412E
:1076200064185242A418664687E650462043441E1A
:10763000A041002460E7574EB4454ED08026360462
:107640005B423443382B00DD7FE01F2B00DD8BE0F5
:10765000202627005046F61AB740D8400743504628
:10766000B040461EB0410743DC40BF18D6E70D00CE
:10767000154300D102E65046801A8245BF41651A83
:107680007F42ED1B8446280200D48DE65046171A2F
:10769000BA4292410C1B5242A41A9846EEE50D00E4
:1076A000154300D16BE750466707C00807438020A9
:1076B000E4080003044207D0CD08054204D12C00A1
:1076C0009846D70849070F437B0FE4001C43FF008F
:1076D000304ED3E52F4EB445B4D10C0017006646AA
:1076E000CCE500270024E8E5002B39D00B0013433C
:1076F00000D144E7C008670707438020E40800037F
:107700000442E1D0CB080342DED1D70849070F433A
:107710001C00D9E7002171E700250027E9E52E00CC
:107720002700203EF740202D2FD04026751BAC406F
:1077300050462043441EA04100243843DCE6802408
:1077400000252403134E0027D3E5504620430700AD
:10775000781E87410024BF1860E70C0017008DE5F4
:107760000C0017000B4E89E51E002700203EF74055
:10777000202B0CD04026F31A9C4050462043441E38
:10778000A04107430024BF1848E70024D0E70024A5
:10779000F3E7C046FF070000FFFF7FFF70B50E4E06
:1077A0000D031C0349005B002D0B490D240B5B0DE1
:1077B000B14204D0084900208B4208D070BD054377
:1077C0000120002DFAD1044900208B42F6D1144348
:1077D0002000441EA041F1E7FF07000030B5134D23
:1077E0000A034B00120B5B0DC90F0024AB4210DDE6
:1077F0000F4CA3420FDC80240E4D64032243ED1A8C
:107800001F2D0BDD0C48C31ADA405442002900D169
:107810001400200030BD094BCC18FAE7084CE840B2
:10782000A44663449A400243EFE7C046FE030000CB
:107830001D0400003304000013040000FFFFFF7F5D
:10784000EDFBFFFF70B5002830D0C317C4185C40B3
:10785000C50F200000F04CF9174B184A1B1AD21A1A
:107860001F2A18DD164AD21A9440002224035B0511
:10787000240B5B0D0021100024030A0D240B1205BC
:107880002243104C1B05224013435B00ED075B08AD
:107890002B43190070BD210091400A000B21081AEA
:1078A000C4405B052403240B5B0DE3E700250023A4
:1078B00000240022DEE7C0461E040000330400005E
:1078C00013040000FFFF0F8010B5041E28D000F045
:1078D0000FF9154B154A1B1AD21A1F2A15DD144A27
:1078E000D21A9440002224035B05240B5B0D002177
:1078F000100024030A0D240B120522430D4C1B0516
:10790000224013435B00590810BD210091400A003A
:107910000B21081AC4405B052403240B5B0DE6E72A
:10792000002300240022E2E71E04000033040000CC
:1079300013040000FFFF0F804100090E4B1C70B5BF
:10794000DBB24602750AC40F012B14DDE0239B0055
:107950006D07360BCB1800210A0D280012051C4DAF
:1079600032435B052A405B0813435B00E4075B0876
:107970002343190070BD002914D1002D1ED028000A
:1079800000F0B6F80A281CDC0B232A001B1ADA4088
:10799000030015339D400F4B12031B1A5B05160B9A
:1079A0005B0DD8E7002D06D0320B802636036D071D
:1079B0001643094BCFE7084B0026CCE700230026EF
:1079C000C9E703002A000B3B9A400025E3E7C046C5
:1079D000FFFF0F8089030000FF070000F0B54C0097
:1079E000640D0B03621C450F5B0A52052B43C90F44
:1079F000C500520D012A28DD3A4AA618FE2E1BDCCE
:107A0000002E3EDD80010200501E82416D0F2A4390
:107A1000DB0013435A0704D00F221A40042A00D077
:107A200004338022D2041A405AD00136FF2E03D0EC
:107A30009B015B0AF4B201E0FF2400235802E40535
:107A4000400AC90720430843F0BD002C07D01D435E
:107A5000F2D08020DB0080040343FF26DAE72B43CB
:107A600003D00523DB08FF2C03D05B025B0AE4B2E2
:107A7000E4E7002B32D08020C00303435B025B0AA3
:107A8000DCE73200173214DB80221E271204134376
:107A9000BF1B1F2F0FDC144A944664442A00A540E4
:107AA0002E00A340751EAE41FA4033431343002617
:107AB000B0E70024D5E702225242961B1A00F2409A
:107AC000202F09D0094884466444A3402B435D1EFF
:107AD000AB41002613439DE70023F7E70023ADE702
:107AE0003400BFE780FCFFFF82FCFFFFA2FCFFFF2A
:107AF0001C2101231B04984201D3000C10391B0ADE
:107B0000984201D3000A08391B09984201D30009A1
:107B1000043902A2105C40187047C04604030202F8
:107B200001010101000000000000000010B5002963
:107B300003D1FFF7DDFF203002E0081CFFF7D8FF7C
:107B400010BDC046414208401C2101231B0498423D
:107B500001D3000C10391B0A984201D3000A0839DE
:107B60001B09984201D30009043902A2105C401A93
:107B70007047C0461B1C1D1D1E1E1E1E1F1F1F1FE3
:107B80001F1F1F1F10B5514300F0A0F8041E1CD08A
:107B90000300083B5A6803239A43043A242A16D860
:107BA0000300132A0DD900210833016041601B2A0C
:107BB00007D98160C160242A0DD103000161183307
:107BC000416100221A605A609A60200010BD0021B5
:107BD00000F0AEFBF9E703001033F2E770B50D4E8D
:107BE0000D4D0024AD1BAD1005D0A300F35801349A
:107BF0009847A542F9D10BF0C9FE084E084D002464
:107C0000AD1BAD1005D0A300F35801349847A54231
:107C1000F9D170BD983901009839010098390100F7
:107C2000A0390100054B1B685B6B002B03D094222D
:107C30005200985C7047024BF9E7C0466C01002087
:107C400098050020EC23C0587047C046044B1B68C1
:107C50005B6B002B02D0EC2298587047014BFAE77F
:107C60006C01002098050020F0307047044B1B6821
:107C7000586B002801D0F03070470248FBE7C0463F
:107C80006C01002098050020044B1B68586B0028ED
:107C900001D0F03070470248FBE7C0466C0100207D
:107CA0009805002010B5034B0100186800F00EF88D
:107CB00010BDC0466C01002010B5034B01001868D0
:107CC00007F048FA10BDC0466C010020F0B55746D9
:107CD0004546DE464E46E0B50D000B3583B0070045
:107CE000162D00D89FE007239D4300D5C4E0A9428C
:107CF00000D9C1E000F066FBF823FF339D4200D8B5
:107D00008FE2680A00D1BBE0042800D962E1382381
:107D10009846A80980443930C100D24E71180839FC
:107D2000CC68A14219D0032362689A431300521B06
:107D30000F2A00DDAAE0002A00DB88E003239C462E
:107D400008E06246636893435A1B0F2A00DD9DE0FA
:107D5000002A7CDAE468A142F3D1320034690832A7
:107D6000944200D190E10323616899438946491BFD
:107D70000F2900DD62E172613261002900DB87E0DA
:107D8000B94A4B46914500D930E1DB08FF3A9910DA
:107D9000FF3A8A40DB0071689B190A439968726058
:107DA000E360A1609C601300CC60012182109140CF
:107DB00099426FD80B4205D1032290434900043009
:107DC0000B42FBD003239846C3009946B144CC46EE
:107DD00082466346DC68A44507D157E1002A00DBF0
:107DE00066E1E468A44500D150E1424663689343EC
:107DF0005A1B0F2AF2DD0120804661190543656098
:107E0000A068E5680836C560A8604046F160B160CA
:107E100010434860CE608E603800E25000F0DAFA1D
:107E20002000083021E0102926D8380000F0CAFAD6
:107E30001025182302208B4EF3181A005C68083AAC
:107E4000944200D12EE1032362689A431300E26852
:107E5000A168CA6091600122E318596838000A439A
:107E60005A6000F0B7FA2000083003B03CBC9046DE
:107E70009946A246AB46F0BD0C2300203B60F4E7D8
:107E800080213F2340208900984646E7404664E72A
:107E90004B46E0E70323B46862689A439046AA42DF
:107EA00003D3531B0F2B00DD86E0230043446F4AAE
:107EB00001936F4B93461B681268EB18013200D197
:107EC00068E16C4A944663441B0B1B0300930099C2
:107ED000380000F0BDFC03008146013361D0019BF6
:107EE000834200D9FFE0644B009A9A461B689C4687
:107EF000534662441A60019B1100834200D155E150
:107F00005B461B68013300D16CE14B46019A9B1A1A
:107F100059185346196007234A46134000D124E1FB
:107F2000082189465549D21A9144CB1A009A380043
:107F30004A441105090D5B1A19009B4600F088FCA4
:107F4000431C00D142E14B46C01A01235844184358
:107F500053461B685B441900534619604B46B36097
:107F60005860B44213D043460F2B00D8E8E0434694
:107F7000072260680C3B9343063A024005201A43EF
:107F80006260E218506090600F2B00D922E13C4BF8
:107F90001A68914200D919603A4B1A68914200D987
:107FA00019600323B46862689A43531B954200D951
:107FB000C9E00F2B00DCC6E0012229001343114366
:107FC000651961603800B5606B6000F003FA20004D
:107FD00008304AE714287AD9542800D9BAE06E2329
:107FE0009846280B80446F30C10096E65A0A042A4E
:107FF00073D9142A00D9D0E011005C325B31D20071
:1080000008235B429C46B218944463469A68032353
:108010009846944500D1ABE0434651689943894561
:1080200000D395E092689445F6D16346DA687368A8
:108030006146E260A1609460CC60B6E601236019FD
:108040001D43656070613061C26082601A004B46FA
:108050000A4342603800E15000F0BCF920000830CB
:1080600003E7C04604070020FF0100000C0B0020BE
:10807000241600200F100000F41500200810000046
:108080001C1600202016002073688EE608239B46ED
:10809000073BDC449B46DA4443465246134200D039
:1080A00097E637E0DC680230A34200D155E6CAE625
:1080B0000122E318596838000A435A60E368A2684D
:1080C000D3609A6000F086F920000830CDE65B238B
:1080D000984680445C30C1001FE69A09110039328D
:1080E0003831D2008CE7B44200D05AE74F4B009AA7
:1080F0009A461B689C465346624411001A60FFE68C
:1081000008235B429C46E1444B469B6801389945F5
:1081100000D084E043460342F2D173688B4373601E
:108120004900994200D9B5E6002900D1B2E650468F
:108130000B4200D048E6490004300B42FBD043E636
:1081400001234A465360380000F044F900208CE6D1
:1081500094466AE7AA235B00984211D8DD3B984613
:10816000E80B80447830C100D7E580235B01DDE671
:108170008910023B8B40726813437360624657E775
:108180002B4B98421CD87C239846A80C80447D3009
:10819000C100C2E51033009399E6542A26D84B4615
:1081A0001A0B11006F326E31D20029E71B0500D087
:1081B000A6E60120009BB268434403435360E6E611
:1081C000FE217E237F2089009846A6E5002301201A
:1081D0009B46BDE621003800083106F0BBFF534640
:1081E0001968D4E65B464A461A6094E6AA2149001B
:1081F0008A4206D84B46DA0B110078327731D2002A
:10820000FEE60B498A4206D84B469A0C11007D3295
:108210007C31D200F4E6FE227E219200F0E6736803
:108220007EE72B00E808083305E6C046F415002079
:108230005405000082B000290AD0002A0BD0002B80
:108240000BD013780B601078431E984102B0704732
:1082500001A9002AF3D10020F8E702204042F5E707
:1082600010B5032A1CD903000B439B070FD00378DA
:108270000C788218A34204D015E003780C78A3424E
:1082800011D1013001318242F7D1002010BD0368C5
:108290000C68A342EBD1043A04300431032AF6D827
:1082A000002AE4D1F1E7181BF0E7C046F0B505005D
:1082B0000F2A2FD90B0003439B0734D116000C0063
:1082C0000300103E350901352D01451927681F604F
:1082D00067685F60A7689F60E7681034DF601033ED
:1082E0009D42F3D10F239E431036851989191340FF
:1082F000032B1AD91E1F0023B4080134A400CF5841
:10830000EF500433A342FAD10324A643331D224085
:10831000C918ED18002A05D00023CC5CEC540133B9
:108320009342FAD1F0BD0500F6E71A00F2E7C04625
:10833000F0B5830743D0541E002A3FD0CEB20200CE
:10834000032502E01A00013C38D3531C16702B425F
:10835000F8D1032C2AD9FF220A40150215432A041A
:1083600015430F2C14D927001A00103F3E0901367F
:1083700036019E19156055609560D56010329642A1
:10838000F8D10F2297431037DB191440032C0DD975
:108390001A00271FBE080136B6009E1920C2B2423D
:1083A000FCD1032297430437DB191440002C05D07D
:1083B000C9B21C19197001339C42FBD1F0BD1400E5
:1083C0000300C6E710B5024807F02EFD10BDC046F9
:1083D0001817002010B5024807F028FD10BDC04650
:1083E000181700200FB400B5064983B004AB086825
:1083F00004CB8168019303F0D3FF03B008BC04B041
:108400001847C0466C01002030B5040089B0080050
:108410000D0000F0EFFB04AB214A0193022306920A
:1084200001220293A36B05900130049507920390FB
:10843000A568002B2FD06B6EDB0724D40C23EA5EDB
:1084400091B28B051CD580239B01194205D11343A2
:10845000AB816A6E134B13406B66200001AA2900A2
:1084600006F056FF441EA04144420A206B6E0443AE
:10847000DB0702D4AB899B0509D5200009B030BDCC
:10848000A86D07F0D1FC0C23EA5E91B2DBE7A86D82
:1084900007F0CCFCF1E7200006F0B2FDCBE7C046C8
:1084A000F4280100FFDFFFFF10B5034B010018683F
:1084B000FFF7AAFF10BDC0466C01002010B5044BA9
:1084C0000A001B680100180000F004F810BDC04647
:1084D0006C010020F0B54E464546DE465746E0B5F5
:1084E00085B001900E001500002900D19EE03700F4
:1084F0000198083FFFF766FF7A68032314009C4346
:108500002B000B33B946162B47D810211023884671
:10851000454546D89C4249DACC4938198B4689688A
:108520000290884200D1C2E001218A4640680100E1
:108530000390504681438C4602998B46DC44614649
:10854000496801424DD0104200D1A2E029000198B3
:10855000FFF7BCFB051E39D0012302007968083AF9
:1085600099437F18BA4200D12EE1221F242A00D954
:1085700014E1132A00D9E8E0030032001168196001
:108580005168596092689A60019C3100200006F0A1
:10859000E1FD2000FFF71EFF1BE007218B439846FB
:1085A000B6D50C23019A0025136012E0350043462E
:1085B000E31A0F2B25D84B46012249465B6813402E
:1085C00023434B604C4463681A4362600198FFF791
:1085D00001FF280005B03CBC90469946A246AB4638
:1085E000F0BD032103988C46884321188B4699429D
:1085F00021DB029A3500D36892685C46D3609A60AA
:10860000D5E74A4601204646526849460240324371
:108610004E464144034372604C444B6063680831EA
:1086200018436060019806F095FDCFE71100FFF751
:108630004DFB0500CDE75146114200D086E761466B
:108640003A68BA1A924652688A4380188346A3440D
:108650009B4526DB029AD3689268D3609A605346A2
:10866000524655469268DB680835D3609A60221FEF
:10867000242A00D996E0132A72D9534631689960AA
:108680007168D9601B2A00D9A4E032001033083287
:1086900068E03A68BA1A9246514603224968914303
:1086A0000A009346A3449B4500DA4FE7D7E703202F
:1086B0000299844649688143404609191030029066
:1086C000814258DAD20700D540E760463A68BA1AC4
:1086D0009246526882430298511803918842E0DC26
:1086E0005346524655469268DB680835D3609A6017
:1086F000221F242A00D98EE0132A00D888E053468E
:10870000316899607168D9601B2A00D988E032000D
:1087100010330832116819605168596092689A6084
:1087200051465B46424641449960039B01989A1A20
:1087300001231A434A60524652681340424613438B
:1087400052465360FFF746FE43E7336803607368A1
:1087500043601B2A2DD803003200083308320DE78E
:108760002B00320011685C4619605168D14659608F
:1087700092689A601BE74346FA185B469A60434644
:10878000C91A0123194351607A680198134042467F
:1087900013437B60FFF71EFE35001AE7310007F038
:1087A00045FCF1E63100280007F040FC5C46D1466C
:1087B000FDE6B3688360F368C360242A15D0030024
:1087C000320010331032D9E6536803229343E41881
:1087D0003500ECE65346B1681961F1685961242A05
:1087E0000CD0320018331032BCE733693200036119
:1087F00003007169183318324161BFE6534632698C
:1088000051469A613200706920331832C861A9E775
:108810002B0032007EE73100280007F007FC7FE7DD
:108820005346B1681961F1685961242A03D03200B6
:10883000183310326EE75346326951469A6132005E
:10884000706920331832C86164E7C046040700200D
:10885000002370B5064C050008002360FBF730FCD0
:10886000431C00D070BD2368002BFBD02B60F9E7C0
:108870002C1700204A424A41802310B55200DB00E9
:1088800000F002F810BDC046F0B54746CE4680B5B0
:108890001F00634B83B01D68040088461600002D3E
:1088A00002D0AB6B002B66D0022E05D0012E00D972
:1088B000A1E0002F00DA9EE0636EDB0733D52100D4
:1088C000280006F043FB216B002908D02300403329
:1088D000994202D0280006F03DFC002323630023C8
:1088E000A36163600C22A35E1A063DD44D4A134077
:1088F000A381022E1ED001AB6A462100280007F09A
:10890000ABFAA3891843A081002F38D1009F38000B
:10891000FFF7C8F98046002800D16FE08022A389C4
:108920001343A3812EE0A3899B05C8D4A06D07F053
:108930007BFAC4E70025022213430022A260220032
:108940004332226022610122616EA3816261114281
:1089500004D19B0502D4A06D07F068FA280003B08B
:108960000CBC90469946F0BD2169280006F0F2FB48
:108970000C22A35EBAE7280006F042FB94E74346C8
:10898000002BC4D0AB6B002B27D0009B9F422AD07A
:108990008023A2891B0113431BB2A381012E26D081
:1089A00042462260226108229BB267611A400BD0C6
:1089B000DA0710D500220125A260626E7F42A7610E
:1089C0001540C6D00025C9E7A2600125626E15409A
:1089D000BFD00025C2E7A760F7E7280006F010FB2C
:1089E000009B9F42D4D10C22A35E012ED8D101223C
:1089F0001343A381D4E701256D42AFE7009B99465D
:108A0000BB4205D01800FFF74DF98046002804D17D
:108A100001250C22A35E6D428DE74F467EE7C046DE
:108A20006C0100205CF3FFFF0EB410B59DB002A9ED
:108A3000029008610B48822488604861012040420E
:108A40001FABC881084804CBA400006801938C8147
:108A500001F0BAFA0023029A13701DB010BC08BCD2
:108A600003B01847FFFFFF7F6C0100200EB4812385
:108A700070B59DB002AC21AD9B0040CDA3810290AA
:108A8000069000F0B7F80B4B60602362002323636D
:108A90006364013BE381084B606132001868210088
:108AA0002B00019502F094FD1DB070BC08BC03B012
:108AB0001847C046E58A00006C01002070B50C0024
:108AC0000E25495F07F0B0FF002803DB236D1B185C
:108AD000236570BDA389024A1340A381F9E7C0460C
:108AE000FFEFFFFF00207047F8B516001F000C22B3
:108AF0008B5E05000C00DA0507D50E23C95E002247
:108B0000022307F095F90C22A35E054A28001340C2
:108B1000A38132000E23E15E3B0005F05DF8F8BD55
:108B2000FFEFFFFF70B50C000E25495F07F080F9DD
:108B3000431C06D08023A2895B011343A3812065D7
:108B400070BDA389014A1340A381F9E7FFEFFFFF3E
:108B500010B50E23C95E05F0D1F810BD024670B500
:108B60000A4392072AD11E4DEE0104C808C9541BBE
:108B70009443344017D0D0B2D9B2401A21060143F1
:108B800010D190B299B2401A210401430AD11002C7
:108B90001902000A090A401A2102014302D1100EEB
:108BA000190E401A70BD9A42DFD010BA19BA884225
:108BB00001D9012070BD0020C04370BD02780B7840
:108BC00001300131002A09D09A4207D102780B788E
:108BD00001300131002A01D09A42EFD0D01A70BD85
:108BE00001010101031C0A7801311A700133002AC6
:108BF000F9D1704710B5830725D00378002B24D016
:108C00000300032102E01A78002A1AD001330B4234
:108C1000F9D119680E4A0F4C8A188A43224206D1AC
:108C2000043319680A4A8A188A432242F8D01A0083
:108C30001B78002B03D0013211780029FBD1101AC8
:108C400010BD181AFCE70300E3E70020F8E7C04670
:108C5000FFFEFEFE8080808030B50024002A39D0DF
:108C600003000B439B0720D1032A1ED903680D681C
:108C7000AB421AD1043A002A2CD01A4D5D199D43FB
:108C80002B00194D2B420CD024E003680C68A34242
:108C90000BD1043A002A1FD0124C1C199C432C42C1
:108CA0001AD104300431032AEFD803780D78013A41
:108CB0009D4213D1002A0FD0002D0DD0012304E0D6
:108CC0009A4209D00133002C06D0C45CCD5CAC4282
:108CD000F6D0641B200030BD0024FBE71C00641BA1
:108CE000F8E7C046FFFEFEFE808080800B00034355
:108CF000F0B59B0701D1032A14D80600002A10D032
:108D00000C78013A731C3470002C1DD0012406E04D
:108D10000D5D013A355501330134002D14D0002A80
:108D2000F6D1F0BD05000D4F06E0043A2E1D0431CA
:108D30002C60032AE2D935000C68094BE318A343E1
:108D40003B42F2D02E00DBE79C180021002AE8D03D
:108D500019700133A342FBD1E3E7C04680808080D5
:108D6000FFFEFEFE70B516000D0007F0E3FC002EBE
:108D70000DD06B236A00520D9B1A002B07DD0024D7
:108D8000034A1B059D182B002200FDF771FF70BDE3
:108D90000000F03FF0B5DE4657464E464546E0B58A
:108DA0001D000023A3B0099028000E001E939346D7
:108DB000FEF75AFF07000068FFF71CFF002400239E
:108DC0000493059433001D961C780890C4492D2CFB
:108DD00000D970E0A2008A58974689461400396885
:108DE000089A9846FFF738FF002800D184E0002257
:108DF000002300200A95089220222100914300229E
:108E0000452900D1A6E0002D00D004E10C9A1343BF
:108E100000D0F8E0089B002B00D13DE15B46002428
:108E20000025002B06D0002307935B461E60079B9E
:108E3000002B08D12000290023B03CBC9046994665
:108E4000A246AB46F0BD802109066B181D00F1E774
:108E5000002207925A1C1D925C789246002CDDD0AD
:108E600000230C93302C2DD02300303B092B00D94C
:108E70008CE3002350460025190022000CE09C00E2
:108E8000E3185B009B18303B01301D9002780135E0
:108E90001400303C092CA0D8082DF0DD8C0064189B
:108EA0006400A41821003039EEE701331D931C78CB
:108EB0002D2C00D88EE79A460023079300230C93AD
:108EC000302CD1D153465B78582B00D134E3782B2A
:108ED00000D131E3534601331A001D931478013356
:108EE000302CF9D09246002C00D18CE001230C9359
:108EF000BAE701220792ADE71D9A089B94466344A6
:108F00001D931C7800230A952200303A092A00D9C3
:108F1000E2E05C1C9446002A01D100F076FE0019C4
:108F20005B19012C01D100F06CFE444607E0A10062
:108F30000C1964009F4201D100F0EFFB3D006F1C53
:108F4000082DF4DD102FF5DC49468900494449001D
:108F50008946EFE72A000C991A430A4300D15DE7DE
:108F60001D9E721C1D9274782B2C00D19AE32D2C1F
:108F700000D130E200220D922200303A092A00D9B5
:108F8000F5E2302C06D11D9A01321D92147801327F
:108F9000302CFAD0210031390022082900D932E7DB
:108FA0001D9922004C1C1D94A4464C780F000E9174
:108FB00021003039303A092915D839009C4627005C
:108FC00002319400A4181D916400E4190F78220066
:108FD0003C00303C0B00303A0131092CF1D919002A
:108FE0003C0063468C4661460E9FC91B082900DD84
:108FF00056E23C498A4200DD52E20D99002900D137
:1090000001E75242FFE6002400255B46002B00D119
:109010000DE71D9E09E7131A08930A9B002B00D148
:109020000A952C00102D00DD10244046FEF74CFC64
:1090300004900591092C15DD22002B4B093AD20032
:109040009B181A685B68FDF713FE060048460F0080
:10905000FEF73AFC02000B0030003900FCF7C4FEBA
:10906000049005910F2D45DC089B002B31D0089B07
:10907000002B01DC00F069FC162B01DD00F015FC73
:109080001949DA00891808684968049A059BFDF7B0
:10909000EFFD04000D00B8E74E2C09D001DC00F014
:1090A0002BFC692C01D100F02BFC6E2C00D0B5E616
:1090B0000E491DA806F0BEFD002800D1AEE61D9B9E
:1090C0001B78282B01D100F00DFD094B05930023DF
:1090D0000493049C059D98E7012208928CE6C04603
:1090E0007C2D01001F4E0000B8380100582E0100F1
:1090F0000000F8FF089B2C1B9C466444002C00DCFD
:109100001FE30F2323400AD0D949DB00C9180868A0
:109110004968049A059BFDF7ABFD049005910F2368
:109120009C4300D05DE100230C93434600932B0049
:10913000099D0A9A5146280007F040F8002800D1FE
:1091400055E208994B42CA171A400E92CA430B00C7
:10915000D21713400D930023994698465B468346E9
:109160001593F4E0C91A521A1F2900DDB5E1012355
:109170008B40109300231193BB189A460C9BB61892
:109180009C463B006644574500DD5346B34200DD34
:109190003300002B04DD5246D21A9246F61AFF1A0B
:1091A0000E9B002B15D041461A00280007F04CF901
:1091B0008046002800D152E201001E9A280007F0E4
:1091C00099F8041E00D14AE21E99280006F0A6FF75
:1091D0001E945346002B08DD52461E99280007F0C6
:1091E00093F91E90002800D1C2E30D9B002B08D0FC
:1091F0000D9A0899280007F027F90890002800D157
:109200002DE2002E08DD32000899280007F07CF9D5
:109210000890002800D122E2002F08DD41463A00E4
:10922000280007F071F98046002800D117E2089A5B
:109230001E99280007F0E2F98146002800D10EE2CD
:10924000C36841460F930023C36007F0BDF90028AF
:1092500001DA00F0D8FB00D18EE34146484607F022
:1092600059FB80230022DB0506000F00FCF726FCDB
:10927000002800D116E10F9B002B00D135E1059BA2
:1092800000261093002311937A4B7A4F1493109B6E
:10929000794A13409A46794B9A4500D1AFE10C9B2D
:1092A000002B2AD0D423DB049A4526D8149C744A78
:1092B000744B11982100FCF701FC002818D011987C
:1092C0002100FCF76DFC002800D110E3FEF7FCFA4A
:1092D000119014910F9B002B00D003E38022120603
:1092E0009446119B1893149B63441993189E199FDD
:1092F000D6235246DB04FB189F1A0A980B9907F0F5
:1093000019FA02000B0030003900FDF7B1FC0A9A8F
:109310000B9BFCF769FD03000C00049305940C9B68
:10932000002B04D1544B23409A4500D1BDE11E9936
:10933000280006F0F3FE0899280006F0EFFE4146EB
:10934000280006F0EBFE4946280006F0E7FE5B46E3
:109350002800596806F0BAFE0890002800D17EE186
:109360005A46594612690C31023292000C30FEF70F
:109370009DFF049B059C1900220020AB01931FABAD
:109380000A910B9200930A002300280007F064FA68
:109390001E90002800D1EBE20121280006F0A0FF7A
:1093A0008046002800D15AE11F9B002B00DA90E094
:1093B0000E9A0D9ED7180C99209A5B1A36219B188D
:1093C0008A1A3149013B8B4200DACBE60023119324
:1093D00001331093D0E601220D92B21C1D92B47895
:1093E000CAE59A235B009C4200DD00E12411012CB8
:1093F00000DC61E3049805990122244B00270C93BB
:109400001E00914600234A46224204D03268736807
:10941000FDF72EFC0123013764100836012CF2D130
:10942000002B01D000F0F4FB194A059B94466344DD
:1094300005930C9BFF009C46049A059B6744386883
:109440007968FDF715FC0A000300140004930594E5
:10945000094B13400F4A934200D9C8E00E4A934289
:1094600000D808E30D4B059301235B4204935AE6B1
:10947000B83801000000F03F0000F07F0000E07FFE
:109480000000C0FFFFFFDF4102FCFFFF903801003A
:109490000000B0FC0000A07C0000907CFFFFEF7F8C
:1094A000CE4AAAE5CE4B002230003900FDF7E0FBA2
:1094B0000F9B11901491002B39D1802212060B00C2
:1094C0009446634412901393059B129E139F10932E
:1094D000DDE60D9A0E9FD61A6DE7C249CB1A01211F
:1094E000994001231191109346E60499059A0029A9
:1094F00040D11092130342D10022BB4B30003900FF
:10950000FCF7D2FA002800D0BFE20022B44B3000B2
:109510003900FDF7ADFB802212060B009446634430
:10952000119014911A901B931A9E1B9FAFE6119AEB
:10953000149B12921393C7E7079B029501931EABEE
:109540000093AA4A1FAB1DA9099806F0DFF807246B
:109550000500044000D156E5062C00D05EE15346DC
:1095600001331D9300230024002507934DE51D962C
:10957000002248E4012900D1D8E1059B1093002383
:109580001193994B00269A4F149380E63968089AF4
:109590005046FFF761FB0A90002809D00023002203
:1095A0000A9399469846002000250892FFF724FC6C
:1095B0001D9A089B944663441D931C7819005A1CFD
:1095C0000023302C05D11D921478531A0132302C0F
:1095D000F9D02200313A082A00D853E100229146FE
:1095E00090460132002000250892FFF705FC222357
:1095F000099A13607F4B05930023049369E57E4924
:10960000109A8C460A9B0B9C624405920A960B9713
:10961000049E059F300039001693179407F08AF8CE
:1096200002000B000A980B99FDF722FB32003B0069
:10963000FCF7DAFB6F4B714A049005910B409342A3
:1096400000D8C6E06E4B179A9A4205D06C4B059332
:1096500001235B4204936AE6169B0133F6D1159B06
:10966000DA469B461E982223099A1360614B0593A4
:1096700000230493049C059D099E0100300006F020
:109680004DFD0899300006F049FD4146300006F0D6
:1096900045FD5146300006F041FD4946300006F0D8
:1096A0003DFDB2E400220D9297E6119F149E380012
:1096B0003100FEF793F8FEF7C5F80B000200310009
:1096C0003800FDF755FD0F9B06000F00002B12D14F
:1096D000049B002B0FD124030DD14A4A4A4BFCF7BF
:1096E000E3F9002800D122E6159BDA46049C059D8B
:1096F0009B461E98C0E7434A444B30003900FCF7B4
:10970000D3F90028F0D1424A354B30003900FCF73C
:10971000DFF9002800D10AE6E6E7A0461D990235E8
:10972000082F00DCB9E00023102D05DC4C46A40016
:109730004C4491466400A1444A1C1D924C78FFF7AA
:10974000E3FB002C00D1EEE40F23644223400AD057
:10975000049805992F4ADB00D3181A685B68FCF758
:1097600053FE04900591241100D1DCE41F2C29DC68
:10977000102323400C9300D1C5E16A230C93002CE5
:1097800000DCC4E10498059900230127224E2742FA
:1097900004D032687368FDF76BFA01236410083651
:1097A000002CF4D1002B00D021E20C9B002B00D028
:1097B000ADE10498059900220023FCF76FF9002819
:1097C00000D1B2E42223099A002413600025FFF798
:1097D0001CFCD4239B04CC180594A0E51F4E00006C
:1097E0000000E03FE2FBFFFF0000F03F5C2E0100C5
:1097F0000000F0BF0000F07F0000B0FCFFFF9F7C86
:10980000FFFFEF7F9535A094FFFFCF3FFFFFDF3FC6
:1098100035E5AF35B8380100882E01001E9A002AC0
:1098200007D0352120A807F0AFF81E99099806F057
:1098300075FC052C08D8D14BA4001B599F46D04B72
:10984000059301235B4204932B0700D441E480235A
:10985000059A1B061A4305923BE4CA4B0593F3E7AE
:10986000209B0493219B0593EEE7C749209B8C46E0
:109870000493C64A219B1A401F9B63441B051A434D
:109880000592E1E73022581C00231D99524294466C
:109890008A46984601259946A44443469C00444480
:1098A00064006444A046002346E72523089E5B1B12
:1098B0009E4201DDFFF71EFC0F23B54C5D1BE90046
:1098C000751B6118ED006419049A059B08684968C6
:1098D000FDF7CEF922686368FDF7CAF904000D00B0
:1098E000FFF793FB119A149B18921993FEE400233F
:1098F0001193A84B1493EDE4492C01D0FFF78EFA95
:10990000A5491DA806F096F9002801D1FFF786FAAF
:109910001D9BA249013B1DA81D9306F08BF9002851
:1099200000D067E61D9B01331D9363E6059B1093F2
:10993000002B00D023E6159BDA469B462223099A8A
:109940001E9813600024002596E6089A130016332B
:1099500001DAFFF7CFFBD0008D4A121A5368126864
:1099600004980599FCF750FD04000D00FFF74DFB2E
:10997000159BDA469B4676E6159BDA460A9C0B9DBC
:109980009B460F9B002B00D18DE0049805990B039B
:109990000A0083491B0B8B4200D1CCE0119B002BAA
:1099A00000D17BE0059A134210D0049805990F9BD3
:1099B0000C9A002B00D183E0FFF7D4F902000B00D2
:1099C00020002900FCF710FA04000D000C9B002B6E
:1099D00017D0744B2000179300231693169A179BE9
:1099E0002900FDF745F902000B0004000D00049268
:1099F0000593002905D1049B002B02D12223099A4B
:109A000013601E9838E6159BDA460A9C0B9D9B4610
:109A10000F9B002BDAD10499059A0029D6D11303A4
:109A2000D4D1584B1340D622D2049342CED94B46C0
:109A30005B69002B03D14B461B69012BC6DD4946F0
:109A40000122099806F060FD4146814606F0BCFD02
:109A50000028BBDD0C9B002B00D1B2E0059A494BDE
:109A60001340D622D204934200DDAAE0DC22920405
:109A70009342AEDC62E7D42292042300944663440E
:109A8000059300230C93FFF750FB0023464C1A93D9
:109A90001B9400231193454B149345E5109B049AA6
:109AA000134293D081E70499059A130300D075E718
:109AB000002900D072E7CDE73D4B00270C93B3E4BB
:109AC000FFF750F902000B0020002900FDF750FBC2
:109AD0000022002304000D00FBF7E0FF002800D067
:109AE0002CE773E720AA33491DA806F0B9F805282A
:109AF00001D0FFF7EAFA219B224A1A43209B0592E4
:109B00000493FFF7E6FA002C00DD3BE651E6049BE8
:109B1000059C6B236100490D22005B1A002B00DCC1
:109B200047E61F2B5CDD00210491342B62DDDC2332
:109B30009B0405933DE60C9B0499002B3ED0D4205A
:109B4000104BC0041340834238D86B201B0DC01A41
:109B500001235B4283408B4200D01FE716498A42B3
:109B60005AD08021074B49031A4013008C466344A6
:109B7000059300230493049C059D27E7342E0100E0
:109B8000FFFFFF7F0000F07F33040000FFFFEFFFC7
:109B9000B83801000000F03F4C2E0100502E0100AB
:109BA000FFFF0F00000050390000E0BF0000E03F61
:109BB00090380100702E0100FFFFEF7F01235B4210
:109BC000C9E7059A164B1340164A9446164A634451
:109BD0001A4301235B4205920493049C059DF5E61C
:109BE000012252429A40049B13400493E1E5049001
:109BF0000591DAE50121203B494299400A4005924E
:109C0000D7E52F001D9901358AE51D99230093E5BD
:109C100004900591FFF708FC0133A2D122E5C0466C
:109C20000000F07F0000F0FFFFFF0F00054B10B5B4
:109C30001B685B6B002B02D0FFF7ACF810BD024B2A
:109C4000FAE7C0466C01002098050020064B10B5CD
:109C5000040018680A00436B002B03D02100FFF7B3
:109C600099F810BD014BF9E76C0100209805002020
:109C7000F0B557464E46DE464546E0B51E00082381
:109C800083B08346894692460F00984600E02F0035
:109C90000C983C78FDF7D6FF4246001943787D1CAE
:109CA0001A42F4D12D2C5BD0002301932B2C5CD0D5
:109CB000002E0ED0102E5BD0012031004042FBF769
:109CC00067FD0700012031004042B046FBF7E6FD8A
:109CD00006E0302C5BD00A23052198460A26344F33
:109CE000002200202300303B092B07D9113B192B00
:109CF00003D92300613B192B0ED80A339E420BDD9A
:109D0000002A20DBB8421ED81BD042465043012215
:109D100018182C780135E5E7002A17DB019B002B8A
:109D200000D040425346002B04D04B46002A15D1A8
:109D30005246136003B03CBC90469946A246AB46DF
:109D4000F0BD8B42E1DD01225242E2E722235A4676
:109D50000120136053464042002BEBD06B1EE7E717
:109D600001232C780193BD1CA2E72C78BD1C9FE732
:109D7000302C17D120222B789343582B12D110234B
:109D80006C780F2102350B4F98461026A8E7202249
:109D90002B789343582BF2D008230721064F98467F
:109DA00008269DE710230F21024F984698E7C046EA
:109DB00099999919FFFFFF0FFFFFFF1F10B5064C80
:109DC00082B02468646B002C04D00094FFF750FF2D
:109DD00002B010BD014CF8E76C010020980500208E
:109DE000F0B5DE4657464E464546E0B51E00082310
:109DF00087B00590049193460F00984600E02F002D
:109E000010983C78FDF71EFF4246001943787D1CF0
:109E10001A42F4D12D2C00D185E0002303932B2C82
:109E200000D185E0002E16D0102E00D183E0F3176C
:109E3000320001204042C1179946FBF75DFE320017
:109E400080460F004B4601204042C117FBF754FEED
:109E5000B24602920CE0302C00D180E00523029340
:109E60004C4B0A2698460A239A46002399464A4FA5
:109E700000220020002119E01C00A64221DD002A5A
:109E80003DDBB9423BD801D1404538D8404531D0BF
:109E900052464B46FBF750FEE31700940193009B9C
:109EA000019C0122C01861412C7801352300303B10
:109EB000092BE1D92300413B192B23D8373CA6427B
:109EC000DDDC002A24DB039B002B04D003000C0004
:109ED00000215842A1415B46002B04D0049B002A7C
:109EE0001FD15A46136007B03CBC90469946A24623
:109EF000AB46F0BDB942CBD1029B9C42C8DD0122EA
:109F00005242D1E72300613B192BDAD8573CB4E722
:109F10002223059A01204042C11713605B46002BA3
:109F2000E1D06B1EDDE701232C780393BD1C79E79C
:109F30002C78BD1C76E7302C21D120222B7893433E
:109F4000582B1CD10F230293103B984611339A468D
:109F500000236C78114F02359946102688E720229D
:109F60002B789343582BEDD007230293083B984658
:109F700009339A4600230A4F9946082678E70F23AB
:109F80000293103B984611339A460023034F99469B
:109F90006EE7C0469999999999999919FFFFFF0F12
:109FA000FFFFFF1F10B5064C82B02468646B002CC5
:109FB00004D00094FFF714FF02B010BD014CF8E785
:109FC0006C01002098050020F0B5DE464546574656
:109FD0004E46E0B5C3B00D00069114000F930990F2
:109FE000FDF744FE036818001993FEF703FE18906E
:109FF000AB891B0605D52B690793002B01D101F016
:10A0000063F832AB25930023A34625AFBB607B608A
:10A0100014931693159332AE17931A930A935B46D3
:10A020001B785C46002B1CD0252B02D119E0252B78
:10A0300003D001342378002BF9D15B46E51A10D008
:10A040005B463360BB6875605B19BB607B6801333E
:10A050007B60072B2EDC08360A9B9C46AC4463468B
:10A060000A932378002B2ED0631C9B46002316AA4C
:10A07000D377012252429246002200210B922032D5
:10A080009146203263788846002000249446594641
:10A0900001311A00203A582A00D9FDE2D74D92002A
:10A0A000AA5897460B9B0F925B420B9304231C43C9
:10A0B0000B78EDE73A000699099806F09DFE002816
:10A0C00009D132AEC8E7BB68002B04D03A0006992C
:10A0D000099806F091FE069B9B895B0601D501F06D
:10A0E000CEF80A9843B03CBC90469946A246AB468F
:10A0F000F0BD01220B7890462B20C9E74B1C9B46F4
:10A100000B782A2B01D101F01BFA1A000021303AFA
:10A110008A465946092ABCD80300110050465A46BF
:10A120009A46A34683001B1814785B005818210038
:10A13000531C30391A000929F4D9524619008246B5
:10A14000230010005C46A4E780231C430B789FE7A4
:10A150008B4641461293002901D001F01FFA1023CB
:10A160001C430F9AA30601D500F088FEE30601D533
:10A1700000F080FD630601D400F07CFD0021535EF9
:10A180000C930432DB170D930F9201D500F086FE7D
:10A190000C990D9A080016ABDB7F1043984602001D
:10A1A00001235146013100D1FFE080212000884386
:10A1B0000890002A00D0FCE05246002A01D000F0AE
:10A1C0002CFC002B01D000F004FD012032AB20401C
:10A1D0000E90119308D02723302128AAD15416AA13
:10A1E000944648336344119353460E9A079392451D
:10A1F00000DA0792002313934346002B02D0079BFB
:10A20000013307930223089A1A40914602D0079B14
:10A21000023307938423089A1A40109200D04DE22B
:10A220000B9B079A9C1A002C00DC47E27449BA6821
:10A230007B688846102C1FDD31001025464603E060
:10A24000103C0831102C15DD103201330E604D60CA
:10A25000BA607B60072BF3DD3A000699099806F097
:10A26000CBFD002800D036E7103CBA687B6832A9E5
:10A27000102CE9DCB0460E00414674600133A4188E
:10A280003160BC607B60072B01DD00F0A8FC16ABE1
:10A29000DB7F0836984612E28B464146129300292E
:10A2A00001D001F077F907220F9B07339343013266
:10A2B00094469C4462460F921A6816925B6801228B
:10A2C0001593159B169D5B005B08984652424D4BBB
:10A2D00028004146FDF762FA002801D000F0FDFD9C
:10A2E0000122484B524228004146FBF7E7FB002879
:10A2F00001D000F0F2FD0022002316981599FBF71B
:10A30000D3FB002801D001F022F816ABDB7F984682
:10A31000129B472B01DD00F0C7FE3B4B11938023BE
:10A320009C437D3B07930E93002308949A46139316
:10A3300062E70022303B15001A0003000794080072
:10A340002C009B46A3001C190378640014191A0002
:10A350000131303A0800092AF4D90B945846079C79
:10A3600097E608231C430B7892E6129310231C43B4
:10A370008B46A30600D57BE1E30601D500F07EFC09
:10A38000630601D400F07AFC0F9B1A880C9200221D
:10A3900004330F9300230D920C9A002116A8C17765
:10A3A00088465146013100D0FFE6002A00D135E34E
:10A3B0000894012B00D1E5E3022B00D062E3179C47
:10A3C0000F20A146B44632AB19000C9A0D9B040035
:10A3D0004D4614402C5D1E07150901392E430C70A3
:10A3E0001C092300340032001C43F0D10C920D9361
:10A3F00032AB5B1A119166460E93F5E6B02E010062
:10A4000054300100FFFFEF7F14300100129310233E
:10A410001C438B46A30600D511E1E30601D500F0ED
:10A4200031FC630601D400F02DFC0F9B1A880C92BE
:10A43000002204330D920F930C9A0123ADE78B4653
:10A4400041461293002901D001F090F8B84B1793C0
:10A45000A30600D5ABE0E30601D500F007FC6306D8
:10A4600001D400F003FC0F9B1A880C9200220433E5
:10A470000D920F93E30700D4A9E00C990D9A0B00FD
:10A4800013431A000223002A00D186E730201EA9B8
:10A49000087048256846401900781C4348707CE7DE
:10A4A0008B464146002901D001F083F8A30601D56F
:10A4B00000F0E9FDE30601D500F09BFD630601D441
:10A4C00000F097FD69460F9B098D1A6804330792C7
:10A4D00011800F93A3E54B461C430B78D8E51293EC
:10A4E0000F9B8B461D1D1B6816A91A001193002394
:10A4F000CB77002A01D100F0FBFE5346013301D196
:10A5000000F038FE52460021119805F04FFD00285A
:10A5100001D100F054FF119BC31A1A000E93DB43C4
:10A52000DB171A4016ABDB7F0792984600230F9586
:10A5300008949A4613935FE60F9A1293136828AD16
:10A5400007936B461B7F8B462B70002316A9CB7796
:10A55000130004330F9300230894984601330793A4
:10A560000E93002311959A4613934BE68B46414672
:10A570001293002900D1F4E516ABD877F1E56346D4
:10A580001C430B7884E50B786C2B01D100F086FD21
:10A59000102214437CE58B4641461293002901D0DA
:10A5A00000F0E8FF634B1793A30600D453E707229C
:10A5B0000F9B07339343013294469C4462460F92AB
:10A5C0001A685B680C920D93E30700D555E70C9968
:10A5D0000D9A0800104302230200DEE68B460F9915
:10A5E00030220B680C9300230D9302331C431EABE7
:10A5F0001A7048325A700B0004330F934D4B12926D
:10A6000017930C9A0223C8E601231C430B783FE5FD
:10A610000F9B1A1D1B680B93002B00DA42E50B7889
:10A620000F9235E50B78002800D031E5012220306B
:10A6300090462DE58B461293A30600D4EDE6072243
:10A640000F9B07339343013294469C4462460F921A
:10A650001A685B6811001A00080010430C910D92F3
:10A660000123020099E68B461293A30600D483E6E9
:10A6700007220F9B07339343013294469C44624662
:10A680000F921A685B6811001A00080010430C91C1
:10A690000D920023020080E68B464146129300296A
:10A6A00001D000F07FFF129B002B00D10BE528ADFD
:10A6B0002B70002316AAD37708944EE7BC68434654
:10A6C000002B0FD016AA1F23944663443360012346
:10A6D00073607B6801340133BC607B60072B00DD55
:10A6E000B3E108364B46002B0CD01EAB336002237F
:10A6F00073607B6802340133BC607B60072B00DD34
:10A70000AFE10836109B802B00D120E153460E9A12
:10A710009D1A002D3CDD084A7B689146102D2CDDEA
:10A72000102221009246099C32002E004D4609E07D
:10A73000243001003830010064300100103E08323E
:10A74000102E16DD50461031013315605060B9608F
:10A750007B60072BF2DD3A000699200006F04CFBE7
:10A76000002800D0B7E4103EB9687B6832AA102EEA
:10A77000E8DCA9460C00350016004A46641901338E
:10A7800032607560BC607B60072B00DD51E10836EC
:10A79000089BDB0500D5B6E0119B33600E9B9C4601
:10A7A00073607B6864440133BC607B60072B00DD11
:10A7B0009DE00836089B5B0741D50B9B079A9D1AC5
:10A7C000002D3CDDC44A7B689046102D26DD10220A
:10A7D00021009146099C32002E00069D03E0103EA8
:10A7E0000832102E17DDBC48103110604846013386
:10A7F0005060B9607B60072BF1DD3A002900200032
:10A8000006F0FAFA002800D065E4103EB9687B68CB
:10A8100032AA102EE7DC35000C00160042466419FF
:10A82000013324C6BC607B60072B08DD3A00069923
:10A83000099806F0E1FA002800D04CE4BC680B9BB4
:10A8400007998B4200DA0B000A9A94469C446346AF
:10A850000A93002C00D0D6E0002332AE7B60FFF7D5
:10A86000DEFB149B012B00DCAEE0119B0134336056
:10A87000012373607B68BC6001337B60072B00DDC4
:10A88000DFE20836199A01333260189A98469446E6
:10A8900064447260BC607B60072B00DDDEE208363A
:10A8A0000022002316981599FBF7F8F8002800D02D
:10A8B000A4E1119D149B0135013B35607360E418E0
:10A8C00001239C46E0444346BC607B60072B00DDCF
:10A8D0008BE0083621AB33601A9B9C46736043467D
:10A8E00064440133BC607B60072B00DC61E73A0005
:10A8F0000699099806F080FA002801D0FFF7EBFBD3
:10A90000BC6832AE56E7129B652BAADD00220023FD
:10A9100016981599FBF7C2F8002800D1E2E06F4BBA
:10A9200001343360012373607B68BC6001337B605A
:10A93000072B00DD66E308361F9B149A934200DA6A
:10A94000A4E1089BDB0700D5A0E1BC6832E70B9BC4
:10A95000079A9D1A002D00DCD8E6614A7B68914673
:10A96000102D25DD102221009046099C32004E4614
:10A9700003E0103D0832102D17DD40461031013341
:10A9800016605060B9607B60072BF2DD3A000699D3
:10A99000200006F031FA002801D0FFF79CFB103DA3
:10A9A000B9687B6832AA102DE7DCB1460C001600AE
:10A9B0004A466419013332607560BC607B60072BC6
:10A9C00000DD7EE20836A1E60123089A134200D09A
:10A9D0004BE773607B68119A013301343260BC60CD
:10A9E00098467B60072B00DC73E73A0006990998CC
:10A9F00006F002FA002801D0FFF76DFB7B68BC6807
:10AA0000984632AE66E73A000699099806F0F4F9DE
:10AA1000002800D120E7FFF75EFB089C012B00D146
:10AA200084E1022B29D10894002300240C930D9477
:10AA3000C5E43A000699099806F0DEF9002801D02D
:10AA4000FFF749FBBC6832AEA2E63A0006990998C6
:10AA500006F0D2F9002801D0FFF73DFBBC6832AE0A
:10AA600040E63A000699099806F0C6F9002801D098
:10AA7000FFF731FBBC6832AE44E6089400230024A3
:10AA80000C930D940C980D995B4632AA079391464E
:10AA9000B34600E0A1464A0794464B4665465C1E15
:10AAA000C6080723CA08354311002A000340303383
:10AAB000237028000A43EDD10C900D9107995E4652
:10AAC0008B4608994A461194C90700D53DE132AB3F
:10AAD0001B1B0E93FFF788FB54300100202501005B
:10AAE000643001001F98002800DC96E2139A149944
:10AAF000130090468B4200DD88464346002B0CDD58
:10AB0000119B44443360434673607B68BC600133EF
:10AB10007B60072B00DDB7E308364346DB43424644
:10AB2000DB171340139AD31A9846002B00DC28E158
:10AB3000102B01DC00F0E7FCCF4A210091461022E7
:10AB40007B689246099D32004C46464604E0083236
:10AB5000103E102E00DC04E1504610310133146029
:10AB60005060B9607B60072BF1DD3A000699280040
:10AB700006F042F9002801D0FFF7ADFAB9687B680A
:10AB800032AAE5E70D9B002B00D1CAE00C9C0D9D7D
:10AB900032ABB1461E00200029000A220023FAF73A
:10ABA000ABFF013E303232700023200029000A2220
:10ABB000FAF7A2FF030004000D000B43EBD13200B3
:10ABC00032AB9B1A11960C940D954E460E93FFF7DF
:10ABD0000BFB00230E9332AB1193FFF705FB3A00FA
:10ABE0000699099806F008F9002801D0FFF773FAD2
:10ABF00016ABDB7FBC68984632AE60E5149B5D1EE9
:10AC0000002D00DC66E69C4B9946102D29DD1023B3
:10AC100032009A462E0021004346099C4D4603E02F
:10AC2000103E0832102E17DD5046103101331560EA
:10AC30005060B9607B60072BF2DD3A000699200076
:10AC400006F0DAF8002801D0FFF745FA103EB9689F
:10AC50007B6832AA102EE7DCA9460C003500984626
:10AC600016004B4675603360641929E60F9B1A681D
:10AC7000FFF7FBFB13680793FFF782FA0F9B1A6835
:10AC8000FFF784FB0F9B1A68FFF7D1FB199BBA688B
:10AC90003360189B9C4673607B68624401331400E8
:10ACA000BA607B60072B00DD02E20836149B5D1E54
:10ACB000002D00DC7EE5704A7B689146102D25DD75
:10ACC000102221009046099C32002E004D4603E0E0
:10ACD0000832103E102E15DD40461031013315604C
:10ACE0005060B9607B60072BF2DD3A0006992000C6
:10ACF00006F082F8002801D0FFF7EDF9B9687B680B
:10AD000032AAE6E7A9460C00350016004A46641947
:10AD1000013332607560BC607B60072B00DC48E566
:10AD2000E5E50C9B092B00D930E7089C27220C9BFA
:10AD300028A930338B54012316AA94460E936E3300
:10AD4000634408941193FFF74FFA302B00D10BE2C4
:10AD50003023023A137032AB9B1A0E931192FFF715
:10AD600043FAB046A14616000C004A4632604246FD
:10AD7000444401337260BC607B60072B00DD9CE2C1
:10AD800008361F9B149A93424CDB089AD20749D489
:10AD9000149A1399D31A521A90469A4200DD984693
:10ADA0004246002A0FDD1399119A8C4662443260A4
:10ADB000424672607A6844440132BC607A60072A75
:10ADC00000DD86E208364246D543ED1715405D1B8F
:10ADD000002D00DCEEE4284A7B689146102D95DDBD
:10ADE000102221009046099C32002E004D4603E0BF
:10ADF0000832103E102E85DD4046103101331560BB
:10AE00005060B9607B60072BF2DD3A0006992000A4
:10AE100005F0F2FF002801D0FFF75DF9B9687B6803
:10AE200032AAE6E7199A3260189A944672607A68F4
:10AE300064440132BC607A60072A00DD30E20836E3
:10AE4000A6E73A000699099805F0D6FF002801D038
:10AE5000FFF741F9BC687B6832AE13E53A0006990A
:10AE6000099805F0C9FF002801D0FFF734F97B6885
:10AE7000BC68984632AE13E5643001000723073200
:10AE80009A4301339C46944463460F935368126877
:10AE90000D930C92002B01DBFFF77AF90C980D99BA
:10AEA000002342428B4111001A002D2316A8C377BC
:10AEB000080010430C910D92984602002C3BFFF7BE
:10AEC00070F93A000699099805F096FF002801D01C
:10AED000FFF701F9BC6832AE18E41699159D0A0017
:10AEE00008002B002900FCF759FC002800D0E6E2FE
:10AEF0005346013300D10DE22023129A9A430E9259
:10AF0000472A00D11CE180235B0023430893159B53
:10AF1000002B00DA21E2169A079300239146109342
:10AF2000129B662B00D1FCE1462B00D1DBE00E9A90
:10AF30000998453A13005942594120AB0D0003933B
:10AF40001FAB0293022323AA55441B920492009341
:10AF50000195079B4A4602F08DFF129B1190672BCB
:10AF600000D039E2119B9846A844E30700D48BE255
:10AF70000023002248460799FAF790FD434600282F
:10AF80000AD1239B434507D2302140465A1C2392C5
:10AF90001970239B9842F9D8119A9B1A14930E9B0F
:10AFA000472B00D1F6E0129B652B00DC26E2129BBA
:10AFB000662B00D1F4E11F9B1393149B139A190085
:10AFC000914200DDD4E1E30700D549E2D343DB172A
:10AFD00011001A40672307920E911293109B002BC9
:10AFE00000D0CFE016ABDB7F984600239A46FFF7F0
:10AFF00003F90F9A0A9913681960130004330F9329
:10B00000FFF70DF83A000699099805F0F5FE0028BB
:10B0100001D0FFF760F832AE8EE4DE4B01343360CE
:10B02000012373607B68BC6001337B60072B7ADC93
:10B030000836002807D1149B002B04D1089BDB079E
:10B0400001D4FFF7B7FB199B3360189B1919736084
:10B050007B68B96001337B60072B00DDF2E13200D1
:10B060000832002800DACCE11198013310601498FE
:10B070007B6044185060BC60072B00DD37E4083269
:10B080001600FFF797FB0F990A9A0B681A60D21700
:10B090005A600B0004330F93FEF7C1FF4B4601319A
:10B0A0001C430B78FEF7F4FFBB4B1193FFF737F906
:10B0B0003A000699099805F09FFE002801D0FFF795
:10B0C0000AF8BC6832AEF1E540210998FCF7FEFDB4
:10B0D000069B18601861002800D14FE24023069AB1
:10B0E0005361FEF78EFF23AB1B93049320AB0393B6
:10B0F0001FAB02935346019303234A4600930998DA
:10B10000079B02F0B7FE55461190119B9846129B83
:10B11000A844462B00D02BE7119B1B78302B16D070
:10B120001F9B984424E73A000699099805F064FEAD
:10B13000002801D0FEF7CFFF1F98BC6832AE78E739
:10B140005346002B00D0DEE601339A46DBE60022B0
:10B15000002348460799FAF7A1FC0028E0D1012313
:10B160005B1B1F93984403E7119A32AB9B1A0E9313
:10B17000FFF73AF81198FDF73DFD02000E9003002D
:10B18000FFF7CDF92D2316AAD377984600239A46C8
:10B19000FFF735F81F9B1393DA1C02DB9A4500DB9F
:10B1A0000BE7129B023B12932C22139B48215D1E3E
:10B1B00016AB9B186A46521812781F951A70002D0C
:10B1C00000DAA4E12D212B2316AA52181370092DA1
:10B1D00000DC4CE116AA3B23944663449A46B146F0
:10B1E000A046564600E0260028000A21FAF740FC57
:10B1F000741E3031217028000A21FAF753FB050034
:10B200000928F0DC23004446B0464E469946030028
:10B210003033D8B24346023B18709A4500D8B4E1A7
:10B2200042461B9B4546991A012307315B4201E0C8
:10B23000E85C013321AAD218D0708B42F8D116A94C
:10B240008C462E224B4662449446FB1A634421AA44
:10B2500014999B1A9C460A0062441A930E92012983
:10B2600000DC45E1189A0E9B944663441A000E9345
:10B27000DB43DB171A40002307921393AEE601234A
:10B280005B420A93FEF72DFF3A000699099805F0F4
:10B29000B3FD002801D0FEF71EFFBC6832AE3CE4CF
:10B2A0003A000699099805F0A7FD002801D0FEF79D
:10B2B00012FF1F9BBC6832AE6AE53A0006990998F6
:10B2C00005F09AFD002801D0FEF705FFBC6832AEFC
:10B2D00057E53A000699099805F08EFD002801D03F
:10B2E000FEF7F9FE149B1F9ABC689B1A32AE6AE502
:10B2F00053460793062B01D906230793079B0F9507
:10B300000E93002398469A461393244B0894119366
:10B31000FEF778FF2023129A9A431A3B0E929A4620
:10B32000F1E523AB1B93049320AB03931FAB029374
:10B330005346019303234A4600930998079B02F062
:10B3400099FD03005344119098465546E4E62D2399
:10B3500016AAD3779846FEF7DBFF802212069446A2
:10B36000169B9946159B634407932D231093D7E5AD
:10B37000189A149B9446139A63440E93002A00DC97
:10B38000CEE01A00DB43DB171A40672307921293C3
:10B3900024E6C04620250100183001004C30010091
:10B3A0001F9B1393002B00DCD5E05246002A00D0EF
:10B3B00092E0E20700D58FE007930E930EE616ABFE
:10B3C000DB7F0F959846534607930E93002308940E
:10B3D0009A461393FEF710FF119B9846129BA844C0
:10B3E000472B00D0C4E5E30700D58EE6239B119AD6
:10B3F0009B1A14930E9B472B00D1CBE61F9B1393F4
:10B40000D2E64442103000DBD0E06E481026050042
:10B4100003E00832103C102C38DD10310133156088
:10B420005660B9607B60072BF3DD3A0006990998F6
:10B4300005F0E2FC002801D0FEF74DFEB9687B68FC
:10B4400032AAE7E73A000699099805F0D5FC0028EA
:10B4500001D0FEF740FE1F98B9687B6832AA00E66B
:10B46000189A139B944663441A000E938AE72E2180
:10B47000302316AA521813702B0016AA013130334C
:10B480005218137022ABE2E6239B85E5A946484695
:10B490000919013310605460B96008327B60072BD2
:10B4A00000DCE1E53A000699099805F0A5FC0028C2
:10B4B00001D0FEF710FEB9687B6832AAD4E5159B6F
:10B4C000002B38DB16ABDB7F9846129B472B2EDC1C
:10B4D0003D4B1193FEF723FF189A139B9446634448
:10B4E00053441A000E93DB43DB171A40079275E5AD
:10B4F00001232340139300D0B4E60E9AD343DB1705
:10B500001A4007926AE52F4A7B6891462DE4012391
:10B51000139A1B399D1A16AA2C335218137056E62B
:10B520000E9B139A981A431C1A000E932AE7274B76
:10B530001193FEF7F4FE2D2316AAD3779846C4E79D
:10B540000F9B1A1D1B689A46002B36DB4B780F9217
:10B550005946FEF79DFD5346002B01D1E30703D565
:10B56000189B581C0300BBE7012325E716ABD877CF
:10B57000FEF76CFF16ABD877FFF714F80C23099A87
:10B5800013600D3B0A93FEF7ACFD16AA2E239446DA
:10B5900063445CE616ABD877FEF785FE16ABD8772A
:10B5A000FEF7DDFD16ABD877FFF77DF8054881463D
:10B5B0006DE716ABD877FEF779FF01235B429A4619
:10B5C000C4E7C046643001001C3001002030010097
:10B5D000F0B54E464546DE465746E0B5CE4C0E0029
:10B5E000A54407930C23C95E80239B018046194222
:10B5F00005D10B43B381716EC84B0B4073660023BA
:10B6000014000993059308932378621C0027119373
:10B610009246002B29D0FCF719FB0825119BC01876
:10B62000427815402BD07368082445460DE0FCF79E
:10B630000DFB32681378C01843781C420DD0736834
:10B640000132013B013773603260002BEFDC3100C7
:10B65000280005F0A3FC0028E9D0A846544623782A
:10B66000621C11939246002BD5D10898AD239B0004
:10B670009D443CBC90469946A246AB46F0BD252B66
:10B6800016D1637800249B46002399460133049326
:10B6900004205B460222A346544601340394782BCF
:10B6A00000D9D5E09E499C000C59A746039B9A46B9
:10B6B0007368002B01DC00F064FD52463368013AE8
:10B6C00011781A789142D0D172680133013A7260D0
:10B6D000336001375446C2E75546831C01D000F061
:10B6E0001AFE7368002B01DD00F02AFC3100404691
:10B6F00005F054FC002801D100F022FC002D01D1FE
:10B7000000F02AFC089B002B02D0B3895B06ACD565
:10B7100001235B420893A8E7824B5C460993002310
:10B72000059303339B467368002B27DD4B465B066E
:10B730002DD408239A4601E001323260FCF786FAE4
:10B74000514632681378C018437819421FD0736885
:10B750000137013B7360002BEEDC3100404605F001
:10B760001DFC0028EAD0CDE75C466F4B09930A2305
:10B770000593073B9B467368002BD7DC310040469E
:10B7800005F00CFC0028BDD14B465B06D1D55B46CD
:10B79000022B00D126E300DC1BE25B46032B00D129
:10B7A0008AE2042B00D05BE24046FCF75FFAAE224F
:10B7B0000021036852000C93631E0D91934204D93B
:10B7C0005E3CFF3C0D945E24FF34F0234A46DB00D0
:10B7D0001A43002304930E930F9306930B9354ABD9
:10B7E0009B460A93514B91469A462B003D005F467B
:10B7F0009B46326811780B002B3BDBB24E2B00D9F5
:10B80000D6E150469B00C3589F4602235C469B46A8
:10B8100089E75C4688234A469B001A43424B91467F
:10B820000993102305930D3B9B467CE753465B78B9
:10B830006C2B01D100F0D0FC4946049C2143894681
:10B8400003998A46544601340394782B00D829E79B
:10B850005C469B46FCF7FAF90323584442781340B0
:10B86000012B00D10AE32F4B80E75C462E4B099356
:10B8700008230593053B9B4655E7039B9A464B4699
:10B88000DB0600D5EAE64B465B0701D500F0E2FC9B
:10B890004B46DB0700D50EE34B469B0700D40AE37B
:10B8A0000799FA170B6854461F605A600B0004335F
:10B8B0000793D4E64B4603439946534603995B7876
:10B8C0008A46E9E65C46174B50E740234A461A434E
:10B8D00000235C4691469B4625E714AB180003996C
:10B8E00005F0B6F840234A461A433F3B5C460390B6
:10B8F00091469B4617E75C4680238CE74A46012326
:10B900001A435C469146B1E74B461343D4E7042300
:10B910005C469B4607E7C0464CFDFFFFFFDFFFFF8D
:10B9200074300100F50B0100BD9D0000583201008C
:10B9300001234A461A435C469146C54B16E75946D1
:10B940008C00302149425C448B466400E3189B44E0
:10B95000534603995B788A469EE64B4610210B437B
:10B96000AAE7049B5B44002B11D14846B94B184011
:10B970008146397001377368013C013B01357360C2
:10B98000002B23DD01323260002C00D031E75B4612
:10B99000BB462F001D00069B002B56D051E24B46A4
:10B9A000DB05DED5802349469943069B8946013352
:10B9B00006930D9B002BDED0013B0D937368013481
:10B9C000013B013C01357360002BDBDC310040465C
:10B9D00005F0E4FA0028D7D0D9E78023484603428F
:10B9E000D5D098438146C4E75B46062BD0D10723C8
:10B9F0009B46BEE7049B002B00D021E1069B002B59
:10BA000006D1E0234846DB001840984200D1DBE332
:10BA10005B46012B01D0042BB9D15B460133DBB26D
:10BA20009B46A6E75B46002B00D0FFE0069B002B61
:10BA300000D002E2E0234846DB001840984200D1E3
:10BA4000BAE35B46BB462F001D00049B013B012B64
:10BA500001D800F063FC6B1E062B20D8022D01D804
:10BA600000F06EFC032D1AD0043DEDB2EC43330020
:10BA70005C44AA4646462500B8465C461F00013C89
:10BA800021783A00300005F047FAA542F7D13B0093
:10BA900047465546B046A3461E00013F7F1B4B4616
:10BAA000DB0519D54B465B0501D500F05BFC5B4619
:10BAB0005C1E21787D1E652908D0452906D03200FC
:10BAC0004046013C05F028FA2178BD1E3200404670
:10BAD00005F022FA2F00A3464A4610231340039A8A
:10BAE000924600D0BAE55A461370C0234A46DB009E
:10BAF00013408022D200934200D189E30F9B002B98
:10BB000000D0C0E100220A994046FEF78FF84B466C
:10BB100004000D00DB0703D44B469B0700D498E1DB
:10BB2000079A13681C605D60130004330793089B39
:10BB300001330893039B9A46544690E55B46022BDB
:10BB400000D025E703239B4613E7A0234846DB00EC
:10BB500003408020C000834207D04B46034200D1FF
:10BB600015E7069B002B00D16BE780204B46800039
:10BB7000034204D1069B0B980E971B1A0F9348465D
:10BB8000354B18400300C020400018430023814675
:10BB90000693EEE6049B012B00D0F8E60223049303
:10BBA000E7E65B46072B00D0F2E608239B46E0E67B
:10BBB0000C9B1B788B4200D0E9E680204B4680002E
:10BBC000034200D1E3E6254803409946069B0B93C8
:10BBD000CFE6012B44D1002C00D1013C4B46DB06C3
:10BBE00000D4C1E114AB00259A463268514613785F
:10BBF000CB5C002B15D073680132013B01357360BB
:10BC00003260AC4210D0002BF0DC3100404605F031
:10BC1000C5F9002808D1514632681378CB5C002B57
:10BC2000E9D1002D00D120E57F1983E75B46FD2097
:10BC3000033B034200D0AAE60433DBB29B4698E6FE
:10BC4000049B022B00D0E3E60323049391E6C04655
:10BC5000F50B01007FFEFFFF7FF8FFFF7FFDFFFF79
:10BC6000002C00D101344B46DB0700D5AAE14B463E
:10BC7000DB0600D42FE243460025B8461F000CE047
:10BC80003268ED189446E41A63443360310038009A
:10BC900005F084F9002800D014E27368A342EFDBBA
:10BCA0001B1B736033683A009C4647462D19644459
:10BCB000904634607F193DE7AE220021631E52009A
:10BCC0008B46934204D9CB4B9B46A3445E24FF345E
:10BCD000D8234A461B011A4300239A4654AB0A93C1
:10BCE0001D003B0017009946326811780B002B3B72
:10BCF000DBB24D2B1DD8C0489B00C3589F46C023C4
:10BD00008020DB003B408000834212D1BB4B1F40B0
:10BD1000A023DB001F431023059373682970013BA8
:10BD200001357360002B49DD01323260013C002C8B
:10BD3000DAD14B46B9461F004B46DB0507D50A9BB7
:10BD40009D4200D931E20A9B9D4200D18DE410232F
:10BD50004A46134000D1B7E00A9BED1A55447F19BB
:10BD6000E8E6059B0A2BE4DDA54B1F40D5E7059BC4
:10BD7000A4485B001B5E0593A14B1F40CDE73B052C
:10BD8000CBD5059B002B05D180239B001F43F93B9E
:10BD9000FF3B05937B0559D49B4B1F405B46002B13
:10BDA00004D001235B429C460134E34401239C46BA
:10BDB0007368E244013B7360002BB5DC3100404600
:10BDC00005F0ECF80028B1D0B3E7059B8D485B0087
:10BDD0001B5E0593082BC7DCABE780233B42A8D052
:10BDE0009F439AE7002C00D1013C01254B461D40A2
:10BDF00000D093E04B46DB0600D483E1082399464C
:10BE0000FBF724FF494633681A78801842781142BC
:10BE100000D009E772680133013A0135726033607E
:10BE2000AC4200D100E7002AEADC3100404605F0D0
:10BE3000B5F80028E4D07F197CE65B46BB462F00AE
:10BE40001D004A46714B1A409146FEE5704B1F405B
:10BE500063E7079B1A1D1B689246994602000B0078
:10BE6000FBF79CFC002800D08EE220002900FBF7A5
:10BE7000B5FD4B4618605346079358E64A461A43A9
:10BE80009146644B72E40E9B0022591C40460A23E3
:10BE900004F0B0FE0F9BC21A0EA98C465E4B0E99A1
:10BEA0006344994202D35D4B63440E935C490E9800
:10BEB000FCF7BAFD26E6079A544613681F60130084
:10BEC00004330793FFF7CBFB2B700022059B0A99E5
:10BED0004046099CA0474B469B0600D55BE14B467C
:10BEE0005B0700D5C6E14B46DB0700D553E14B4667
:10BEF0009B0700D44FE14B4B099A9A4200D1B2E123
:10BF0000059B00220A99404604F064FF079A1368D3
:10BF10001860596013000433079342E112AB082202
:10BF2000180000210693FCF703FA10234A461A4032
:10BF300011AB93469946002A00D17FE100231D00F2
:10BF4000FBF784FE082233681B78C01843781A4236
:10BF500002D1002C00D094E15B46002B00D0E9E533
:10BF60004B465A461A60E2E5079B013C1A1D1B68C6
:10BF7000934699461A004C4414ABBA461D0027005C
:10BF800033681978695C002900D13EE17168541C5E
:10BF900001397160591C31601B781370BA4200D1AD
:10BFA00024E17368002B01DD2200E9E731004046FF
:10BFB00004F0F4FF0028F7D05746A14500D016E161
:10BFC000FFF7A0FB12AB0822180000210693FCF734
:10BFD000AFF910234A461A40049200D124E100230D
:10BFE0009B46002C00D1A5E5069BB94600252700FD
:10BFF0009A462AE0A3FEFFFF94330100FFFDFFFFF6
:10C000007FF4FFFFD43401007FFCFFFFFFFEFFFF42
:10C010007FFAFFFFF50B01006B0200006A020000CF
:10C02000CC340100BD9D0000049B002B46D15A4634
:10C03000A1441360013F04239C460025E344736838
:10C04000002B2FDD002F00D1FEE0FBF7EBFDA84217
:10C0500001D1FFF757FB8C20336840001A78013379
:10C06000336053460EA909184A5572686C1C013A90
:10C0700072605946009354AA2300404603F064FFBF
:10C08000431C01D1FFF73EFB0028CDD02500831CC7
:10C09000D5D0049BA144013F0025002BCBD0736871
:10C0A000002BCFDC3100404604F078FF0028C9D0D7
:10C0B0004F46002D00D1C8E0FFF724FBA144013F0B
:10C0C0000025BCE73B0047469846002D01D1FFF70D
:10C0D00019FB7F192EE5079B012219681D1D00968B
:10C0E0002300404604F07AFF002801D1FFF70AFB45
:10C0F000089B3F1801330893039B07959A465446C3
:10C10000FFF7ADFA079BB9461A1D1B68013C9A461A
:10C1100006931D0008239B460492A244FBF796FD5C
:10C12000594633681A7880184278114279D172687A
:10C130006C1C013A72605A1C32601B7827002B700D
:10C1400055450AD07368002B01DD2500E6E7310074
:10C15000404604F023FF0028F7D04B46B9461F00A5
:10C1600000234A4613704B46069A9B1AFF18089BF9
:10C1700001330893049B0793039B9A465446FFF7A9
:10C180006EFA3100404604F009FF002801D1FFF7A4
:10C1900094FAFFF7B7FA079A13681860130004338C
:10C1A0000793089B01330893D6E5013D29783200B7
:10C1B000404604F0B1FEC6E54846784B18400123DE
:10C1C00081469B46FFF7D5FB4846744B1840012338
:10C1D00081460493FFF7CDFB4B460221134399465A
:10C1E0008C465346E2449B78FFF756FA57464B4637
:10C1F000E51A01D1FFF739FA00232370089B7F1954
:10C20000013308935B46079394E457461400EEE726
:10C21000069B0B9A9A1A00D174E45B4652420E9325
:10C220003AE64F46A9469BE7079A13001268043383
:10C2300093460793002C00D0D6E678E4079B1A6853
:10C2400004339146079379E64F46049B002B00D1B7
:10C250006DE46FE4079B54461A6804330392178019
:10C260000793FFF7FCF9059B00220A994046FDF76A
:10C2700099FE4BE6079B1A680433049210800793DB
:10C280008FE7FBF7CFFC854201D1FFF73BFA8C200B
:10C290006B1C9A46336840001A780EA909184A5553
:10C2A000013372683360069B013A7260494600931D
:10C2B00054AA5346404603F047FE431C01D1FFF702
:10C2C00021FA002801D0FFF707FA4B46186003F067
:10C2D0009BFD051E12D05546002D00D13CE644467C
:10C2E0008C220EAB5200013D9B18595D320020009C
:10C2F00004F012FE002DF3D1A0462DE65B46574414
:10C30000013C002B01D0FFF7ECF904339C465D465D
:10C31000E144FFF7E6F94B461868D8E70A9B9B45CE
:10C3200001D8FFF7A2F95C464546013C217832006E
:10C33000280004F0F1FD0A9B9C42F6D1FFF795F925
:10C340000A9B5C4645469B4501D8FFF78EF9013CA8
:10C3500021783200280004F0DFFD0A9B9C42F6D1D0
:10C36000FFF783F90A9B9B4501D8FFF77EF95C46EE
:10C370004546013C21783200280004F0CDFD0A9B9F
:10C380009C42F6D1FFF771F9002004F097FB4B4671
:10C39000186053460793FFF7CAFBC0467FF8FFFFBC
:10C3A000F0B5DE464E4645465746E0B5C3B0894631
:10C3B00014001D000F9306000690FBF757FC03685E
:10C3C00018001893FCF716FC1790002E04D0B36BDE
:10C3D0000793002B00D1A7E04B465B6EDB0778D4B8
:10C3E0004B460C21595E8BB29A056ED58022920184
:10C3F000134209D10A434B4649469A81496ECC4BB8
:10C400000B4049464B6693B21A0767D54A461269F4
:10C41000002A63D01A221A400A2A00D188E032ABDF
:10C4200025930023CB4625AFBB607B600794149314
:10C430001693159332AE19931A930A93079C237897
:10C44000002B01D100F09EFD252B03D100F09AFDB9
:10C45000252B03D001342378002BF9D1079BE51A53
:10C4600010D0079B75603360BB685B19BB607B684D
:10C4700001337B60072B4CDC08360A9B9C46AC449E
:10C4800063460A932378002B01D100F099FC631CCA
:10C490000793002316AAD377012252429246002224
:10C4A0000B92203291462032637800210020002434
:10C4B0009446079A013207921A00203A582A00D966
:10C4C000E7E29C4D9200AA5897464B46986D03F0C0
:10C4D000ABFC4B460C21595E8BB287E74946069868
:10C4E00001F08EFB4B4600283AD05B6EDB0705D48B
:10C4F0004B469B899B0501D400F0CFFF01235B4293
:10C500000A930A9843B03CBC90469946A246AB4673
:10C51000F0BD3A005946069804F02CFE002801D0E0
:10C5200000F0CEFC32AEA8E7069802F069FD53E7B2
:10C530004A460E21525E002A00DA70E74A46526EE1
:10C54000D20705D49B0503D44B46986D03F06EFCCF
:10C550002B0022004946069801F08EFA0A90D0E797
:10C560009B8957E70B9B0F925B420B9304231C4361
:10C57000079B1B789DE7079B01211B782B2098E7E1
:10C58000079B5A1C1B7890462A2B01D101F038FAE0
:10C590001A000025303AAA46092A01D901F06DF99E
:10C5A00025004346544688468246A1000C19187857
:10C5B0006400A4180200591C303A0B00092AF4D96F
:10C5C0000791030041465046A2462C0074E712939F
:10C5D000002901D001F02EFA574B1993A30601D57B
:10C5E00000F09AFEE30601D500F09AFD630601D43F
:10C5F00000F096FD0F9B1A880C92002204330D92D6
:10C600000F93E30701D400F076FD0C990D9A0B000F
:10C6100013431A000223002A08D030201EA90870F4
:10C6200048256846401900781C4348700021884618
:10C6300016A8C1775146013100D1E6E080212000E3
:10C6400088430990002A00D0E3E05246002A01D036
:10C6500000F038FC002B01D000F00CFD012032ABC3
:10C6600020400E90119308D02723302128AAD154BE
:10C6700016AA944648336344119353460E9A08937E
:10C68000924500DA0892002313934346002B02D010
:10C69000089B013308930223099A1A40914602D05D
:10C6A000089B023308938423099A1A40109200D001
:10C6B00007E20B9B089A9C1A002C00DC01E21F4940
:10C6C000BA687B688846102C21DD310010255E4653
:10C6D00003E0103C0831102C17DD404610320133C6
:10C6E00008604D60BA607B60072BF2DD3A003100D4
:10C6F000069804F03FFD002801D000F0CFFC103C6C
:10C70000BA687B6832A9102CE7DCB3460E004146BC
:10C7100074600133A4183160BC607B60072B01DDBD
:10C7200000F0AEFC16ABDB7F08369846CAE1C04687
:10C73000FFDFFFFFF8340100383001005C360100F4
:10C740000022079D303BA8460B921A0008942C004B
:10C7500055468246404688461100002293009A18AA
:10C76000037852008A181900013430392000092951
:10C77000F4D907945046089C0B924146AA469BE682
:10C780000F9A12931368202108936B465B181B784D
:10C7900028AD2B70002316A9CB77130004330F9319
:10C7A000002309949846013308930E9300231195B2
:10C7B0009A4613936FE71293002901D001F04DF9C7
:10C7C0000F9AA30601D500F05AFDE30601D500F04B
:10C7D000ABFC630601D400F0A7FC0021535E0C9370
:10C7E0000432DB170D930F92002B01DA00F0B2FD3B
:10C7F0000C990D9A0800514616ABDB7F1043984602
:10C8000002000123013100D018E7002A00D15AE3C9
:10C810000994012B01D100F006FC022B00D080E32B
:10C82000199C0F20A146B44632AB19000C9A0D9BFF
:10C8300004004D4614402C5D1E07150901392E4396
:10C840000C701C092300340032001C43F0D10C9200
:10C850000D9332AB5B1A119166460E930DE763465A
:10C860001C43079B1B7824E6079B1B786C2B01D18C
:10C8700000F08CFE102214431BE6002901D001F0C9
:10C88000D5F8A30601D500F076FEE30600D510E149
:10C89000630600D40DE169460F9B098D1A680433C5
:10C8A000089211800F93C9E50F9930220B680C9301
:10C8B00000230D9302331C431EAB1A7048325A708A
:10C8C0000B0004330F93C14B129219930C9A02235D
:10C8D000ACE64B461C43079B1B78EAE512930F9B83
:10C8E00016A91D1D1B681A0011930023CB77002A7F
:10C8F00001D100F001FF5346013301D100F064FE85
:10C9000052460021119803F051FB002801D100F09C
:10C9100078FF119BC31A1A000E93DB43DB171A40F2
:10C9200016ABDB7F0892984600230F9509949A4630
:10C930001393AAE608231C43079B1B78B9E51293BF
:10C9400010231C43A30601D500F0A7FCE30600D585
:10C95000EEE3630600D4EBE30F9B1A880C920022EF
:10C9600004330D920F930C9A00235FE61293102369
:10C970001C43A30601D500F0BAFCE30600D5DAE3B8
:10C98000630600D4D7E30F9B1A880C92002204336D
:10C990000D920F930C9A012348E61293002901D0BF
:10C9A00001F057F88A4B199318E601231C43079BA3
:10C9B0001B787EE580231C43079B1B7879E5079B4A
:10C9C0001B78002800D074E50121203071E5129316
:10C9D000002901D001F039F807220F9B0733934358
:10C9E000013294469C4462460F921A6816925B6824
:10C9F00001221593159B169D5B005B0898465242D9
:10CA0000744B28004146FAF7C9FE002801D000F017
:10CA1000B4FC01226F4B524228004146F9F74EF810
:10CA2000002801D000F0A9FC0022002316981599D7
:10CA3000F9F73AF8002801D000F055FD16ABDB7F7E
:10CA40009846129B472B01DD00F0B4FD624B119319
:10CA500080239C437D3B08930E93002309949A46C0
:10CA6000139312E60F9B1A1D1B680B93002B00DA21
:10CA700078E5079B0F921B781BE51293002901D0E4
:10CA800000F0CCFF10231C439AE6129371E7129337
:10CA900058E71293002901D000F0D3FF129B002B1E
:10CAA00000D18DE128AD2B70002316AAD37709940D
:10CAB00078E60F9A0A9913681960130004330F93EC
:10CAC000BCE4BC684346002B0FD016AA1F23944633
:10CAD00063443360012373607B6801340133BC60BD
:10CAE0007B60072B00DD03E208364B46002B0CD0A1
:10CAF0001EAB3360022373607B6802340133BC6079
:10CB00007B60072B00DDFDE10836109B802B00D1F8
:10CB100073E153460E9A9D1A002D32DD2F4A7B6831
:10CB20009146102D22DD1022924622005C4603E041
:10CB3000103D0836102D17DD494631605146103240
:10CB400001337160BA607B60072BF1DD3A00210090
:10CB5000069804F00FFB002800D08AE1103DBA6867
:10CB60007B6832AE102DE7DCA34614004A466419F8
:10CB7000013332607560BC607B60072B00DDADE186
:10CB80000836099BDB0500D5BEE0119B33600E9B88
:10CB90009C4673607B6864440133BC607B60072BF8
:10CBA00000DDA6E00836099B5B074AD50B9B089A77
:10CBB0009D1A002D45DD0A4A7B689046102D2FDD19
:10CBC0001022914622005C4610E0C0463830010039
:10CBD00024300100FFFFEF7F143001006C360100AC
:10CBE0005C360100103D0836102D17DDD14910329A
:10CBF0003160494601337160BA607B60072BF1DD1B
:10CC00003A002100069804F0B5FA002800D030E17F
:10CC1000103DBA687B6832AE102DE7DCA3461400E5
:10CC200042466419013324C6BC607B60072B08DDD3
:10CC30003A005946069804F09DFA002800D03FE1DA
:10CC4000BC680B9B08998B4200DA0B000A9A944649
:10CC50009C4463460A93002C00D029E1002332AEA5
:10CC60007B60FFF7EBFB149B012B00DC03E1119BC6
:10CC700001343360012373607B68BC6001337B60E7
:10CC8000072B00DDEFE20836189A01333260179A5D
:10CC90009846944664447260BC607B60072B00DD5C
:10CCA00018E308360022002316981599F8F7F6FEC7
:10CCB000002800D0F4E1119D149B0135013B356043
:10CCC0007360E41801239C46E0444346BC607B60EB
:10CCD000072B00DDE0E0083621AB33601A9B9C4651
:10CCE0007360434664440133BC607B60072B00DC07
:10CCF00058E73A005946069804F03CFA002800D05C
:10CD0000DEE0BC6832AE4EE7129B652BABDD002245
:10CD1000002316981599F8F7C1FE002800D134E1D8
:10CD2000854B01343360012373607B68BC60013341
:10CD30007B60072B00DDDCE308361F9B149A9342CF
:10CD400003DB099BDB0700D4B7E3189BBA683360A9
:10CD5000179B9C4673607B68624401331400BA6081
:10CD60007B60072B01DD00F019FC0836149B5D1E6B
:10CD7000002D00DC17E7714A7B689146102D00DC1E
:10CD8000C3E11022904622004C46D94604E0083602
:10CD9000103D102D00DC7CE341461032013334603D
:10CDA0007160BA607B60072BF1DD3A004946069856
:10CDB00004F0E0F900280BD1BA687B6832AEE7E7EF
:10CDC000BB68D946002B01D000F04CFD00237B60EE
:10CDD0004B465B6EDB070DD44B469B899A0505D508
:10CDE0005B0601D4FFF78DFBFFF788FB4B46986D80
:10CDF00003F01CF84B469B89F2E70B9B089A9D1A9F
:10CE0000002D00DC85E64D4A7B689146102D24DD1F
:10CE10001022210090465C4632004E4603E0103D51
:10CE20000832102D15DD4046103101331660506078
:10CE3000B9607B60072BF2DD3A002100069804F010
:10CE400099F9002815D1103DB9687B6832AA102DD8
:10CE5000E9DCA346B1460C0016004A4664190133CA
:10CE600032607560BC607B60072B00DD63E20836D2
:10CE70004FE6A146ACE70123099A134200D0F6E63B
:10CE800073607B68119A013301343260BC6098464C
:10CE90007B60072B00DC1EE73A005946069804F039
:10CEA00069F900280CD17B68BC68984632AE13E75C
:10CEB0003A005946069804F05DF9002800D1CDE605
:10CEC000D94685E7099C012B00D148E1022B23D1EB
:10CED0000994002300240C930D94A1E43A005946D0
:10CEE000069804F047F90028EAD1BC6832AE48E65B
:10CEF0003A005946069804F03DF90028E0D1BC6894
:10CF000032AEF2E53A005946069804F033F90028AB
:10CF1000D6D1BC6832AEF8E50994002300240C9306
:10CF20000D940C980D99534632AA91460893B24637
:10CF300007E0C0465C360100202501006C36010088
:10CF4000A1464A0794464B4665465C1EC608072321
:10CF5000CA08354311002A000340303323702800EB
:10CF60000A43EDD10C900D91089956468A460999CD
:10CF70004A461194C90700D5E0E032AB1B1B0E9363
:10CF8000FFF77BFB079CFFF77DFA1F98002800DC6A
:10CF9000B9E2139A1499130090468B4200DD88463B
:10CFA0004346002B0CDD119B4444336043467360C1
:10CFB0007B68BC6001337B60072B00DD89E30836AA
:10CFC0004346DB434246DB171340139AD31A984675
:10CFD000002B00DCEBE0102B01DC00F0D9FCDC4A7C
:10CFE0007B68914610224D46924622004446D84620
:10CFF00004E00836103C102C00DCBFE05146103233
:10D00000013335607160BA607B60072BF1DD3A0057
:10D010004146069804F0AEF8002800D0B6E3BA689E
:10D020007B6832AEE6E70D9B002B00D192E00C9CB2
:10D030000D9D32ABB1461E00200029000A220023BC
:10D04000F8F75AFD013E30323270002320002900EB
:10D050000A22F8F751FD030004000D000B43EBD149
:10D06000320032AB9B1A11960C940D954E460E93DE
:10D07000FFF703FB00230E9332AB1193FFF7FDFA8A
:10D080003A005946069804F075F8002800D017E7D2
:10D0900016ABDB7FBC68984632AE13E5B14697E627
:10D0A000149B5D1E002D00DC16E6A94B9946102D41
:10D0B00000DC0AE1102322009A465C46434604E065
:10D0C0000836103D102D00DCFCE049463160514629
:10D0D000103201337160BA607B60072BF0DD3A00DB
:10D0E0002100069804F046F8002800D0C1E6BA688E
:10D0F0007B6832AEE5E70C990D9A080010430223D5
:10D100000200FFF793FAA34614004A46641901335C
:10D1100032607560BC607B60072B00DC42E5E8E5AF
:10D120000F9B1A68FFF768FA13680893FFF757FB1D
:10D130000F9B1A6812E40F9B1A6826E4302B00D16B
:10D140003CE23023023A137032AB9B1A0E931192D9
:10D15000FFF793FA0C9B092B00D968E7099C27225B
:10D160000C9B28A930338B54012316AA94460E93A6
:10D170006E33634409941193FFF77FFAC346A946BF
:10D18000A04614004A46326042464444013372606D
:10D19000BC607B60072B00DC8DE13A0059460698A5
:10D1A00003F0E8FF002800D08AE6BC6832AE1F9B7F
:10D1B000149A934200DB79E1189A3260179A9446E8
:10D1C00072607A6864440132BC607A60072A00DDCC
:10D1D00076E10836149A1399D31A521A90469A4255
:10D1E00000DD98464246002A0FDD1399119A8C46BD
:10D1F00062443260424672607A6844440132BC60E4
:10D200007A60072A00DD89E208364246D543ED17E9
:10D2100015405D1B002D00DCC5E44D4A7B6891463E
:10D22000102D00DC71E71022904622005C4604E0DD
:10D230000836103D102D00DC65E749463160414657
:10D24000103201337160BA607B60072BF0DD3A0069
:10D250002100069803F08EFF002800D009E6BA6886
:10D260007B6832AEE5E73A005946069803F082FF44
:10D27000002800D024E6BC687B6832AE04E50723B2
:10D2800007329A4301339C46944463460F93536894
:10D2900012680D930C92FFF7A7FA07220F9B073332
:10D2A0009343013294469C4462460F921A685B682D
:10D2B00011001A00080010430C910D920023020087
:10D2C000FFF7B4F9A346984614004B4675603360E7
:10D2D0006419F7E43A005946069803F04BFF00281A
:10D2E00000D0EDE57B68BC68984632AEDAE40722F0
:10D2F0000F9B07339343013294469C4462460F923E
:10D300001A685B6811001A00080010430C910D9216
:10D3100001230200FFF78AF907220F9B073393438B
:10D32000013294469C4462460F921A685B680C92E4
:10D330000D93FFF766F93A005946069803F01AFF75
:10D34000002800D0BCE5BC6832AEFFF7E2FBC04667
:10D350006C3601000C980D99002342428B4111005C
:10D360001A002D2316A8C377080010430C910D92C4
:10D37000984602002C3BFFF75DF91699159D0A00AF
:10D3800008002B002900FAF709FA002800D0C6E2AD
:10D390005346013300D19FE02023129A9A430E9204
:10D3A000472A00D1A1E180235B0023430993159B09
:10D3B000002B00DAEDE1169A0893002391461093B2
:10D3C000129B662B00D1B8E1462B00D137E20E9AB2
:10D3D0000698453A13005942594120AB0D0003937A
:10D3E0001FAB0293022323AA55441B92049200937D
:10D3F0000195089B4A4600F03DFD129B1190672B5A
:10D4000000D00BE2119B9846A844E30700D477E2D2
:10D410000023002248460899F8F740FB43460028BD
:10D420000AD1239B434507D2302140465A1C239200
:10D430001970239B9842F9D8119A9B1A14930E9B4A
:10D44000472B00D1D0E0129B652B00DCD5E2129B6C
:10D45000662B00D1C6E11F9B1393149B139A1900EE
:10D46000914200DDA0E1E30700D542E2D343DB17A0
:10D4700011001A40672308920E911293109B002B03
:10D4800000D0A9E016ABDB7F984600239A46FFF751
:10D49000FCF8CB46A146140037E64B46986D02F0E7
:10D4A000C5FC01235B420A93FFF72BF8099AD207C8
:10D4B00000D48FE680E6083679E6BC68FFF773FB98
:10D4C0003A005946069803F055FE002800D0F7E4CC
:10D4D0001F9BBC6832AE7DE62023129A9A431A3B0A
:10D4E0000E929A465FE72D2316AAD3779846FFF748
:10D4F000A8FA3A005946069803F03CFE002800D0EE
:10D50000DEE432AE19E4E34B01343360012373608F
:10D510007B68BC6001337B60072B00DD55E108367A
:10D52000002807D1149B002B04D1099BDB0701D4F1
:10D53000FFF739FB189B3360179B191973607B68E1
:10D54000B96001337B60072B00DDC4E13200083293
:10D55000002800DA95E111980133106014987B607F
:10D5600044185060BC60072B01DDFFF7C2FB083296
:10D570001600FFF718FB0F990A9A0B681A60D2176A
:10D580005A600B0004330F93FEF758FF4B46079A7F
:10D590001C43013213780792FEF78BFF3A0059467D
:10D5A000069803F0E7FD002800D089E4BC6832AE9D
:10D5B000FFF7DCFBB84B1193FFF74AFA119A32AB35
:10D5C0009B1A0E93FFF759F81198FBF713FB020013
:10D5D0000E900300FFF7A1F92D2316AAD3779846E2
:10D5E00000239A46FFF754F81F9B1393DA1C02DBC3
:10D5F0009A4500DB31E7129B023B12932C22139BCE
:10D6000048215D1E16AB9B186A46521812781F956A
:10D610001A70002D00DACBE12D212B2316AA521807
:10D620001370092D00DC6DE116AA3B239446634478
:10D630009A46B146A046564600E0260028000A2138
:10D64000F8F716FA741E3031217028000A21F8F715
:10D6500029F905000928F0DC23004446B0464E466F
:10D66000994603003033D8B24346023B18709A45BE
:10D6700000D8F6E142461B9B4546991A0123073123
:10D680005B4201E0E85C013321AAD218D0708B42E2
:10D69000F8D116A98C462E224B4662449446FB1ABA
:10D6A000634421AA14999B1A9C460A0062441A9367
:10D6B0000E92012900DC70E1179A0E9B9446634498
:10D6C0001A000E93DB43DB171A40002308921393D2
:10D6D000D4E63A005946069803F04CFD002801D0E4
:10D6E000FFF7EEFBBC6832AE6AE45346002B00D075
:10D6F00059E601339A4656E653460893062B01D95C
:10D7000006230893089B0F950E93002398469A468C
:10D710001393624B09941193FEF7BDFF3A005946EB
:10D72000069803F027FD002801D0FFF7C9FB149BE2
:10D730001F9ABC689B1A32AE67E523AB1B93049318
:10D7400020AB03931FAB02935346019303234A4636
:10D7500000930698089B00F08DFB03005344984605
:10D7600055461190119B1B78302B02D01F9B98447B
:10D770004EE60022002348460899F8F78FF9002862
:10D78000F4D101235B1B1F93984441E6C146FFF788
:10D790001FFB802212069446169B9946159B6344F4
:10D7A00008932D2310930BE6179A149B9446139A13
:10D7B00063440E93002A00DCE3E01A00DB43DB172E
:10D7C0001A4067230892129358E63A005946069881
:10D7D00003F0D0FC002801D0FFF772FB1F98BC6853
:10D7E00032AE9DE61F9B1393002B00DCF2E0524605
:10D7F000002A00D0A0E0E20700D59DE008930E9338
:10D800003CE616ABDB7F0F959846534608930E9384
:10D81000002309949A461393FEF737FF119B98460D
:10D82000129BA844472B00D0F2E5E30700D4DCE0CC
:10D83000119B9846129BA844462B93D0E8E523AB56
:10D840001B93049320AB03931FAB029353460193A6
:10D8500003234A4600930698089B00F00BFB5546AD
:10D860001190E5E73A005946069803F083FC00283A
:10D8700001D1FFF7ABFAFFF7ABFA42460792FEF78A
:10D880001BFE4442103000DBD8E00548102605009E
:10D890000CE0C04620250100183001004C3001008A
:10D8A0006C3601000832103C102C51DD1031013370
:10D8B00015605660B9607B60072BF3DD3A0059466E
:10D8C000069803F057FC002801D0FFF7F9FAB96871
:10D8D0007B6832AAE7E73A005946069803F04AFC0B
:10D8E000002801D0FFF7ECFA1F98B9687B6832AACC
:10D8F0002EE6179A139B944663441A000E935DE735
:10D90000239B99E52E21302316AA521813702B0061
:10D9100016AA013130335218137022ABC1E6159BA1
:10D92000002B52DB16ABDB7F9846129B472B48DC63
:10D930004E4B1193FFF78CF8179A139B9446634450
:10D9400053441A000E93DB43DB171A40089295E507
:10D95000A94648460919013310605460B96008327D
:10D960007B60072B00DCF6E53A005946069803F089
:10D9700001FC002801D0FFF7A3FAB9687B6832AA3E
:10D98000E9E50E9B139A981A431C1A000E9315E7AB
:10D99000374A7B689146FFF7F5FB01232340139339
:10D9A00000D089E60E9AD343DB171A40089265E54A
:10D9B0000123139A1B399D1A16AA2C33521813707F
:10D9C0002FE62C4B1193FFF743F82D2316AAD3779C
:10D9D0009846AAE75346002B01D1E30703D5179BCE
:10D9E000581C0300ACE7012308E7239B119A9B1AFC
:10D9F00014930E9B472B00D1F6E51F9B1393FDE577
:10DA00000F9B1D1D1B68A8469A46002B0ADB454646
:10DA1000079B0F955B780792FEF74BFD16ABD87707
:10DA2000FFF730F801235B429A46F0E716ABD87750
:10DA3000FEF727FF16ABD877FEF7CEFD0C488146E0
:10DA400087E716ABD877FFF729F816ABD877FEF73C
:10DA5000C3FF16ABD877FEF7A5FF16ABD877FEF756
:10DA6000AFFE16AA2E23944663441AE61C3001002A
:10DA70006C36010020300100F0B5150002221E4C6A
:10DA80001F008B89A54493436A4693814B6E060021
:10DA90001993CB8916A8D381CB690C0007934B6AE5
:10DAA00009931AAB009304938023DB000293059340
:10DAB0000023069302F0B4F92A003B0069463000C7
:10DAC000FEF76EFC051E05DB6946300001F03EFAEC
:10DAD00000280ED16B469B895B0603D54022A389A3
:10DAE0001343A381169802F09DF92800034B9D442F
:10DAF000F0BD01256D42EDE794FBFFFF6C040000D3
:10DB000010B50B000349020008688168FEF748FC65
:10DB100010BDC0466C01002030B59BB0009104914F
:10DB200008496D4602910591012182244942E9810B
:10DB3000A4006946AC81FCF747FA0023009A1370F1
:10DB40001BB030BDFFFFFF7F10B504001300034A78
:10DB500010680A002100FFF7DFFF10BD6C010020F4
:10DB600070B51E009AB0812315006A4604009B0020
:10DB70000800938100910491FBF73CF8084B6A463A
:10DB8000089300230C931193013B01900590D381DE
:10DB9000694633002A002000FDF71AFD1AB070BD57
:10DBA000E58A000010B504001300034A10680A005B
:10DBB0002100FFF7D5FF10BD6C010020002904D023
:10DBC000FF2A04D801200A7070470020FCE78A234E
:10DBD000036001204042F7E770B50500080011001E
:10DBE0000022064C22601A00F7F774FD431C00D097
:10DBF00070BD2368002BFBD02B60F9E72C170020A9
:10DC0000334B70B5050018680C00002802D0836BF8
:10DC1000002B3CD00C23E25E93B219070DD521698D
:10DC2000002915D0DA0721D50023A36063690020FD
:10DC30005B42A361002921D070BDD9063FD55B07A7
:10DC400028D4216908231343A3819BB20029E9D179
:10DC5000A0228020920080001A408242E2D021005F
:10DC6000280002F029F9A3892169DBE700229B073C
:10DC700000D46269A26000200029DDD10C22A35EDD
:10DC80001A06D9D540221343A3810138D4E701F005
:10DC9000B7F9BFE7216B00290AD02300403399422E
:10DCA00004D0280001F056FA0C23E25E002323631F
:10DCB00024239A430023216963602160C2E709237A
:10DCC0002B60402301201A43A2814042B4E7C046A2
:10DCD0006C010020034B10B5002B02D0024800F06D
:10DCE00005F810BD0000000081F0000010B5010033
:10DCF00000230022002003F047FA10BD002370B576
:10DD0000064C050008002360F6F7ECF9431C00D030
:10DD100070BD2368002BFBD02B60F9E72C17002087
:10DD2000F0B545468046DE4657464E464246E0B58B
:10DD30000C69126985B00B0002910020944200DD4D
:10DD400090E014229446634499464A46013CA3005D
:10DD5000D6181422424493469B4433681500591C3C
:10DD60005B4618680192F7F713FD031E009042D03E
:10DD7000290000274D460020B146A2463E0004007F
:10DD80009C462F0008000395634604CF15042D0C14
:10DD90005D43120C5A43AD192B0CD21803682D04A5
:10DDA0001904090C0919160C2D0C1204491B120C2C
:10DDB0001B0C9B1A0A149B1809041C14090C1B0445
:10DDC000194302C0B945DFD2039B4E4699465B46D4
:10DDD0001B685446002B0ED15B46019A043B9A42C5
:10DDE00004D306E0043B013C9A4202D219680029A0
:10DDF000F8D043461C610299404602F0E5FB00283A
:10DE00002FDB4F460020009B019D013300932B68C0
:10DE100002CF1A04120C10180A04120C821A090CF0
:10DE20001B0C5B1A11145B1812041814120C1B043F
:10DE3000134308C5BE42EAD20199A3008C4663444D
:10DE40001A68002A0DD1043B0A00994204D306E067
:10DE5000043B013C9A4202D219680029F8D043469B
:10DE60001C61009805B03CBC90469946A246AB4662
:10DE7000F0BDC046F0B557464E464546DE46E0B5D5
:10DE8000016C99B082461D0016001F00002909D0C0
:10DE90000123426C93404A608B6002F03FF90023FB
:10DEA00052461364B846002F37DB0023259A1360CF
:10DEB0004246D64B1A409A4218D000220023300026
:10DEC0003900F7F7EBFD00282FD00123249A1360C7
:10DED000269B002B00D12AE2CD481860013819B0EA
:10DEE0003CBC90469946A246AB46F0BDC94B249A2D
:10DEF0001360002E0BD14346180308D1269BC64859
:10DF0000002BECD003000833269A1360E7E7269B2A
:10DF1000C248002BE3D0C31CF6E70123259A680012
:10DF20001360430898461F00C2E716AB019317AB76
:10DF3000009332003B00504602F08EFC434683467D
:10DF40001A0D00D1D6E13B03B54C1B0B1C43B54B5E
:10DF500030009846169B21009946002390440F9369
:10DF60000022B14BF9F704F9B04AB14BF8F780FE43
:10DF7000B04AB14BF7F738FF040040460D00F9F7FF
:10DF800061FCAE4AAE4BF8F773FE02000B002000B6
:10DF90002900F7F729FF04000D00F9F71FFC002204
:10DFA0000390002320002900F7F77EFD002800D011
:10DFB000B1E20123039C0C93162C10D8A149E30075
:10DFC000C9183200086849683B00F7F781FD00284E
:10DFD00000D11DE32300013B039300230C934B4628
:10DFE00042469A1A002306931300013B049300D57E
:10DFF000A1E2039B002B00DA84E29C460D930023F0
:10E00000049A9946110061440491229B092B00D97E
:10E010008FE10124052B02DD0024043B2293229B87
:10E02000032B01D100F0CEFC01DC00F092FC229B1E
:10E03000042B01D100F040FC01230B93229B052B04
:10E0400001D000F08BFC239A039B944663440E930B
:10E05000013307931D1E01DC00F049FD079B984624
:10E060000023524600215364172D0AD9012204339C
:10E070005B0018001430110001328542F8D253467B
:10E080005964504602F022F85346186443460A90F9
:10E090000E2B00D961E1002C00D15EE110961197A2
:10E0A000039E002E01DC00F025FD32000F21654BA0
:10E0B0000A40D2009B1836111C685D68F30601D433
:10E0C00000F0CAFC604B0E401A6A5B6A1098119906
:10E0D000F8F79AF90323984608900991002E11D079
:10E0E000594F0123334209D09C463A687B6820008F
:10E0F0002900E044F8F7BCFD04000D007610083755
:10E10000002EEED12200089809992B00F8F77CF92F
:10E1100006000F000C9B002B09D00022404B300062
:10E120003900F7F7C1FC002801D000F0C2FD4046DD
:10E13000F9F788FB32003B00F8F79AFD0022434BC9
:10E14000F7F752FE424A0B00944663440890099147
:10E150000993079B002B01D100F050FC039B139304
:10E16000079B12930B9B002B01D100F01DFD129B0E
:10E1700000205A1E334BD2009B181A685B68354941
:10E18000F8F742F9089A099BF8F7F2FF089009910D
:10E1900039003000F9F722FB0400F9F753FB0200C5
:10E1A0000B0030003900F8F7E3FF05000E000A9A73
:10E1B0003034511CE7B21491177033000898099954
:10E1C0002A00F7F785FC002801D000F0FEFD2A00A8
:10E1D000330000201249F8F7CBFF02000B0008982B
:10E1E0000999F7F775FC002801D000F0E7FD129BB4
:10E1F000012B01D100F078FC0A9A129B94466344EB
:10E2000098464B461293149B994638E00000F07FE5
:10E21000212501000F270000803701008C37010005
:10E220000000F03F01FCFFFF0000F83F61436F6317
:10E23000A787D23FB3C8608B288AC63FFB799F501F
:10E240001344D33FB83801009038010000001C404F
:10E250000000C0FC0000E03F2A0033000020B94964
:10E26000F8F786FF089A099BF7F71EFC002801D0F3
:10E2700000F074FDA146444501D100F033FC08983C
:10E2800009990022B04BF8F7F3FC0022AE4B08903E
:10E29000099128003100F8F7EBFC0D000400F9F7B4
:10E2A0009DFA0700F9F7CEFA02000B0020002900C2
:10E2B000F8F75EFF4B463037FFB25C1C1F70089AC0
:10E2C000099B05000E00F7F7EFFB0028C4D0139B55
:10E2D00003935946504601F021FF00232370039B0E
:10E2E000249A01331360269B002B00D1A8E31C6005
:10E2F0000A98F4E5169B9946179B4B441C00934BD8
:10E30000E318202B00DC7EE13100914A4046A21840
:10E31000D1400A004021CB1A98401043F9F7D4FAB3
:10E32000631E984601238B4D0F93491918E68A48BE
:10E33000D5E50023524600215364504601F0C6FE45
:10E340005346186401235B4207930E930233002265
:10E350000B9300230A9023922293179B002B00DA41
:10E36000ABE0039A0E2A00DDA7E07C4BD2009B189D
:10E370005C681B6804930594239B002B00DAA7E2DA
:10E38000049C059D300022002B003900F8F73CF872
:10E39000F9F724FA8046F9F755FA22002B00F8F72E
:10E3A00067FC02000B0030003900F8F7E1FE43463D
:10E3B0000A9A30331370079B06000F00541C012B80
:10E3C0004ED00022604BF8F753FC002200230600D9
:10E3D0000F00F7F763FB002800D07AE70A9B079A43
:10E3E0009D1C9C465B46069353466244AA46049C89
:10E3F000059D914607930FE00022534BF8F738FC38
:10E4000001239C460022002306000F00E244F7F798
:10E4100045FB002800D0D9E222002B003000390053
:10E42000F7F7F2FFF9F7DAF98046F9F70BFA22006D
:10E430002B00F8F71DFC02000B0030003900F8F744
:10E4400097FE53464246013B303206000F00D3464A
:10E450001A70D145D0D1069B54469B46079B9A46DD
:10E4600032003B0030003900F7F7BEFC06000F0019
:10E4700002000B0004980599F7F716FB00280CD151
:10E480000498059932003B00F7F708FB002800D1FB
:10E490001FE74346DB0700D41BE7651E2F780A9B66
:10E4A00006E09D4200D151E3023C27782C00013D5B
:10E4B000392FF6D001372F700BE70B9A002A4FD077
:10E4C000229A012A00DC2CE2079B5C1E4B46A145E8
:10E4D00000DAB8E21C1B079B002B00DAD4E3069B92
:10E4E0000893079B069A012194469C446246069233
:10E4F000049A504694469C446346049301F0F0FE0F
:10E50000804632E0069A039BD21A5B42994600236A
:10E5100006920D9379E50398F9F794F90B00020040
:10E5200029002000F7F7BAFA020050425041039B3D
:10E530001B1A03933DE501239B1A069300230493C2
:10E5400057E5C0460000F03F0000244032040000C0
:10E5500012040000000010FE20250100B838010060
:10E56000069B4C4608930023984608990B1E0EDD27
:10E57000049A002A0BDD934200DD87E1069AD21A45
:10E580000692089AD21A0892049AD31A04934B4618
:10E59000002B1AD00B9B002B00D1BBE1002C10DD0F
:10E5A00041462200504601F04FFF5A460100804686
:10E5B000504601F09FFE05005946504601F0AEFD61
:10E5C000AB464B461A1B00D0A5E10121504601F095
:10E5D00087FE0D9B8146002B1DDD1A000100504671
:10E5E00001F032FF229B8146012B00DC50E1002428
:10E5F0004B461B6903339B004B44586801F028FECF
:10E6000020231B1A10E020223000D31A984085E600
:10E6100000230C93E3E4229B0024012B00DC8BE11C
:10E620000D9A0123002AE3D104991F208C466344EC
:10E63000184000D1AEE020231B1A042B00DCCCE3F1
:10E640001C23181A069B9C46844463460693089B29
:10E650009C46844463468C468444089363460493F2
:10E66000069B002B05DD59461A00504601F04CFF71
:10E670008346049B002B05DD49461A00504601F0F5
:10E6800043FF81460C9B002B00D094E0079B002B9E
:10E6900000DC75E10B9B002B00D1A6E0089B002B52
:10E6A00005DD41461A00504601F02EFF80464346E4
:10E6B0000C93002C00D050E2079C0A9A013C2300E6
:10E6C0009446634408930123334007934B460693D3
:10E6D0000C9B574645465E4692469846069B300040
:10E6E00019009946FFF71CFB03000B9030332900FB
:10E6F0003000049301F068FF4946040042463800A8
:10E7000001F07CFFC3688146002B00D01EE10100B0
:10E71000300001F059FF83464946380001F0FEFC05
:10E720005B46229A134303D1079B002B00D106E3DB
:10E73000002C00DAA8E1229B1C4303D1079B002B8D
:10E7400000D1A1E15B46002B00DD82E26946524622
:10E750005346097C5C1C1170089A524500D18AE22C
:10E76000310000230A22380001F0E2FC00230600F9
:10E770000A2229003800454500D1E1E001F0D8FC2B
:10E780004146050000230A22380001F0D1FCA246D0
:10E790008046A3E71C20069B9C4684446346069360
:10E7A000089B9C46844463460893049B9C4684448F
:10E7B0006346049354E74946584601F005FF002894
:10E7C00000DB63E7039B5946013B03930A220023C6
:10E7D000504601F0ADFC0B9B8346002B00D0CAE2F3
:10E7E0000E9B002B00DCD8E207930A9B5D460024B9
:10E7F000079F9B4606E0290000230A22504601F0AD
:10E8000097FC050049462800FFF78AFA5B4630303E
:10E8100018550134BC42EEDBAB460600079C002CC9
:10E8200000DC37E20A9B00279C46644459460122DB
:10E83000504601F069FE4946834601F0C5FE0028B6
:10E8400000DC44E1651E2B780A9A06E0954200D16F
:10E85000B1E0023C23782C00013D392BF6D0013386
:10E860002B704946504601F059FC4346002B00D11D
:10E870002FE5002F05D0474503D03900504601F061
:10E880004DFC4146504601F049FC22E5130075E677
:10E89000002E00D0ABE63B030024002B00D0BFE6E7
:10E8A000BA4B3B4200D1BBE6069B013401330693D1
:10E8B000049B01330493B3E601230B93239B002BAA
:10E8C00000DCD1E01D0098460E930793FFF7C8FBCC
:10E8D000079B002B00DD53E500D0ADE004980599BF
:10E8E0000022AB4BF8F7C4F93B003200F7F7FAF817
:10E8F000002399469846002855D0239B0A9CDB4369
:10E9000003934946504601F009FC4346002B00D1D1
:10E91000DFE4B6E74A465946504601F095FD834686
:10E9200053E60F9A002A00D1B6E19A4A4C46944623
:10E93000069A63440892D5E5002E00D070E6AAE757
:10E9400001F0F6FBA24605008046C7E601239B4680
:10E95000E2E600230B93229B022BAFD00024534608
:10E9600021005C64504601F0B1FB5346186401235A
:10E970005B4207930E9302330A9023940B93ECE4CB
:10E98000229B022B00DC85E6079B002BB5D1494674
:10E990000522504601F0CCFB81460100584601F0AB
:10E9A00013FE0028A9DD31230A9A1370039B541C1F
:10E9B00001330393A5E7039B0A9A013303933123A1
:10E9C00013704EE700230B93FFF73DFB069B5C465D
:10E9D0009B46079B9A467CE44046F8F733FF32009B
:10E9E0003B00F8F745F900226B4BF7F7FDF96B4A4E
:10E9F0000B00944663440890099109930022644BEC
:10EA000030003900F8F7B4FB089E099F32003B0044
:10EA100004000D00F7F75CF8002800D0B2E0802079
:10EA200000068446390061440B00320020002900B2
:10EA3000F7F73AF8002857D00023994698465CE744
:10EA40000A98FFF74CFAE21A0D9BA1469C469444A3
:10EA5000634600240D933EE5109A119B089209939A
:10EA600002239846FFF73AFB0023524600215364E5
:10EA7000504601F02BFB5346186401230A9007937C
:10EA800023930E93FFF707FB43460C935B46069ACE
:10EA9000A846B3465546049E9146BA46002B10DD63
:10EAA00059460122380001F02FFD4946834601F006
:10EAB0008BFD002800DC57E1392E00D122E10B9EAE
:10EAC00031360C9B47466C1C2E709846C9E60028D0
:10EAD00003D1F30701D5B5E61C00631E1A78302A6E
:10EAE000FAD0BEE6129B9946109E119F35E401258F
:10EAF000FFF7B4FA039B002B00D1D4E010981199D2
:10EB00005C420F23264A2340DB00D3181A685B6857
:10EB1000F8F7AEF8241106000F00002C00D149E1EF
:10EB2000022398461F4D0123234209D09C462A68A0
:10EB30006B6830003900E044F8F79AF806000F00DF
:10EB400064100835002CEED1FFF7E4FA039B302760
:10EB50000133039330232B70ACE45968504601F025
:10EB6000B5FA4346414604001B690C319A1C9200D9
:10EB70000C30F9F79BFB01222100504601F0C4FC48
:10EB80000C9099E50023994698460CE70000F07F29
:10EB9000000014403304000000001C400000C0FCD2
:10EBA000B838010090380100129B8F49013BDB000F
:10EBB000C91808684968089A099BF8F759F8149029
:10EBC000159139003000F8F709FE0500F8F73AFE14
:10EBD00002000B0030003900F8F7CAFA129B0890C7
:10EBE00009910A991A008C46303562444C1C0D700C
:10EBF0009046012B1BD008980999250000227B4BD9
:10EC0000F8F736F80F000600F8F7E8FD0400F8F70B
:10EC100019FE303402000B0030003900F8F7A8FA72
:10EC20002C700135A845E9D1444608900991149803
:10EC3000159900226E4BF7F7D7F8089A099BF6F75B
:10EC400033FF002867D0139B651E03932F780A9B20
:10EC50002EE44346B3460C93049E069BA846994671
:10EC60005546BA46392E4DD00C9B013647466C1C92
:10EC70002E709846F5E54246069BB346BA46049E7A
:10EC800099462F009046D1E5069B079A9B1A089358
:10EC9000002327E40124C5E53623169A4C469B1A27
:10ECA000069A08921EE40223109E119F9846FFF7D1
:10ECB00031FA079B002B00D18EE60E9C002C00DC65
:10ECC00012E7039B0022013B13933000474B3900AE
:10ECD000F7F7CEFF060040460F000130F8F7B2FD0F
:10ECE00032003B00F7F7C4FF0022424BF7F77CF8F5
:10ECF000414A0B0094466344089009911294099389
:10ED0000FFF730FA39232B700C9B47466C1C984652
:10ED10000A9A3923A1E5149A159B00203449F8F783
:10ED200027FA089A099BF6F7D3FE002801D1DBE603
:10ED30001C00631E1A78302AFAD0FFF7C8FA43463F
:10ED4000B3460C93049E069BA84699465546BA4680
:10ED5000392ED7D0002C00DDB1E6B2E6139A4D462D
:10ED600003920A9BFFF7A4FB002800D0A9E6F30753
:10ED700000D4A6E6A0E6002341460A22504601F050
:10ED8000D7F90E9B8046002B01DD079386E4229B7A
:10ED9000022B1FDC0E9B079380E4229B022B19DCC5
:10EDA0004946FEF7BDFF0A9B303018700E9B0600E7
:10EDB000079333E502239846FFF7ACF9139B149CA5
:10EDC00003930A9B1D00FFF773FB139B149C039393
:10EDD000FFF77FFA0E9B0793D6E5042B00D13FE4A3
:10EDE0003C23181AD7E4C046B8380100000024407C
:10EDF0000000E03F00001C400000C0FCF0B5C6462B
:10EE000000B50C23CA5E804693B20C00190740D4AB
:10EE100080231B0113436268A381002A00DC70E099
:10EE2000A66A002E31D042464146156800229BB2A8
:10EE30000A60DA0400D469E0226D5B0706D56368D6
:10EE4000D21A236B002B01D0E36BD21A0023E169A5
:10EE50004046B047431C3DD0A3893A4A13400022A4
:10EE6000626022691BB2A3812260DB0447D443465F
:10EE7000216B1D60002908D023004033994202D045
:10EE8000404600F067F900232363002004BC90464D
:10EE9000F0BD2669002EF8D022682660951B00225E
:10EEA0009B0700D16269A260002D04DCEDE73618F3
:10EEB0002D1A002DE9DD2B003200E1694046676A1A
:10EEC000B8470028F3DC40220120A38940421343C5
:10EED000A381DBE7434619681D29F4D81A4B0122A8
:10EEE000CB409A43EFD1A389164E6260334022692A
:10EEF0001BB2A3812260DB04B9D50029B7D12065FC
:10EF0000B5E7E26B002A00DD8AE7BEE700220123B5
:10EF1000E1694046B0470200431C02D0A389A66ABB
:10EF20008BE743461B68002BF8D01D2B01D0162B16
:10EF300003D1434600201D60A8E74021A3890B436D
:10EF4000A381A3E7FFF7FFFF0100402070B5050094
:10EF50000C00002802D0836B002B16D00C22A35E7D
:10EF60000026002B0FD0626ED20701D49B0513D56B
:10EF700021002800FFF742FF636E0600DB0702D482
:10EF8000A3899B0504D5300070BD00F039F8E5E792
:10EF9000A06D00F04BFFF6E7A06D00F045FFE7E73E
:10EFA00010B5024900F036FB10BDC0467D120100CD
:10EFB000002310B5040003604360836081814366D1
:10EFC000C281036143618361082200215C30F9F74B
:10EFD000AFF92000064BE4612362064B58306362B0
:10EFE000054BA362054BE36200F01AFF10BDC0465B
:10EFF000BD8A0000E98A0000258B0000518B0000CB
:10F0000070B50400144D280000F00EFFA36B002B18
:10F010001DD1124A0421E263B8229200A350B92301
:10F0200003229B00E2500833E218043BE250606880
:10F030000022FFF7BDFF01220921A068FFF7B8FFFA
:10F0400002221221E068FFF7B3FF0123A363280027
:10F0500000F0ECFE70BDC04614170020A1EF0000C8
:10F0600010B5024800F0E0FE10BDC0462817002091
:10F0700010B5024800F0DAFE10BDC0462817002087
:10F0800070B5094B094CE41AA41009D0084AA51818
:10F09000AD00ED182B68013C9847043D002CF9D1D8
:10F0A00004F07EFC70BDC046AC390100B0390100EF
:10F0B000FFFFFF3FF8B50C000600F9F783F9204F7A
:10F0C000BB685D6803239D431E4B2C1B9C46644418
:10F0D000240B1D4B013C24039C4207DD0021300022
:10F0E000F9F7B6FBBB685B19984204D03000F9F71A
:10F0F00071F90020F8BD61423000F9F7A9FB431C0B
:10F100000DD00122BB682D1B15435D600F4B3000F5
:10F110001A68141B1C60F9F75DF90120EAE7002169
:10F120003000F9F795FBBA68831A0F2BDEDD08492A
:10F130000968401A0549086001210B435360D5E76F
:10F1400004070020EF0F0000FF0F0000F41500205F
:10F150000C0B0020F8B504000D1E3CD0F9F732F975
:10F160002900083948680123050003269D434A19F0
:10F170009C46614F5368B343BE68B24256D0664660
:10F18000536006420AD13E0008680836091A2D1855
:10F190008868B04265D0CE68C660B0600120D618DD
:10F1A0007668064233D0554B284348604D519D4206
:10F1B00012D8ED08FF3BAA10FF3B93407A68ED00A0
:10F1C00013437B60EF19BB68CF608B60B960D96077
:10F1D0002000F9F7FFF8F8BD680A042850D8A809FC
:10F1E000020039303832C0003818083883680326E6
:10F1F00098424CD05A68B243954230D29B689842AC
:10F20000F8D1C368CB6088609960C160E0E7ED1811
:10F210003B4E9368B34242D0D2682843DA60936091
:10F22000364B48604D519D42D6D8C2E76246EB1836
:10F23000024206D10A68891A88689B18CA68C260A7
:10F24000906001221A434A602E4AB96012689342C4
:10F25000BED32D4B20001968FFF72CFFB8E718002C
:10F26000CFE76646D018406830423FD190685D19BC
:10F27000D368C360986063462B434B604D51A7E74A
:10F28000142814D802005C305B32C000ACE70123C4
:10F29000921093407A6813437B600300B2E72843DF
:10F2A000D9609960CB608B6048604D5190E75428DD
:10F2B00005D8280B02006F306E32C00094E7AA22F6
:10F2C0005200904205D8E80B020078307732C00037
:10F2D0008AE70E4A904205D8A80C02007D307C32A5
:10F2E000C00081E7FE207E2280007DE763462B433D
:10F2F0004B6015606CE7C04604070020FF0100006A
:10F300000C070020100B00202416002054050000DC
:10F31000F0B54E46DE4657464546E0B5936883B0A5
:10F3200000900C001600002B25D08B891A072AD5D7
:10F330000A69002A27D0326893469A072FD5B24B24
:10F34000002700259846B146002D00D172E02B0021
:10F35000454500D9AC4B3A00E1690098666AB04770
:10F36000002800DC73E04B469B683F182D1A181AE2
:10F370004B469860E8D1002003B03CBC90469946CB
:10F38000A246AB46F0BD21000098FEF739FC0028EC
:10F3900000D030E13268A38993469A07CFD4DA07C8
:10F3A0005DD5002300209A4600271D00B14629E0C4
:10F3B000002833D0A846BD4200D9B846206822694B
:10F3C00046466369904207D9A26894469C446246C7
:10F3D0000192E04500DDE9E0984500DA8FE0666AD9
:10F3E0005246E1690098B047061E30DDAD1B012092
:10F3F000002D26D04B469B68B244BF1B9E1B4B463C
:10F400009E60B8D0002FD3D15B461B689A465B46FE
:10F410005F6808239C46E344002FF5D03A000A2198
:10F42000504600F0C3FD002800D1E2E05346013011
:10F43000C51ABFE75B461F685D6808239C46E34426
:10F4400082E721000098FFF781FD0028D2D00C222E
:10F45000A35E402201201343A38140428CE7002297
:10F4600091464D46002D23D0A268904680229200FE
:10F47000134226D0C24645454DD39022D2001342B6
:10F480004ED12F0020685246494600F0CFFD42463B
:10F49000A368981A2368A06053442360B368B944F2
:10F4A000ED1BDF1BB76000D165E7A389002DDBD121
:10F4B0005A46126891465A46556808229446E344D3
:10F4C000D0E720682369984202D86769BD4259D2C3
:10F4D0004746AF4200D92F003A00494600F0A6FD4A
:10F4E000A3682268DB1BD219A3602260002BD5D150
:10F4F00021000098FFF72AFD0028CFD0A7E7424659
:10F50000514600F093FD4246A3689B1AA36023680E
:10F51000434423606AE7A84620682F00AA46B2E762
:10F5200021692268521A924662695700BF18FA0F81
:10F53000D7195246501C7F1040193A00B84201D9E1
:10F54000070002005B0542D511000098F8F7BEFBEA
:10F550008046031E52D052462169F8F7A7FEA389C0
:10F560002A4A134080221343A38143464046236125
:10F57000534650446761FF1AA7602060A8462F00D9
:10F58000AA4680E7224B28009D4200D91800390086
:10F59000F6F788F93B004A464343E1690098676AF9
:10F5A000B847002800DC52E7070077E76646514677
:10F5B00000F03CFDB44623682100634423600098BA
:10F5C000FFF7C4FC002800D041E7019E0EE7009839
:10F5D000F8F780FF80460028C7D1009D21692800E8
:10F5E000FFF7B8FD8022A3899343743A1BB22A60C7
:10F5F0002FE77D1CDEE601204042BDE6009A0C3379
:10F6000013600C22A35E24E700FCFF7F7FFBFFFF5B
:10F61000FFFFFF7FF8B54746CE4680B5B827804646
:10F62000BF00474489460026002F14D07B68BC6881
:10F630005D1E0DD4A389012B07D90E22A35E0133D1
:10F6400003D021004046C84706436834013DF1D24B
:10F650003F68002FEAD130000CBC90469946F8BDB7
:10F66000F0B5CE4647460500026980B514354C1109
:10F6700094422CDA9200AF181F23A20091460B404F
:10F68000A9449C46002B2AD0624620239B1A984608
:10F690004B461E681C1DD640A74235D9290042465C
:10F6A00023689340334308C1634640CCDE40A74201
:10F6B000F5D84B46FA1A0323053A9A430432AA189E
:10F6C0001660002E1DD0131D5B1B9B1015E0002340
:10F6D0000361002343610CBC90469946F0BD494646
:10F6E0004F45F4D910C910C58F42FBD84B46DB43B8
:10F6F0000322DB19934304339B100361002BEAD1EF
:10F70000E7E7531B9B10F8E72A00D9E7F0B5DE4680
:10F710004E4657464546E0B58BB00690169889464A
:10F7200093460993F8F7A0FA036818001C000493A5
:10F73000F9F760FAA446020062441300013B1B780B
:10F74000029001934B461C68A278302A00D0C4E195
:10F7500002214942E31C091BC8181C0001335A1E30
:10F760001278302AF8D08046BF4FBB5C002B00D106
:10F77000B0E00022002692462378FB5C2500002B97
:10F7800004D001352B78FB5C002BFAD1029A049946
:10F790002800F9F761FA002800D18BE02B78002EC1
:10F7A00000D189E1761BB2000392502B00D1B4E066
:10F7B0002E00702B00D1B0E04B461D605346002B4D
:10F7C00000D098E0331B013B0021072B03DD013102
:10F7D0005B10072BFBDC069800F078FC0300143369
:10F7E00005900893B44200D3C3E19A460023029ADD
:10F7F0009846994601339B1A07932300444698463E
:10F800000EE0202C5BD0220004340F212B782E0038
:10F81000FB5C0B4093404A461A439146464511D93A
:10F82000751E2B78019A9342EBD1079BEE18464543
:10F83000E7D3029A04993000F9F70EFA0028E0D1D4
:10F840004645EDD853464A4604C3089A48469B1A93
:10F85000059A9B1013615C0100F0FAFC5B461D6881
:10F86000241AAC4200DD01E10026AC4200DA26E1B8
:10F870005B46039A9B689A4200DDBAE05B460399B7
:10F880005B68994200DAD5E00124002E0BD05B467C
:10F89000DB68022B00D152E1032B00D153E1012B95
:10F8A00069D010231C43149B059A1A60099B039A84
:10F8B0001A6026E0002E00D133E12B7872E7534620
:10F8C0004A461A6004239C460023E2440022042492
:10F8D00099469AE7029D04992A002000F9F7BCF99D
:10F8E000002800D191E025002278502A11D0702AFA
:10F8F0000FD04B461D6043465A42534106245B429B
:10F900001C4020000BB03CBC90469946A246AB463A
:10F91000F0BD0023039301339A466B782B2B00D163
:10F920009FE001212D2B6DD1AB78A81CFB5C2E0034
:10F930005A1E182A00D93FE7421C4078103B385C19
:10F94000461E182E0CD806009800C01840008019DA
:10F95000030001321078103B3E5C701E1828F3D96A
:10F96000002900D05B4203992E008C469C446346DC
:10F970001500039320E7B20793D5089A126816433F
:10F980000192334200D18CE7059B1F69089BB900A7
:10F9900088461A004244160000219C4603E002C338
:10F9A0009E4200D8FFE01A68501CF8D00132604631
:10F9B0001A60022C00D10CE11F2321241D4000D12C
:10F9C00071E740440438006800F042FC20235D1BCE
:10F9D000A84200DB67E701210598FFF741FE039B82
:10F9E000212401331A0003935B469B689A4200DC92
:10F9F00059E70599069800F091FB0023149AA32477
:10FA000013607EE7681C002190E765192A78BB5CCB
:10FA1000002B00D169E72C00302A04D1013423786F
:10FA2000302BFBD0FB5C5942594101228A462E0003
:10FA30009046A3E65C1AA54253DC5A46D268022AD5
:10FA400000D1ACE0032A00D184E0012A00D197E084
:10FA50000599069800F062FB0023149A5024136065
:10FA60004FE7002160E7C04690370100641B21008A
:10FA7000059800F0A9FF061E14D01F210123601E67
:10FA800001408B404211089992008A5801261A427F
:10FA900008D0012872DDA11E059800F095FF00280E
:10FAA0006CD0032621000598FFF7DAFD039B9C46E6
:10FAB000A44463460393DBE60022039275E62C1B05
:10FAC00022000599069800F01FFD0300039A1433E5
:10FAD000121B059003920893CAE60023023498464D
:10FAE00042E6671E002E33D1002F04D0390005985E
:10FAF00000F06AFF06001F237A111F401E3BBB4027
:10FB0000089992008A581A4201D002231E4321000C
:10FB10000598FFF7A5FD5B465B682D1B0393022448
:10FB2000B3E6029BEE1833783500FA5C002A00D168
:10FB300038E601352B78FA5C002AFAD132E6012347
:10FB4000159A9B1A1593159B002B00D1A9E61BE76C
:10FB50000126D0E7159A002A00D179E7099A089979
:10FB600013600123059A622413610B60149B1A60D1
:10FB7000C7E6089B9A460023994663E6022691E76A
:10FB8000A54200D064E7012DE8DD691E059800F06C
:10FB90001BFF002800D15BE75B465B68DEE7159A38
:10FBA000002ADBD054E7059B9B6801939F4223DA30
:10FBB0003B00089805995A1C8C460A6101210433C0
:10FBC0009B0063445960022C03D0974200DA02E79D
:10FBD000F2E65B461B682224013B9D4200D062E6B0
:10FBE0001F236A111D401E3BAB4092001458234056
:10FBF0005C425C41213456E6059B5A68069B511CC9
:10FC000018009946019200F061FA0600059B0C303D
:10FC10001A690C330192023219009200F8F746FB80
:10FC20004846059900F07AFA300033691430059699
:10FC3000C0E7C04630B5026808E013781D00413DBA
:10FC4000192D00D820330131A34206D10C7801329E
:10FC5000002CF2D10260012030BD0020FCE7C0463C
:10FC6000F0B55746DE464E46454692460A681F2185
:10FC7000E0B5531185B09B001140019053440391AE
:10FC8000002900D00433043B9B4600235A461360EE
:10FC9000019B5C461868002341780093594BD84675
:10FCA0000025002299460294461C002936D04B4676
:10FCB0005B5C002B58D1202968D8009B9A4228DD34
:10FCC00044451CD2072D1ADC08235D1BAD001833F8
:10FCD0005B1B9C4661462368200047469446A0462D
:10FCE0000A001C0041680B009340E940234308C010
:10FCF0000C0001608742F5D844466246B8460825A4
:10FD0000544506D9231F002198461C000025196080
:10FD1000009230004178461C0029C8D1029B9C46C5
:10FD2000002A37D0444501D2072D57DD544539D933
:10FD30005346594604CC1A600433A142FAD2002239
:10FD400004C39942FCD28B460B68002B0AD1634650
:10FD50005246DA4502D135E09A4232D0043B196866
:10FD60000029F9D0052016E001350132082D05DD06
:10FD70005445CED900210125043C21600F20216883
:10FD8000034009010B4323603000C3E7029B9C46FC
:10FD900029291FD0042005B03CBC90469946A246B4
:10FDA000AB46F0BD039B002B11D02022039BD21A3F
:10FDB00001235B42D3405A46126813405A461360EF
:10FDC000C3E792460123524605201360E3E75B46F2
:10FDD0001B68BAE7019B02301860A1E708235D1B8E
:10FDE00023682026210047461A00AD00761B48688C
:10FDF0000300B34013430200EA4008C10A608F4287
:10FE0000F5D893E79037010010B504000020FF2CCF
:10FE100005D8F7F71BFF041908206378184010BDB8
:10FE20007047C0467047C0467047C0467047C046DE
:10FE300070B50500080011000022064C22601A006F
:10FE4000F4F75AF9431C00D070BD2368002BFBD097
:10FE50002B60F9E72C17002070B50C001E000E2354
:10FE6000C95E90B01500002915DB01AA01F0E6FA81
:10FE7000002810DBF022029B120213400D4A802062
:10FE8000944663445A42534133608023DB002B6025
:10FE9000000110B070BD00233360A3891B0603D599
:10FEA000402300202B60F4E78023DB002B60002040
:10FEB000EFE7C04600E0FFFF70B58B8982B0060017
:10FEC0000C009B0707D523004333236023610123E4
:10FED000636102B070BD01AB6A46FFF7BDFF0099D8
:10FEE00005003000F7F7F2FE00281ED08022154BE7
:10FEF000F363A38920601343009A1BB26261019AE5
:10FF0000A3812061002A02D12B43A381E1E70E23C4
:10FF1000E15E300001F0A6FA002810D00322A38988
:10FF20009343012213431BB2EEE70C22A35E9A0512
:10FF3000CFD40322934302221343A381C3E70C22AD
:10FF4000A35EE1E7A1EF000030B5040083B0002A12
:10FF500013D013480068406B00281DD0069D009503
:10FF6000E42545592000A847431C04D10023069AE4
:10FF700013608A33236003B030BD094B1B685B6B91
:10FF8000002B0BD0069A00210092E42220009D58FD
:10FF90000123044AA847E7E70348DFE7024BF1E7FC
:10FFA0006C010020C42401009805002070B5CDB27A
:10FFB000830734D0541E002A1BD00378AB4219D0DB
:10FFC000032204E0013C14D30378AB4212D0013089
:10FFD0001042F7D1032C0ED8002C0AD00378AB4284
:10FFE00008D0041902E00378AB4203D00130844208
:10FFF000F9D1002070BDFF220B061B0C11401943E4
:020000021000EC
:100000000B04084E19430368074A4B409A189A4359
:100010003242E3D1043C0430032CF4D8DCE7140072
:10002000D8E7C04680808080FFFEFEFEF0B58842A3
:100030000AD98B18984207D2531E002A03D0CA5CF3
:10004000C254013BFBD2F0BD05000F2A08D8002A9C
:10005000F9D00023CC5CEC5401339342FAD1F2E79F
:100060000B0003439B072DD115000C000300103D2E
:100070002F0901373F01C71926681E6066685E6058
:10008000A6689E60E6681034DE6010339F42F3D1AC
:100090000F24A5431035491914404519032C13D9D1
:1000A0000023271FBE080136B600CC58EC5004339D
:1000B000B342FAD10326B7433C1D09192D1932402A
:1000C000C7D1C0E70500C4E72200C0E770B504004F
:1000D000C06C0D0000280AD0AB00C31818680028B7
:1000E0000FD002681A6000230361C36070BD212233
:1000F00004212000F7F746FDE0640028ECD1002041
:10010000F4E70126AE40721D920001212000F7F7AE
:1001100039FD0028F3D045608660E4E7002906D069
:100120004B689A00C36C9B181A680A601960704784
:10013000F8B5CE4647468146080080B50D000C69EB
:100140001F0000211430036801311E04360C564391
:100150001B0C5343F619370CDB1936041F0C360CF5
:100160001B049B1908C08C42EDDC002F08D0AB6843
:100170009C420ADA231D9B00EB1801345F602C615E
:1001800028000CBC90469946F8BD6B684846591C3F
:10019000FFF79CFF29002B6980469A1C92000C31C6
:1001A0000C30F8F783F86B689A004B46DB6C9B18B1
:1001B0001A682A601D604546DCE7C046F8B5474628
:1001C000CE460600180080B50D0008300921904683
:1001D0001F00F5F767FB012838DD012200215200DE
:1001E00001319042FBDC3000FFF770FF089B436158
:1001F000012303614346092B24DD09239946A944C1
:100200004C46454423780100303B0A22300001343B
:10021000FFF78EFFAC42F5D14546083D4D444745BA
:100220000CDD4346FF1AEF192B780100303B0A2200
:1002300030000135FFF77CFFBD42F5D10CBC904684
:100240009946F8BD09230A359846E8E70021CAE730
:100250000300020C0020002A01D11B0410301A0EEA
:1002600001D108301B021A0F01D104301B019A0F73
:1002700001D102309B00002B03DB01305B0000D476
:100280002020704703685A0709D00022D90704D4F8
:100290009A0720D402229B080360100070471904BB
:1002A0000022002901D11B0C1032FF21194201D17B
:1002B00008321B0A190701D104321B09990701D121
:1002C00002329B08D90704D45B0801D12022E4E75D
:1002D00001320360E1E75B0803600122DDE7C0460D
:1002E00010B50C000121FFF7F1FE01234461036109
:1002F00010BDC046F0B557464E464546DE46E0B511
:1003000014690E6985B00F001500A64204DA3300A7
:10031000170026000D001C0033199846BB68796849
:10032000984500DD0131FFF7D1FE14220300944609
:1003300063449B4643469B005B4419000293039031
:100340005B4600228B4503D2029904C39942FCD834
:100350001423A4009A4614372300BC46AA44B600CE
:1003600053440097B44401939A454FD253461B68B7
:100370001E04360C20D05C460027009D210008CCCE
:1003800004CD9946484613041B0C73430004000C2B
:100390001B18D819130C4A467343120C9B18020CF5
:1003A0009B1802041F0C120C1B0413430B60AC457A
:1003B000E4D8534627601B681E0C20D05B46002102
:1003C0001B685C4618000F006246009D2988000CDF
:1003D00071430918C9191B0408041B0C034323604B
:1003E00008CD60681B0C734307043F0CDB19090C34
:1003F0005B181F0C0434AA42E8D8944623600423F7
:100400009946019BCA44CB445345AFD84346002B81
:100410000EDD029B043B1A68002A09D1424603E024
:10042000043B1968002902D1013A002AF8D190460C
:10043000039B424618001A6105B03CBC90469946A1
:10044000A246AB46F0BDC046F8B54746CE460323AC
:1004500080B580460F00140013403AD1A4103E002E
:10046000002C25D043469D6C002D3BD03E00002340
:1004700001279946274207D1641019D0286800281F
:100480001BD005002742F7D02A0031004046FFF775
:1004900031FF002E1BD04246D26C736894469B00FD
:1004A00063441A68641032601E600600002CE5D1B7
:1004B00030000CBC90469946F8BD2A002900404601
:1004C000FFF718FF4B46286003600500DAE70600D7
:1004D000D2E70B4A013B9B009A580023FFF728FE06
:1004E0000700BBE701214046FFF7F0FD054B050083
:1004F0004361012303614346986400230360B5E729
:100500008039010071020000F8B54E464546DE46CE
:100510005746E0B50E00336954119846A04443464F
:100520005D1CB3688346914649689D4203DD0131F5
:100530005B009D42FBDC5846FFF7C8FD0300844684
:100540001433002C06DD0021A4001A001B1902C27E
:100550009342FCD132694846970031001F22143182
:100560001040CF198146002825D02022121A924629
:10057000002248460C688440504614431C6004C95D
:100580000433C2408F42F4D81A60002A01D0454695
:1005900002356346013D1D61736860469A005B4603
:1005A000DB6C9B181A6832601E603CBC9046994612
:1005B000A246AB46F8BD04C904C38F42E9D904C9B9
:1005C00004C38F42F7D8E4E70A69036930B5050030
:1005D000981A11D1920014351431AB18891801E022
:1005E0009D4209D2043B04391C680A689442F7D042
:1005F000944280410122104330BDC046F8B54546C3
:10060000DE4657464E4614000B691269E0B588462F
:100610009D1A1AD10F0014218C4692001437A4445D
:10062000BB18624402E09F4200D370E0043B043AEE
:100630001E6811688E42F6D000D371E043463E003A
:10064000A04667461C00012506E0002D6ADB4746F0
:10065000260000251437143643465968FFF736FD47
:1006600043468146C56018694D4683009C46236910
:10067000BC449B0098460023B04414359A4600E0E1
:10068000270004CE3C009346594608CC09041A04BE
:10069000120C5244090C521A190C5B461B0CCB1A53
:1006A00011145B1812041914120C1B048A4613430C
:1006B000291D2B600D00B045E2D8A44516D908CC01
:1006C0001A04120C524416141B0C9B1912041E140B
:1006D000120C1B041343B24608C5A445EFD862466A
:1006E0000324D21B053AA243043289180439002B93
:1006F00004D104390B680138002BFAD04B4618613D
:1007000048463CBC90469946A246AB46F8BD0021FF
:10071000FFF7DCFC01230361002381464361EFE71F
:10072000664699E727000E00A046143714360C00E1
:10073000012591E7104B10B51940104B9C466144C0
:10074000002904DD00220B001000190010BD4942F1
:10075000091500220023132908DD143901201E2960
:1007600002DC1F24611A88400200EDE780200003AC
:1007700008410300E8E7C0460000F07F0000C0FC2D
:10078000F0B54F464646D6460469C0B5A4000600FB
:10079000A1461436B1444B4688461F1F3D682800C9
:1007A000FFF756FD202143460A1A1A600A2820DC6A
:1007B00015390B1A9A462B0052462649D3408846D3
:1007C0001900444621430B0000218C46BE4204D24E
:1007D0004C46083C2468D440A44615308540614608
:1007E00029430A00100019001CBC90469946A246F5
:1007F000F0BDBE421BD208235B429C46CC446346FC
:100800000B381F68002816D08540124B091A1D436B
:100810003B00CB401C002C432300664517D24C46BE
:100820000C3C24688740CC4027433A00DAE70B3879
:100830000027002804D107493A0029430B00D1E7DB
:100840008540002703493A0029430B00CAE7874047
:100850003A00C7E70000F03FF0B501211C0083B06B
:10086000089E1500FFF732FC2303640007001B0BF2
:10087000640D02D08022520313430193002D19D03E
:1008800068460095FFF7FEFC002830D1009B7B6195
:10089000019BBB615A1E93415D1C3D61002C14D02D
:1008A000194B9C46352364442418181A099B34605C
:1008B000186019E001A8FFF7E5FC019B20307B617F
:1008C000012301253B61002CEAD1104B9C46104BC3
:1008D0006044EB189B00FB1830605869FFF7B8FCC8
:1008E0006B01181A099B1860380003B0F0BD019B1A
:1008F00020221900121A91400A00C3400099019366
:100900000A437A61C5E7C046CDFBFFFFCEFBFFFF80
:10091000FFFFFF3FF0B5CE46474680B585B088461D
:1009200002A98146FFF72CFF06000F00404603A9ED
:10093000FFF726FF4B461B69009001919C464346FA
:100940001B699846634642469B1A5B019C46039A84
:10095000029B9B1A9846C4446346002B0DDD1B0581
:10096000DD192F0002000B0030003900F5F74CFDB7
:1009700005B00CBC90469946F0BD634618050B1AAD
:10098000019300980199EDE7130070B54C1E1169B1
:100990006411013414338900A400591804198B42DE
:1009A0000BD2050040CB40C59942FBD80323183237
:1009B0009A1A89189943043140180023844202D9B5
:1009C00008C08442FCD870BD0200036910B514321F
:1009D000481183420FDA9B00D3189A4221D2043B7C
:1009E0001868002804D01AE0043B1968002916D1C1
:1009F0009A42F9D310BD83420EDD1F2319408300B4
:100A0000D3180029E9D01C682000C84088400100A4
:100A100001208C42EED1E0E78300D318DDE701200E
:100A2000E8E70020E6E7C04670B5050008001100C1
:100A30000022064C22601A00F4F738FE431C00D056
:100A400070BD2368002BFBD02B60F9E72C1700202A
:100A500070B50C785E2C28D04E1C002500210300B8
:100A6000421CFF32197001339A42FBD1711E002CD7
:100A70000ED001236B4003553278711C2D2A09D00A
:100A80005D2A05D0002A02D014000E00F3E73100E1
:100A9000080070BD72785D2A0CD094420ADC0236E0
:100AA00001340355A242FBDCE6E78E1C4C7801259D
:100AB0000121D4E72D240E00DDE7C0460048704731
:100AC0000000C07FF0B557464E46DE464546E0B5CD
:100AD0001E00082383B00190009192460F009946B2
:100AE00000E02F000C983C78F7F7ACF84A46001964
:100AF00043787D1C1A42F4D12D2C4FD00023984608
:100B00002B2C5CD0002E03D0102E5BD0370003E0DE
:100B1000302C63D00A270A26354B3900434418008D
:100B20009946F4F7BBFE48468B463900F4F730FE91
:100B30000022010000202300303B092B07D9113B84
:100B4000192B03D92300613B192B0DD80A339E4280
:100B50000ADD541C05D081421DD31AD001227843EE
:100B600018182C780135E6E7531C1CD04346002B9F
:100B700000D040425346002B04D0009B002A1CD1D9
:100B80005246136003B03CBC90469946A246AB4621
:100B9000F0BD9B45E2DA01225242E2E701232C78C4
:100BA0009846BD1CAEE72223019A4846136053467F
:100BB000002BE7D06B1E4846E2E78146FAE72C7827
:100BC000BD1C9FE7302C11D120222B789343582B4A
:100BD0000CD16C781027023510269DE720222B7847
:100BE0009343582BF5D00827082695E7102793E75D
:100BF000FFFFFF7F10B5064C82B02468646B002CA9
:100C000004D00094FFF75EFF02B010BD014CF8E77E
:100C10006C01002098050020F0B5DE4657464E4690
:100C20004546E0B51F00082389B00790069193461A
:100C30000E00984600E02E0012983478F7F702F87C
:100C4000424600194378751C1A42F4D12D2C00D16C
:100C500087E0002303932B2C00D194E0002F0ED0CB
:100C6000102F00D192E0FB179946039BBA46002B48
:100C700010D101235B420493554B05930FE0302CB8
:100C800000D192E00A239A4600230A279946039B43
:100C9000002BEED00023049380231B0605930499B8
:100CA000059E88460800524631004B46F4F724FF63
:100CB00040460292310052464B46F4F71DFF002297
:100CC00080460E000020002119E01C00A74221DD13
:100CD000531C12D0B1423BD801D1404538D8804591
:100CE00031D052464B46F4F727FFE31700940193A7
:100CF000009B019C0122C01861412C780135230022
:100D0000303B092BE1D92300413B192B23D8373C39
:100D1000A742DDDC531C29D0039B002B04D0030029
:100D20000C0000215842A1415B46002B04D0069BD9
:100D3000002A25D15A46136009B03CBC904699461A
:100D4000A246AB46F0BD8E42CBD1029BA342C8DA8D
:100D500001225242D1E72300613B192BDAD8573CDC
:100D6000B4E701232C780393B51C77E72223079A75
:100D700013605B46002B28D06B1E04980599D9E7B9
:100D800004900591F8E72C78B51C67E7302C17D153
:100D900020222B789343582B12D110239A460023FC
:100DA0006C7899460235102771E720222B789343FF
:100DB000582BF2D008239A4600230827994666E765
:100DC00010239A460023994661E704980599B3E7F2
:100DD000FFFFFF7F10B5064C82B02468646B002CC7
:100DE00004D00094FFF718FF02B010BD014CF8E7E3
:100DF0006C01002098050020F0B557464E46DE46AF
:100E00004546E0B5936883B001900E009246002BF2
:100E100070D08D6813682C0008681D0046E0902291
:100E2000B389D200134230D03169421A93467069B7
:100E300042001218D00F8218521090465A46501C89
:100E4000C0194246404501D9804602008020C000BA
:100E5000034238D011000198F6F738FF041E54D031
:100E60005A463169F7F722FAB3892A4A1340802299
:100E70001343B381434620005A463461B8463C00D0
:100E8000584473619B1A3060B36042464946FFF78D
:100E9000CDF8B3681C1B3368B4604344336018005A
:100EA00053469B68DF1B53469F6023D06F682B001F
:100EB0000835002FFAD01B68A0469946A742AED24B
:100EC0003C00B846E1E70198F7F704FB041ED1D1D6
:100ED000019C31692000FEF73DF90C23236040227C
:100EE000B38901201343B3815246002340429360EB
:100EF000536003E0002352460020536003B03CBC23
:100F000090469946A246AB46F0BD0C23019A136069
:100F1000E5E7C0467FFBFFFF70B514004B1C1BD0FC
:100F200093892022FF259343A381236BCEB20D40EA
:100F3000002B14D06368626B934208DA2368013B8C
:100F400023601E70636801336360280070BD210058
:100F500000F08CF80028F1D001256D42F5E72269F8
:100F60002368002A05D09A4203D25A1E11788D4276
:100F70000FD0A363230040332363032362686363BA
:100F80003F33E263E654230042332360012363606E
:100F9000DBE76368226001336360D6E710B50C00BD
:100FA000096B00290FD023004033994201D0FEF78E
:100FB000D1F800232363E36B6360002B03D0002090
:100FC000A36B236010BD236920222360002301202E
:100FD0006360A38940421343A381F3E7F0B5DE4683
:100FE000574645464E469B46E0B583B013000192F6
:100FF0005A46534380460C9C9A46002B26D01F002D
:1010000000230E00994611E0216830002A00F7F70E
:101010004DF9236821005B1923604B46404663600D
:1010200076197F1BFFF7BAFF002817D16568AF421A
:10103000EAD83A0021683000F7F738F96368DA46F1
:10104000DB1B636023689C4667442760504603B0FF
:101050003CBC90469946A246AB46F0BD534601992A
:10106000D81BF4F795FB8246F0E7C046F0B50C00BC
:101070002300C646096B403300B5994215D0666B14
:1010800077003A00F7F726FA051E28D0831998460C
:10109000010032001800F7F709F9434600202360E9
:1010A0002563676304BC9046F0BD8025ED002900F0
:1010B000F6F70CFE002812D0422320636563E25C41
:1010C000084BC2544123E25C074BC2544023E25C0C
:1010D000064B9C46C254604420600020E2E7012099
:1010E0004042DFE7FF030000FE030000FD030000B5
:1010F000F8B54E464546DE4657464B6EE0B580464F
:101100000E0091469B0431D513689A469368002BD4
:101110002AD05246526800259346970852461468D2
:1011200004D116E001350434AF4210D032002168FA
:10113000404600F055F9431CF4D14A460023936021
:1011400053603CBC90469946A246AB46F8BD4B4620
:101150009B685A4603218A439B1A4A469360082299
:101160009446E244002BD4D10020E6E7FEF7D0F805
:10117000E3E7C046936810B5002B02D0FFF7B8FF35
:1011800010BD53600020FBE7F0B54E464546DE46F5
:101190005746E0B5364D83B00600286898460F00E4
:1011A0009146FEF741FE334B1C68A4235B00E058D8
:1011B000002852D043681F2B13DC5A1C0192002ECA
:1011C00028D1019A02339B0042601F502868FEF725
:1011D0002DFE002003B03CBC90469946A246AB468B
:1011E000F0BD254B002B3DD0C8204000F6F75AFD3E
:1011F000002837D0A42200235200A1584360016088
:10120000A0504032835004328350013301930023B5
:10121000002ED6D09A00924682444A4688215446EF
:101220006250C4225200914681444A46873999400F
:1012300012688B460A4394464A46614611608422EE
:1012400041465200A150022EBBD102005C468D32B5
:10125000FF3211680C431460B3E720004D30FF30BB
:10126000E050A7E72868FEF7E1FD01204042B1E722
:10127000140B0020682D0100A57C000070B505004E
:101280000C1E40D0002802D0836B002B3ED00126DC
:10129000636E334233D1A3899B0543D521002800D7
:1012A000FDF7ACFDE36A0600002B04D0E1692800DD
:1012B0009847002844DBA3891B062AD4216B002908
:1012C00008D023004033994202D02800FDF742FFA6
:1012D00000232363616C002904D02800FDF73AFF46
:1012E00000236364FDF7BCFE0023A381636EDB076C
:1012F00014D5A06DFEF796FDFDF7BAFE04E00C22B2
:10130000A35E002BCAD10026300070BDFDF778FE29
:10131000BDE721692800FDF71DFFCFE7A06DFEF7AF
:1013200085FDE6E7A06DFEF77FFD0C22A35E002B96
:10133000B4D1636E1E40E6D1A06DFEF777FDE3E702
:1013400001267642B7E7C046F0B5CE46474680B59F
:1013500085B0804689461400F6F764FC012831D038
:10136000230003AF5C334A463900404600F0EAF8F8
:101370000600431C21D0002830D03978002507E032
:1013800023685A1C226019700135B54226D2795D56
:10139000A368013BA360002BF2DAA269934201DB50
:1013A0000A29EDD12200404600F06EF8431CEBD133
:1013B00005B00CBC90469946F0BD4022A38913436A
:1013C000A381F5E74B46013BFE2BC9D86A464B4645
:1013D000D371D17903AF39700126CFE74846E7E7EB
:1013E000536E70B505000E001400DB071ED40C23ED
:1013F000D25E91B28B0516D580239B01194204D190
:101400001A43A281626E13436366280022003100F2
:10141000FFF79AFF636E0500DB0702D4A3899B05E3
:1014200008D5280070BDA06DFEF7FEFC0C23E25E1F
:1014300091B2E1E7A06DFEF7F9FCF2E7002370B589
:10144000074C0500080011002360F2F74EFE431C14
:1014500000D070BD2368002BFBD02B60F9E7C0469D
:101460002C170020002370B5064C050008002360EF
:10147000F2F740FE431C00D070BD2368002BFBD068
:101480002B60F9E72C170020F8B506000D001400BA
:10149000002802D0836B002B4ED0A369A3600C23DD
:1014A000E05E81B20B073CD52369002B39D0FF22C7
:1014B000EFB2154080229201114215D02268616975
:1014C000D31A8B421BDA0133A1680139A160511C88
:1014D0002160177062699A421AD0A389DB0701D58F
:1014E0000A2D15D02800F8BD0243616EA281144A6E
:1014F0000A40626661692268D31A8B42E3DB2100ED
:101500003000FDF723FD002808D122680123DBE726
:1015100021003000FDF71AFD0028E3D001256D42BF
:10152000E0E721003000FCF76BFB0028F6D10C232C
:10153000E05E236981B2BAE7FDF762FDADE7C04620
:10154000FFDFFFFF70B51D00114B84B01B68040066
:101550005B6B00290ED0002B16D0E0201E582B000C
:101560002000B047431C03D100232B608A33236043
:1015700004B070BD002B09D0E02201A99E582000C4
:101580002B000022B047EDE7024BE6E7014BF3E703
:101590006C010020980500201802000032020000B3
:1015A000400200004E0200005C0200005F68616EB5
:1015B000646C655F73746174655F696E6974696199
:1015C0006C697A6500000000696C6F705F72756EFF
:1015D0006C6F6F7000000000696C6F705F696E69FE
:1015E00074000000696C6F705F617773735F737470
:1015F00061727400696C6F705F726573746F72658D
:10160000000000002E2E2F426F6172642F616C6902
:10161000636C6F75645F696C6F702F616C69636C6C
:101620006F75645F696C6F702E630000494C4F509A
:10163000000000005B25733A2025733A2534645D71
:101640002070726F64756374206B65792020202090
:101650003A5B25735D0D0A005B25733A2025733ACA
:101660002534645D2070726F6475637420736563E4
:10167000726574203A5B25735D0D0A005B25733A31
:101680002025733A2534645D20646576696365209E
:1016900073656372657420203A5B25735D0D0A00E3
:1016A0005B25733A2025733A2534645D20646576A2
:1016B000696365206E616D65202020203A5B25738B
:1016C0005D0D0A005B25733A2025733A2534645D6D
:1016D0002057692D466920636F6E6669672E2E2E2E
:1016E0002E0D0A005B25733A2025733A2534645D7C
:1016F0002057692D466920636F6E6E65637465645B
:101700000D0A00005B25733A2025733A2534645D89
:101710002057692D466920646973636F6E6E656337
:101720007465640D0A0000005B25733A2025733A46
:101730002534645D20436C6F756420636F6E6E6545
:10174000637465640D0A00005B25733A2025733AC3
:101750002534645D20436C6F756420646973636F26
:101760006E6E65637465640D0A0000005B25733A54
:101770002025733A2534645D2046572076657273C0
:10178000696F6E3A2025730D0A0000005B4D583AD0
:1017900025733A25733A2534645D202A2A41535330
:1017A0004552542A2A2025730D0A00005B25733AFE
:1017B0002025733A2534645D206E6F742066696E4F
:1017C0006420646576696365206B65792E2E2E0D25
:1017D0000A0000005B25733A2025733A2534645DC6
:1017E00020646576696365206B6579206469666647
:1017F0006572656E742C206E65656420746F20734D
:1018000065740D0A000000005B25733A2025733AC9
:101810002534645D20646576696365206B65792095
:101820007468652073616D650D0A00005B25733A6D
:101830002025733A2534645D20535349443A2025CA
:10184000732C205057443A2025730D0A00000000E5
:101850005B25733A2025733A2534645D20416C6919
:10186000636C6F756420636F6E6E65637465642E60
:101870000D0A00005B25733A2025733A2534645D18
:101880002057616974696E6720666F7220416C69C8
:10189000636C6F756420636F6E6E656374696F6EE1
:1018A0000D0A00005B25733A2025733A2534645DE8
:1018B00020576C616E20756E636F6E666967757216
:1018C00065642C20737461727420636F6E6669673F
:1018D000206D6F64650D0A005B25733A2025733A0D
:1018E0002534645D205354415445204552524F5293
:1018F0000D0A0000426F6172642054657374000029
:10190000426F61726420546573742C2025642F2506
:101910006400000054656D703A20252E3266204325
:101920000000000068756D693A20252E326620257A
:10193000250000005B54696D653A2025645D0D0A41
:1019400000000000687432305F6932635F62757353
:101950005F77726974650000687432305F69326362
:101960005F6275735F726561640000002E2E2F4206
:101970006F6172642F6472765F73687432302F7394
:10198000687432782E6300008D14AF008D10AE00A5
:101990000000000000000000000000000000000047
:1019A000000000F8000000000000003330000000DC
:1019B00000100C06100C06000000000000000000E3
:1019C00040C07840C0784000043F04043F04040055
:1019D000007088FC08300000001820FF211E000065
:1019E000F008F000E018000000211C031E211E007A
:1019F00000F00888700000001E2123241927211000
:101A000010160E00000000000000000000000000A2
:101A1000000000E018040200000000071820400049
:101A200000020418E0000000004020180700000039
:101A3000404080F0804040000202010F010202009D
:101A4000000000F0000000000101011F0101010081
:101A5000000000000000000080B0700000000000E6
:101A6000000000000000000000010101010101016F
:101A70000000000000000000003030000000000006
:101A800000000000806018040060180601000000DB
:101A900000E010080810E000000F102020100F00D8
:101AA000001010F8000000000020203F202000005F
:101AB00000700808088870000030282422213000B7
:101AC00000300888884830000018202020110E00BF
:101AD0000000C02010F8000000070424243F240068
:101AE00000F80888880808000019212020110E003D
:101AF00000E0108888180000000F112020110E004F
:101B000000380808C83808000000003F0000000046
:101B10000070880808887000001C222121221C0007
:101B200000E010080810E0000000312222110F0030
:101B3000000000C0C00000000000003030000000C5
:101B40000000008000000000000080600000000035
:101B5000000080402010080000010204081020004E
:101B60004040404040404000040404040404040099
:101B7000000810204080000000201008040201002E
:101B8000007048080808F00000000030360100002E
:101B9000C030C828E810E0000718272423140B00E1
:101BA0000000C038E0000000203C2302022738205B
:101BB00008F8888888700000203F202020110E003F
:101BC000C030080808083800071820202010080036
:101BD00008F808080810E000203F202020100F001F
:101BE00008F88888E8081000203F202023201800EB
:101BF00008F88888E8081000203F20000300000053
:101C0000C03008080838000007182020221E0200F3
